:100000000C94B5000C94D2000C94D2000C94D20045
:100010000C94D2000C94D2000C94D2000C94D20018
:100020000C94D2000C94B0010C94D2000C94D20029
:100030000C94D2000C94D2000C94D2000C94D200F8
:100040000C94D2000C94D2000C94D2000C94D200E8
:100050000C94D2000C94D2000C94D2000C94D200D8
:100060000C94D2000C94D2006E616E00696E660032
:1000700000407A10F35A00A0724E18090010A5D45F
:10008000E80000E87648170000E40B54020000CABC
:100090009A3B000000E1F505000080969800000002
:1000A00040420F000000A086010000001027000061
:1000B0000000E803000000006400000000000A00E7
:1000C000000000000100000000002C76D888DC67EA
:1000D0004F0823DFC1DFAE59E1B1B796E5E3E45342
:1000E000C63AE651997696E8E6C28426EB898C9B5F
:1000F00062ED407C6FFCEFBC9C9F40F2BAA56FA5FF
:10010000F490055A2AF75C936B6CF9676DC11BFC80
:10011000E0E40D47FEF520E6B500D0ED902E03009B
:10012000943577050080841E080000204E0A0000E8
:1001300000C80C333333330F986E12831141EF8DA7
:100140002114893BE65516CFFEE6DB18D1844B38E7
:100150001BF77C1D901DA4BBE424203284725E2218
:100160008100C9F124ECA1E53D2711241FBECFEF8A
:10017000D8E0DEBFCDBF11E0A0E0B1E0E8E5FAE1F4
:1001800002C005900D92A435B107D9F721E0A4E58E
:10019000B1E001C01D92A835B207E1F70E94D50178
:1001A0000C942A0D0C9400008AB1806E8AB98BB130
:1001B000806C8BB90895613019F138F0623009F420
:1001C0006BC0643009F483C008954BB121E030E086
:1001D000B90102C0660F771F8A95E2F7CB01962F0F
:1001E000909594239BB97FEF21EE34E0715020402D
:1001F0003040E1F700C000009BB1892B8BB9089516
:100200004BB121E030E0B90102C0660F771F8A953B
:10021000E2F7CB01262F2095922F94239BB97FEFF5
:1002200031EE44E0715030404040E1F700C0000042
:100230009BB1982B9BB95FEF61EE74E05150604029
:100240007040E1F700C000009BB192239BB93FEFE3
:1002500041EE54E0315040405040E1F700C0000012
:100260009BB1982B9BB96FEF71EE34E061507040F9
:100270003040E1F700C000009BB192239BB94FEFE3
:1002800051EE64E0415050406040E1F700C0000092
:100290009BB1892B8BB908954BB121E030E0B901B6
:1002A00002C0660F771F8A95E2F7CB01962F9095D3
:1002B00094239BB97FEF29E638E17150204030400C
:1002C000E1F700C000009BB1892B8BB908955F98BE
:1002D0004FEF51EE64E0415050406040E1F700C004
:1002E00000005F9A8FE19EE40197F1F700C00000E3
:1002F0005E989FEF21EE34E0915020403040E1F7CE
:1003000000C000005E9A5F984FEF51EE64E04150EC
:1003100050406040E1F700C000005F9A8FE19EE42A
:100320000197F1F700C000005E989FEF21EE34E0E6
:10033000915020403040E1F700C000005E9A0895DF
:10034000E6EBF0E080818083E0E7F0E010828081DE
:10035000816080831092B00083E08093B1000895A3
:100360001F920F920FB60F9211248F939F93AF930A
:10037000BF938091540190915501A0915601B09185
:1003800057010196A11DB11D809354019093550111
:10039000A0935601B0935701BF91AF919F918F9158
:1003A0000F900FBE0F901F901895CF93DF93CDB78E
:1003B000DEB7CF59D1090FB6F894DEBF0FBECDBF5F
:1003C0008FE19EE40197F1F700C000000E94D40085
:1003D0000E942D060E94B8060E94A001AFE1BEE473
:1003E0001197F1F700C0000048E068E082E00E9449
:1003F0007D04789461E086E00E94DB004E01B7E066
:100400008B0E911C6894BB24B7F880915401909195
:100410005501A0915601B091570181329E44A1052A
:10042000B10540F0109254011092550110925601FE
:100430001092570162E0CE0101960E943B0569814E
:100440007A81072E000C880B990B0E94CA0620E0C7
:1004500030E040E059E30E940507C957DF4F688349
:10046000C758D040C857DF4F7883C858D040C757C7
:10047000DF4F8883C958D040E92E6B817C81072EDD
:10048000000C880B990B0E94CA0620E030E040E087
:1004900059E30E940507D62EC72EA82E792E6D810E
:1004A0007E81072E000C880B990B0E94CA0620E063
:1004B00030E040E059E30E940507662E572E482E93
:1004C000392E62E0CE0101960E94710569817A8120
:1004D000072E000C880B990B0E94CA062DE233E20E
:1004E0004AE75CE30E940507C657DF4F6883CA5896
:1004F000D040C557DF4F7883CB58D040C457DF4F2B
:100500008883CC58D040C357DF4F9883CD58D04014
:100510006B817C81072E000C880B990B0E94CA0608
:100520002DE233E24AE75CE30E940507C257DF4F42
:100530006883CE58D040C157DF4F7883CF58D04022
:10054000C057DF4F8883C059D040CF56DF4F9883C4
:10055000C159D0406D817E81072E000C880B990B0C
:100560000E94CA062DE233E24AE75CE30E940507D7
:10057000CE56DF4F6883C259D040CD56DF4F7883C7
:10058000C359D040CC56DF4F8883C459D040CB5696
:10059000DF4F9883C559D04062E0CE0101960E949A
:1005A000A70569817A81072E000C880B990B0E94A0
:1005B000CA062AE939E949E15FE30E940507CA56FC
:1005C000DF4F6883C659D040C956DF4F7883C7597B
:1005D000D040C856DF4F8883C859D040C756DF4F38
:1005E0009883C959D0406B817C81072E000C880B01
:1005F000990B0E94CA062AE939E949E15FE30E94A2
:100600000507C656DF4F6883CA59D040C556DF4F2D
:100610007883CB59D040282EC456DF4F9883CC59CD
:10062000D0406D817E81072E000C880B990B0E94B3
:10063000CA062AE939E949E15FE30E940507C35682
:10064000DF4F6883CD59D040C256DF4F7883CE59F3
:10065000D040C156DF4F8883CF59D040F92ED40106
:10066000EB2D1D92EA95E9F7009154011091550187
:1006700020915601309157014091540150915501FC
:1006800060915601709157018091540190915501EC
:10069000A0915601B09157013F924F925F926F9295
:1006A0003F932F931F930F937F92AF92CF92DF923E
:1006B0007F936F935F934F93EF92C757DF4FF8810C
:1006C000C958D040FF93C857DF4F2881C858D04041
:1006D0002F93C957DF4FE881C758D040EF93BF939E
:1006E000AF939F938F93A0E0B1E0BF93AF931F921E
:1006F000BF929F928F920E949C0CC4010E94A906F7
:10070000D401EB2D1D92EA95E9F7409054015090E9
:1007100055016090560170905701409154015091DD
:10072000550160915601709157018091540190914B
:100730005501A0915601B0915701CB56DF4FF8817A
:10074000C559D040FF93CC56DF4F2881C459D040C3
:100750002F93CD56DF4FE881C359D040EF93CE564B
:10076000DF4FF881C259D040FF937F926F925F9222
:100770004F92CF56DF4F2881C159D0402F93C05799
:10078000DF4FE881C059D040EF93C157DF4FF88168
:10079000CF58D040FF93C257DF4F2881CE58D0406A
:1007A0002F937F936F935F934F93C357DF4FE881EE
:1007B000CD58D040EF93C457DF4FF881CC58D0408C
:1007C000FF93C557DF4F2881CB58D0402F93C65792
:1007D000DF4FE881CA58D040EF93BF93AF939F9308
:1007E0008F93ACE1B1E0BF93AF931F92BF929F9202
:1007F0008F920E949C0C0FB6F894DEBF0FBECDBF47
:10080000C4010E94A906D401EB2D1D92EA95E9F7D7
:1008100040905401509055016090560170905701DE
:1008200040915401509155016091560170915701CA
:100830008091540190915501A0915601B0915701BA
:10084000FF92C156DF4FF881CF59D040FF93C25677
:10085000DF4F2881CE59D0402F93C356DF4FE88118
:10086000CD59D040EF937F926F925F924F92C456D2
:10087000DF4FF881CC59D040FF932F92C556DF4F00
:100880002881CB59D0402F93C656DF4FE881CA59F3
:10089000D040EF937F936F935F934F93C756DF4F93
:1008A000F881C959D040FF93C856DF4F2881C859F5
:1008B000D0402F93C956DF4FE881C759D040EF93FE
:1008C000CA56DF4FF881C659D040FF93BF93AF930C
:1008D0009F938F93A8E3B1E0BF93AF931F92BF9212
:1008E0009F928F920E949C0CC4010E94A9060FB691
:1008F000F894DEBF0FBECDBF88CDEF92FF920F936D
:100900001F93CF93DF9300D000D000D0CDB7DEB7D8
:10091000182FF62EE42E80E889839E012F5F3F4F2B
:1009200041E06BE6812F0E943D0601E009839E01B4
:100930002F5F3F4F41E06BE6812F0E943D061982F9
:100940009E012F5F3F4F41E06CE6812F0E943D06E4
:1009500009839E012F5F3F4F41E06AE1812F0E9492
:100960003D0609839E012F5F3F4F41E06AE6812FDC
:100970000E943D06E9829E012F5F3F4F41E06BE1FF
:10098000812F0E943D06F9829E012F5F3F4F41E07B
:100990006CE1812F0E943D0689E089839E012F5FD3
:1009A0003F4F41E06DE1812F0E943D0680E2898347
:1009B0009E012F5F3F4F41E06AE6812F0E943D0676
:1009C0008DE089839E012F5F3F4F41E064E2812FDC
:1009D0000E943D068CE089839E012F5F3F4F41E0DE
:1009E00065E2812F0E943D068BE089839E012F5F87
:1009F0003F4F41E066E2812F0E943D0609839E0140
:100A00002F5F3F4F41E063E6812F0E943D0601E8E2
:100A100009839E012F5F3F4F41E067E2812F0E94D3
:100A20003D068AE089839E012F5F3F4F41E066E2E9
:100A3000812F0E943D0682E189839E012F5F3F4FF7
:100A400041E063E6812F0E943D0609839E012F5FEE
:100A50003F4F41E067E2812F0E943D0626960FB688
:100A6000F894DEBF0FBECDBFDF91CF911F910F91E4
:100A7000FF90EF9008950F931F93CF93DF9300D0D3
:100A800000D000D0CDB7DEB78C01862F9E012F5F3E
:100A90003F4F46E06BE30E946C06898190E0982FFF
:100AA00088272A81822BF801918380832B8130E073
:100AB000322F22278C81282B338322832D8130E013
:100AC000322F22278E81282B3583248326960FB63A
:100AD000F894DEBF0FBECDBFDF91CF911F910F9174
:100AE00008950F931F93CF93DF9300D000D000D0D1
:100AF000CDB7DEB78C01862F9E012F5F3F4F46E0BA
:100B000063E40E946C06898190E0982F88272A81EF
:100B1000822BF801918380832B8130E0322F2227B2
:100B20008C81282B338322832D8130E0322F2227A2
:100B30008E81282B3583248326960FB6F894DEBF4A
:100B40000FBECDBFDF91CF911F910F910895FF92FE
:100B50000F931F93CF93DF93CDB7DEB727970FB6D1
:100B6000F894DEBF0FBECDBF8C01F62E8CE88983D2
:100B70009E012F5F3F4F41E065E28F2D0E943D06B1
:100B800083E089839E012F5F3F4F41E066E28F2D16
:100B90000E943D0687E889839E012F5F3F4F41E019
:100BA00067E28F2D0E943D068FEC97E00197F1F7E9
:100BB00000C000009E012F5F3F4F47E069E48F2D8A
:100BC0000E946C068A8190E0982F88272981822BC9
:100BD000F801918380832C8130E0322F22278B8192
:100BE000282B338322832E8130E0322F22278D81E0
:100BF000282B3583248327960FB6F894DEBF0FBECB
:100C0000CDBFDF91CF911F910F91FF90089582305A
:100C100049F018F4882361F00895863039F0873060
:100C200019F008952A9808952F9808952E980895F8
:100C300040980895823049F018F4882361F00895AF
:100C4000863039F0873019F008952A9A08952F9A3E
:100C500008952E9A0895409A089584B18E6A84B9B1
:100C600082E00E941A0687E00E941A06389A409A8B
:100C70001CBC81E58CBD1DBC0895FF920F931F9392
:100C8000CF93DF93D82FF62EC42F89010E94070639
:100C9000FEBC0DB407FEFDCFCC2399F0F801C15086
:100CA0004C2F50E04F5F5F4F9801240F351F4FEFDF
:100CB00091919EBD4EBD0DB407FEFDCFE217F30727
:100CC000B9F78D2F0E941A0680E090E0DF91CF9156
:100CD0001F910F91FF900895FF920F931F93CF9351
:100CE000DF93082F162FF42EE9010E9407061068E3
:100CF0001EBD0DB407FEFDCF8FEF8EBD0DB407FEF8
:100D0000FDCFFF2071F0FE019E012F0D311D4FEF31
:100D10009EB591934EBD0DB407FEFDCFE217F307CC
:100D2000B9F7802F0E941A0680E090E0DF91CF9102
:100D30001F910F91FF900895E0ECF0E0908195FFF6
:100D4000FDCF8093C600E0ECF0E0808185FFFDCF11
:100D50000895CF93DF93EC018881882331F02196A9
:100D60000E949C0689918111FBCFDF91CF9108955C
:100D7000E1ECF0E0808188618083E2ECF0E080814A
:100D8000866080831092C5008CE08093C400089533
:100D9000E89409C097FB3EF4909580957095619515
:100DA0007F4F8F4F9F4F9923A9F0F92F96E9BB27CB
:100DB0009395F695879577956795B795F111F8CF47
:100DC000FAF4BB0F11F460FF1BC06F5F7F4F8F4FB2
:100DD0009F4F16C0882311F096E911C0772321F0A8
:100DE0009EE8872F762F05C0662371F096E8862F40
:100DF00070E060E02AF09A95660F771F881FDAF797
:100E0000880F9695879597F908950E9418070C9476
:100E100089070E947B0738F00E94820720F0952303
:100E200011F00C9472070C94780711240C94BD07F0
:100E30000E949A0770F3959FC1F3950F50E0551FDC
:100E4000629FF001729FBB27F00DB11D639FAA271F
:100E5000F00DB11DAA1F649F6627B00DA11D661F6E
:100E6000829F2227B00DA11D621F739FB00DA11D8F
:100E7000621F839FA00D611D221F749F3327A00D49
:100E8000611D231F849F600D211D822F762F6A2FE5
:100E900011249F5750409AF0F1F088234AF0EE0F4A
:100EA000FF1FBB1F661F771F881F91505040A9F777
:100EB0009E3F510580F00C9472070C94BD075F3F74
:100EC000E4F3983ED4F3869577956795B795F795B3
:100ED000E7959F5FC1F7FE2B880F911D969587952B
:100EE00097F9089597F99F6780E870E060E00895AA
:100EF0009FEF80EC089500240A9416161706180632
:100F00000906089500240A9412161306140605060D
:100F10000895092E0394000C11F4882352F0BB0F9E
:100F200040F4BF2B11F460FF04C06F5F7F4F8F4F01
:100F30009F4F089557FD9058440F551F59F05F3F3C
:100F400071F04795880F97FB991F61F09F3F79F0EB
:100F500087950895121613061406551FF2CF46956D
:100F6000F1DF08C0161617061806991FF1CF8695EF
:100F70007105610508940895E894BB2766277727D3
:100F8000CB0197F90895A3E1B0E0E9ECF7E00C9408
:100F90003F0B6C014B012A01FC01178216828381F1
:100FA00081FF43C3AE014F5F5F4F3A01F60193816A
:100FB000F40193FD859193FF81914F01882309F4FA
:100FC00030C3853239F493FD859193FF81914F01B0
:100FD000853239F4B60190E00E94640C520125017B
:100FE000E5CF10E0F12C20E02032A0F48B3269F044
:100FF00030F4803259F0833269F420612CC08D3294
:1010000039F0803339F4216026C02260246023C087
:10101000286021C027FD27C030ED380F3A3078F422
:1010200026FF06C0FAE01F9F300D1124132F13C0B6
:101030004AE0F49E300D1124F32E20620CC08E3253
:1010400021F426FDEEC2206406C08C3611F420681F
:1010500002C0883641F4F40193FD859193FF81919C
:101060004F018111C1CF9BEB980F933018F4206191
:10107000805E06C09BE9980F933008F071C12F7E07
:1010800026FF16E02F73322E853619F42064322E97
:1010900008C0863621F4F22FF0683F2E02C01111ED
:1010A000115037FE07C01C3350F4EE24E394E10ED8
:1010B00027E00BC0183038F027E017E005C027E024
:1010C0004CE3E42E02C0212FE12C520144E0A40E97
:1010D000B11CF20160817181828193810E2DA30187
:1010E0000E94760B2C01098100FF02C003FF07C09C
:1010F00031FC08C032FE09C030E2232E07C02DE2C9
:10110000222E04C09BE2292E01C0212C802F8C703E
:1011100019F0211068C2A8C237FE0FC0E40C04FF0A
:1011200004C08A81813309F4EA941E1474F5F8E04E
:10113000FE1578F588E0E82E2CC036FC2AC0812FF9
:1011400090E0841595059CF02CEF42162FEF520687
:1011500074F0432D4068342E0AC0E2E0F0E0EC0F5A
:10116000FD1FE10FF11D8081803319F41150111121
:10117000F4CF37FE0EC0EE24E394E10E812F90E011
:10118000481659062CF4141904C0EE24E39401C047
:1011900010E037FE06C01414150434F4C2010196A1
:1011A00005C085E090E002C081E090E0211001964A
:1011B000112331F0212F30E02F5F3F4F820F931F1B
:1011C0002F2D30E08217930714F4F81A01C0F12C88
:1011D000832D897049F4FF2039F0B60180E290E058
:1011E0000E94640CFA94F7CF222029F0B601822DD8
:1011F00090E00E94640C33FC09C0FF2039F0B60176
:1012000080E390E00E94640CFA94F7CF37FE5AC056
:10121000942D852D57FE02C090E080E0292E382EB7
:1012200020E030E0A2014E1951095D874C87A201F0
:10123000421953095F874E87612F70E04427552775
:10124000461B570B598B488B5FEF2516350649F423
:10125000B6018EE290E02A8B3B8B0E94640C3B89A6
:101260002A89421453046CF04C855D854215530560
:1012700044F4EE85FF85E20FF31FE60DF71D818133
:1012800001C080E351E0251A31082F5F3F4F4889A4
:101290005989241635064CF0B60190E02A8B3B8B19
:1012A0000E94640C2A893B89CFCF2414350439F479
:1012B0009A81963318F4953311F404FF81E3B60153
:1012C00090E04BC08A81813309F00F7EB60190E037
:1012D0000E94640C111105C034FC18C085E690E032
:1012E00017C0B6018EE290E00E94640C82E0EE240A
:1012F000E394E80EF301E80FF11D8081B60190E060
:101300000E94640C11508E2D91F7E6CF85E490E099
:10131000B6010E94640C57FC05C04114510439F415
:1013200004FF05C05194419451088DE201C08BE245
:10133000B60190E00E94640C80E39AE049165104E3
:101340002CF08F5F5AE0451A5108F7CFB60190E0B4
:101350000E94640CB601C201C0960E94640C57C181
:10136000833631F0833779F0833509F058C021C0D6
:101370005201E2E0AE0EB11CF2018081898301E0EE
:1013800010E0230114C05201F2E0AF0EB11CF201D3
:101390004080518026FF03C0612F70E002C06FEFD4
:1013A0007FEFC2012A8B0E94590C8C012A892F776A
:1013B00015C05201F2E0AF0EB11CF2014080518025
:1013C00026FF03C0612F70E002C06FEF7FEFC20104
:1013D0002A8B0E944E0C8C012A892068322E23FD14
:1013E0001AC08F2D90E008171907A8F4B60180E203
:1013F00090E00E94640CFA94F4CFF20137FC8591DE
:1014000037FE81912F01B60190E00E94640CF1102B
:10141000FA94015011090115110579F7F8C08436C5
:1014200011F0893659F5520127FF09C0F4E0AF0EDB
:10143000B11CF20160817181828193810AC0F2E066
:10144000AF0EB11CF20160817181072E000C880B78
:10145000990B2F76322E97FF09C090958095709545
:1014600061957F4F8F4F9F4F2068322E2AE030E0EA
:10147000A3010E94CC0CE82EE6183FC0022F85374E
:1014800021F40F7E2AE030E01DC0097F8F3691F0F5
:1014900018F4883559F0C5C0803719F0883711F035
:1014A000C0C0006104FF09C0046007C024FF08C079
:1014B000066006C028E030E005C020E130E002C050
:1014C00020E132E0520107FF09C0F4E0AF0EB11C89
:1014D000F201608171818281938108C0F2E0AF0ED8
:1014E000B11CF2016081718180E090E0A3010E9453
:1014F000CC0CE82EE6180F77302E36FE0BC0332DBD
:101500003E7FE11650F434FE0AC032FC08C0332D91
:101510003E7E05C00E2D332D03C00E2D01C0012FC0
:1015200034FF0CC0FE01EE0DF11D8081803311F4FB
:10153000397E08C032FF05C00E5F04C0832F867855
:1015400009F00F5F33FD13C030FF06C01E2D0F15CD
:1015500018F41F0D101B0F2D0F1568F4B60180E253
:1015600090E03B8B0E94640C0F5F3B89F5CF0F1519
:1015700010F4F01A01C0F12C34FF12C0B60180E360
:1015800090E03B8B0E94640C3B8932FF17C031FD19
:1015900003C088E790E002C088E590E0B6010CC087
:1015A000832F867859F031FF02C08BE201C080E2C0
:1015B00037FD8DE2B60190E00E94640CE11638F42C
:1015C000B60180E390E00E94640C1150F7CFEA94DA
:1015D000F301EE0DF11D8081B60190E00E94640CD4
:1015E000E110F5CF14C0F4E0FF1558F584E0F81AC7
:1015F00033FE1EC0211026C003FF2AC008E610E0FB
:10160000F32DF0713F2EF8018491811124C0FF2049
:1016100009F4E5CCB60180E290E00E94640CFA94F3
:10162000F6CFF6018681978126C08FEF9FEF23C00A
:10163000B60180E290E00E94640CFA94F110F8CFB9
:10164000D9CFF12CB601822D90E00E94640CD4CF4A
:101650000CE610E0D5CF31108052B60190E00E9428
:10166000640C0F5F1F4FCFCF23E02F1510F483E0E2
:10167000BECFF12CC1CF6396E2E10C945B0B2F92AD
:101680003F924F925F926F927F928F929F92AF9212
:10169000BF92CF92DF92EF92FF920F931F93CF935F
:1016A000DF93CDB7DEB7CA1BDB0B0FB6F894DEBFF6
:1016B0000FBECDBF09942A88398848885F846E841C
:1016C0007D848C849B84AA84B984C884DF80EE8066
:1016D000FD800C811B81AA81B981CE0FD11D0FB66F
:1016E000F894DEBF0FBECDBFED010895283008F09D
:1016F00027E03327DA01990F311D87FD91600096AD
:101700006105710539F432602E5F3D9330E32A950F
:10171000E1F708959F3F30F080387105610509F0C9
:101720003C5F3C5F3D93913008F08068911DDF93F2
:10173000CF931F930F93FF92EF92192F987F969557
:10174000E92F96959695E90FFF27E653FF4F9927C6
:101750003327EE24FF24A701E7010590089407949E
:1017600028F4360FE71EF81E491F511D660F771F1C
:10177000881F991F0694A1F70590079428F4E70E97
:10178000F81E491F561FC11D770F881F991F661F1E
:101790000694A1F70590079428F4F80E491F561FE8
:1017A000C71FD11D880F991F661F771F0694A1F7C9
:1017B0000590079420F4490F561FC71FD81F990F93
:1017C000661F771F881F0694A9F7849110951770DC
:1017D00041F0D695C79557954795F794E7941A9594
:1017E000C1F7E0E7F0E068941590159135916591A7
:1017F000959105907FE27395E118F10A430B560B22
:10180000C90BD009C0F7E10CF11E431F561FC91FB9
:10181000D01D7EF4703311F48A95E6CFE894015020
:1018200030F0080F0AF40027021708F4202F239540
:10183000022F7A3328F079E37D932A95E9F710C0D7
:101840007D932A9589F60694979567953795179510
:101850001794E118F10A430B560BC90BD00998F005
:1018600023957E9173957A3308F070E37C9320136F
:10187000B8F77E9170617D9330F0839571E37D932D
:1018800070E32A95E1F71124EF90FF900F911F91DB
:10189000CF91DF91992787FD90950895FC010590E0
:1018A000615070400110D8F7809590958E0F9F1F62
:1018B0000895FC016150704001900110D8F78095A7
:1018C00090958E0F9F1F08950F931F93CF93DF93D3
:1018D000FB01238121FD03C08FEF9FEF28C022FF72
:1018E00016C046815781248135814217530744F43D
:1018F000A081B1819D012F5F3F4F318320838C9365
:10190000268137812F5F3F4F3783268310C0EB013D
:10191000092F182F0084F185E02D0995892BE1F618
:101920008E819F8101969F838E83812F902FDF91DF
:10193000CF911F910F910895AEE0B0E0E2EAFCE094
:101940000C944D0B0D891E898F89988D26E02C8370
:101950001A83098397FF02C080E090E801979E8375
:101960008D83AE01455E5F4F698D7A8DCE01019604
:101970000E94C3074D815E8157FD0AC02F813885C3
:10198000421753070CF49A01F801E20FF31F10827B
:101990002E96E4E00C94690BFA01AA27283051F145
:1019A000203181F1E8946F936E7F6E5F7F4F8F4F90
:1019B0009F4FAF4FB1E03ED0B4E03CD0670F781FEF
:1019C000891F9A1FA11D680F791F8A1F911DA11DD4
:1019D0006A0F711D811D911DA11D20D009F468940D
:1019E0003F912AE0269F11243019305D3193DEF6B5
:1019F000CF010895462F4770405D4193B3E00FD06B
:101A0000C9F7F6CF462F4F70405D4A3318F0495D55
:101A100031FD4052419302D0A9F7EACFB4E0A69538
:101A20009795879577956795BA95C9F7009761055A
:101A3000710508959B01AC010A2E069457954795B0
:101A400037952795BA95C9F7620F731F841F951FA5
:081A5000A01D0895F894FFCFDA
:101A58002A4858256C755925662C58256C755925C2
:101A6800662C58256C755925662A0A002A4A582575
:101A78006C755925662C58256C755925662C582582
:101A88006C755925662A0A002A4B58256C75592504
:101A9800662C58256C755925662C58256C75592562
:041AA800662A0A00A0
:00000001FF
