:100000000C94B5000C94D2000C94D2000C94D20045
:100010000C94D2000C94D2000C94D2000C94D20018
:100020000C94D2000C94B0010C94D2000C94D20029
:100030000C94D2000C94D2000C94D2000C94D200F8
:100040000C94D2000C94D2000C94D2000C94D200E8
:100050000C94D2000C94D2000C94D2000C94D200D8
:100060000C94D2000C94D2006E616E00696E660032
:1000700000407A10F35A00A0724E18090010A5D45F
:10008000E80000E87648170000E40B54020000CABC
:100090009A3B000000E1F505000080969800000002
:1000A00040420F000000A086010000001027000061
:1000B0000000E803000000006400000000000A00E7
:1000C000000000000100000000002C76D888DC67EA
:1000D0004F0823DFC1DFAE59E1B1B796E5E3E45342
:1000E000C63AE651997696E8E6C28426EB898C9B5F
:1000F00062ED407C6FFCEFBC9C9F40F2BAA56FA5FF
:10010000F490055A2AF75C936B6CF9676DC11BFC80
:10011000E0E40D47FEF520E6B500D0ED902E03009B
:10012000943577050080841E080000204E0A0000E8
:1001300000C80C333333330F986E12831141EF8DA7
:100140002114893BE65516CFFEE6DB18D1844B38E7
:100150001BF77C1D901DA4BBE424203284725E2218
:100160008100C9F124ECA1E53D2711241FBECFEF8A
:10017000D8E0DEBFCDBF11E0A0E0B1E0ECE9FDE1E9
:1001800002C005900D92A236B107D9F721E0A2E690
:10019000B1E001C01D92AC3AB207E1F70E94D5016F
:1001A0000C94CC0E0C9400008AB1806E8AB98BB18D
:1001B000806C8BB90895613019F138F0623009F420
:1001C0006BC0643009F483C008954BB121E030E086
:1001D000B90102C0660F771F8A95E2F7CB01962F0F
:1001E000909594239BB97FEF21EE34E0715020402D
:1001F0003040E1F700C000009BB1892B8BB9089516
:100200004BB121E030E0B90102C0660F771F8A953B
:10021000E2F7CB01262F2095922F94239BB97FEFF5
:1002200031EE44E0715030404040E1F700C0000042
:100230009BB1982B9BB95FEF61EE74E05150604029
:100240007040E1F700C000009BB192239BB93FEFE3
:1002500041EE54E0315040405040E1F700C0000012
:100260009BB1982B9BB96FEF71EE34E061507040F9
:100270003040E1F700C000009BB192239BB94FEFE3
:1002800051EE64E0415050406040E1F700C0000092
:100290009BB1892B8BB908954BB121E030E0B901B6
:1002A00002C0660F771F8A95E2F7CB01962F9095D3
:1002B00094239BB97FEF29E638E17150204030400C
:1002C000E1F700C000009BB1892B8BB908955F98BE
:1002D0004FEF51EE64E0415050406040E1F700C004
:1002E00000005F9A8FE19EE40197F1F700C00000E3
:1002F0005E989FEF21EE34E0915020403040E1F7CE
:1003000000C000005E9A5F984FEF51EE64E04150EC
:1003100050406040E1F700C000005F9A8FE19EE42A
:100320000197F1F700C000005E989FEF21EE34E0E6
:10033000915020403040E1F700C000005E9A0895DF
:10034000E6EBF0E080818083E0E7F0E010828081DE
:10035000816080831092B00083E08093B1000895A3
:100360001F920F920FB60F9211248F939F93AF930A
:10037000BF938091620190916301A0916401B0915B
:1003800065010196A11DB11D8093620190936301E7
:10039000A0936401B0936501BF91AF919F918F913C
:1003A0000F900FBE0F901F901895CF93DF93CDB78E
:1003B000DEB7C058D1090FB6F894DEBF0FBECDBF6F
:1003C0008FE19EE40197F1F700C0000078940E944D
:1003D000F4069AE19A95F1F700C00E94D4000E94B9
:1003E00076070E94A001AFE1BEE41197F1F700C0CB
:1003F000000041E050E061E070E082E00E942706EA
:10040000EFE1FEE43197F1F700C0000041E050E079
:1004100061E070E087E00E9427068FE19EE401978B
:10042000F1F700C0000041E050E061E070E086E0DC
:100430000E94270661E086E00E94DB00AFE1BEE497
:100440001197F1F700C0000068E170E082E00E94BF
:10045000BC05EFE1FEE43197F1F700C0000068E170
:1004600070E082E00E9451058FE19EE40197F1F770
:1004700000C0000068E170E087E00E94BC05AFE1C9
:10048000BEE41197F1F700C0000068E170E087E07A
:100490000E945105EFE1FEE43197F1F700C0000042
:1004A00068E170E086E00E94BC058FE19EE4019760
:1004B000F1F700C0000068E170E086E00E9451059D
:1004C000AFE1BEE41197F1F700C0000080E091E0D9
:1004D0000E94670762E086E00E94DB0082E00E94E3
:1004E000C903EFE1FEE43197F1F700C0000087E0B7
:1004F0000E94C9038FE19EE40197F1F700C000005C
:1005000086E00E94C903AFE1BEE41197F1F700C095
:100510000000BFEFE3EDF0E3B150E040F040E1F761
:1005200000C000006894552457F8CE0101965C0184
:100530000F2EF6E6CF2EF1E0DF2EF02D0F2EFAE78C
:10054000EF2EF1E0FF2EF02D0CE811E00F2EF5E478
:100550002F2EF1E03F2EF02D8091620190916301EA
:10056000A0916401B091650181329E44A105B1055D
:1005700040F0109262011092630110926401109297
:100580006501FFEF20E782E0F15020408040E1F775
:1005900000C0000086E00E943E04D501E52D1D92BA
:1005A000EA95E9F7609062017090630180906401C0
:1005B00090906501409162015091630160916401E6
:1005C000709165018091620190916301A091640135
:1005D000B0916501F60123852F9322852F93218504
:1005E0002F9320852F939F928F927F926F922781D6
:1005F0002F9326812F9325812F9324812F937F93EF
:100600006F935F934F9323812F9322812F932181A7
:100610002F9320812F93BF93AF939F938F93ADE040
:10062000B1E0BF93AF931F925F92BF92AF920E94CF
:100630003E0EC5010E946707D501E52D1D92EA9582
:10064000E9F760906201709063018090640190907E
:100650006501409162015091630160916401709164
:1006600065018091620190916301A0916401B09154
:100670006501F70123852F9322852F9321852F93E1
:1006800020852F939F928F927F926F9227812F9335
:1006900026812F9325812F9324812F937F936F930E
:1006A0005F934F9323812F9322812F9321812F9347
:1006B00020812F93BF93AF939F938F93A9E2B1E0D3
:1006C000BF93AF931F925F92BF92AF920E943E0E74
:1006D0000FB6F894DEBF0FBECDBFC5010E946707FD
:1006E000D501E52D1D92EA95E9F7609062017090C1
:1006F0006301809064019090650140916201509186
:100700006301609164017091650180916201909133
:100710006301A0916401B0916501F80123852F93D5
:1007200022852F9321852F9320852F939F928F923F
:100730007F926F9227812F9326812F9325812F936C
:1007400024812F937F936F935F934F9323812F93F4
:1007500022812F9321812F9320812F93BF93AF93D9
:100760009F938F933F922F921F925F92BF92AF926F
:100770000E943E0EC5010E9467078FE59AEE019721
:10078000F1F700C000000FB6F894DEBF0FBECDBF7A
:10079000E3CECF92DF92EF92FF920F931F93CF930E
:1007A000DF9300D01F92CDB7DEB7182F4CE861E37E
:1007B0000E9407078FE19EE40197F1F700C0000057
:1007C00040E162E3812F0E940707EFE1FEE43197E9
:1007D000F1F700C0000043E864E3812F0E9407079F
:1007E00087EC90E00197F1F700C000009E012F5FB9
:1007F0003F4F43E069E4812F0E942807FE013196B4
:100800007F010CE911E00F2EF8EACF2EF1E0DF2E88
:10081000F02DF70161917F0170E080E090E00E948F
:100820006A0820E030E040E053E40E948B0720E0BB
:1008300030E040E85BE30E94F80820E030E040E868
:100840005FE30E948C072AE939E949E15EE30E94EF
:10085000F808F80161937193819391938F01EC15DE
:10086000FD05B9F60F900F900F90DF91CF911F917A
:100870000F91FF90EF90DF90CF9008958F929F920D
:10088000AF92BF92CF92DF92EF92FF920F931F939E
:10089000CF93DF93CDB7DEB765970FB6F894DEBF81
:1008A0000FBECDBF182F4CE865E20E9407078FE10D
:1008B0009EE40197F1F700C0000043E066E2812F5B
:1008C0000E940707EFE1FEE43197F1F700C0000056
:1008D00047E867E2812F0E9407078FE19EE40197B6
:1008E000F1F700C000009E012F5F3F4F45E16BE331
:1008F000812F0E9428078090A8019090A901A090C4
:10090000AA01B090AB018E010E5F1F4F0F2EF6E6CD
:10091000EF2EF1E0FF2EF02D0F2EF2E7CF2EF1E0BB
:10092000DF2EF02DF8013197608170E0762F662779
:10093000F8018081682B072E000C880B990B0E9410
:100940006C08A50194010E94F807F7016193719367
:10095000819391937F010E5F1F4FEC15FD0511F7F9
:1009600068858F8170E0782B072E000C880B990B1F
:100970000E946C0820E030E048EA51E40E948B07B6
:100980002CE53FEE46EA53E40E94F80720E030E011
:1009900048EA51E40E948C076093760170937701D6
:1009A00080937801909379018090980190909901BB
:1009B000A0909A01B0909B018E01065F1F4F0F2EF1
:1009C000FAE7EF2EF1E0FF2EF02D0F2EF6E8CF2EF6
:1009D000F1E0DF2EF02DF8013197608170E0762F85
:1009E0006627F8018081682B072E000C880B990B75
:1009F0000E946C08A50194010E94F807F701619319
:100A00007193819391937F010E5F1F4FEC15FD054C
:100A100011F70CE811E0688970E0762F66278F8562
:100A2000682B072E000C880B990B0E946C08F801AC
:100A300060837183828393836A8970E0762F66274F
:100A40008989682B072E000C880B990B0E946C0873
:100A5000F80164837583868397836C8970E0762FB1
:100A600066278B89682B072E000C880B990B0E9438
:100A70006C08F801608771878287938765960FB647
:100A8000F894DEBF0FBECDBFDF91CF911F910F91C4
:100A9000FF90EF90DF90CF90BF90AF909F908F909E
:100AA00008951F93CF93DF93182FEB01462F6CE12E
:100AB0000E940707C830D105B9F01CF4CD2B39F0DE
:100AC00039C0C031D105E9F0689741F133C080E009
:100AD00090E0A0E8B6E48093A8019093A901A093C8
:100AE000AA01B093AB0126C080E090E0A0E0B6E49C
:100AF0008093A8019093A901A093AA01B093AB01A0
:100B000019C080E090E0A0E8B5E48093A80190933C
:100B1000A901A093AA01B093AB010CC080E090E0C2
:100B2000A0E0B5E48093A8019093A901A093AA0145
:100B3000B093AB0140E06CE9812F0E940707883039
:100B4000910571F018F4009741F012C080319105C1
:100B500051F08831910551F00BC082E090E008C05F
:100B600084E090E005C088E090E002C080E190E081
:100B7000DF91CF911F9108951F93CF93DF93182F8B
:100B8000EB01462F6BE10E940707C830D105B9F091
:100B90001CF4CD2B39F039C0C031D105E9F068978C
:100BA00041F133C080E090E0A3E0B3E4809398018A
:100BB00090939901A0939A01B0939B0126C080E085
:100BC00090E0A3E8B2E48093980190939901A093F8
:100BD0009A01B0939B0119C083E393E3A3E0B2E4CD
:100BE0008093980190939901A0939A01B0939B01EF
:100BF0000CC083E393E3A3E8B1E48093980190935E
:100C00009901A0939A01B0939B0140E06BE9812F79
:100C10000E9407078830910571F018F4009741F0A1
:100C200012C08031910551F08831910551F00BC00F
:100C30008AEF90E008C084EF91E005C088EE93E071
:100C400002C080ED97E0DF91CF911F910895CF937F
:100C5000DF93C82FD42F40E86BE60E9407078FE18F
:100C60009EE40197F1F700C0000041E06BE68C2F95
:100C70000E9407078FE19EE40197F1F700C0000092
:100C800040E06CE68C2F0E9407078FE19EE40197FD
:100C9000F1F700C000004D2F6AE18C2F0E9407077A
:100CA0008FE19EE40197F1F700C0000048E16BE19D
:100CB0008C2F0E9407078FE19EE40197F1F700C097
:100CC000000048E06CE18C2F0E9407078FE19EE452
:100CD0000197F1F700C0000049E06DE18C2F0E9400
:100CE00007078FE19EE40197F1F700C0000040E3A1
:100CF00067E38C2F0E9407078FE19EE40197F1F7CD
:100D000000C0000040E26AE68C2F0E9407078FE1D6
:100D10009EE40197F1F700C000004DE064E28C2FE3
:100D20000E9407078FE19EE40197F1F700C00000E1
:100D30004CE065E28C2F0E9407074BE066E28C2FA7
:100D40000E94070741E063E68C2F0E94070741E8F5
:100D500067E28C2F0E9407078FE19EE40197F1F76D
:100D600000C000004AE066E28C2F0E94070742E1C3
:100D700063E68C2F0E94070741E867E28C2F0E94F0
:100D8000070762E070E08C2F0E9451056AEF70E067
:100D90008C2F0E94BC05DF91CF910895823049F0DD
:100DA00018F4882361F00895863039F0873019F0FF
:100DB00008952A9808952F9808952E980895409898
:100DC0000895823049F018F4882361F00895863040
:100DD00039F0873019F008952A9A08952F9A0895C6
:100DE0002E9A0895409A089584B18E6E84B982E057
:100DF0000E94E10687E00E94E10686E00E94E1068B
:100E0000389A409A1CBC8DE58CBD1DBC08951F937B
:100E1000CF93DF93C82F162FD42F0E94CE061EBD6E
:100E200000000DB407FEFDCF8EB5DEBD00000DB491
:100E300007FEFDCFDEB58C2F0E94E10685E88A957E
:100E4000F1F700008D2F90E0DF91CF911F91089571
:100E5000EF92FF921F93CF93DF93182FD62FC42FBB
:100E600079010E94CE06D068DEBD00000DB407FEF9
:100E7000FDCF8EB54C2F50E04115510571F0F701B3
:100E80009701240F351F1EBC00000DB407FEFDCFD7
:100E90009EB59193E217F307B1F7812F0E94E10607
:100EA00085E88A95F1F70000DF91CF911F91FF90BF
:100EB000EF900895E0ECF0E0908195FFFDCF8093F6
:100EC000C600E0ECF0E0808185FFFDCF0895CF9370
:100ED000DF93EC018881882331F021960E945A0724
:100EE00089918111FBCFDF91CF910895E1ECF0E082
:100EF000808188618083E2ECF0E08081866080837D
:100F0000E0ECF0E08081826080831092C50088E090
:100F10008093C40008955058BB27AA270E94A307B6
:100F20000C94BE080E94B00838F00E94B70820F068
:100F300039F49F3F19F426F40C94AD080EF4E095B3
:100F4000E7FB0C94A708E92F0E94CF0858F3BA17C3
:100F5000620773078407950720F079F4A6F50C94CF
:100F6000F1080EF4E0950B2EBA2FA02D0B01B9015C
:100F700090010C01CA01A0011124FF27591B99F00F
:100F8000593F50F4503E68F11A16F040A22F232F1B
:100F9000342F4427585FF3CF469537952795A7956B
:100FA000F0405395C9F77EF41F16BA0B620B730B12
:100FB000840BBAF09150A1F0FF0FBB1F661F771F83
:100FC000881FC2F70EC0BA0F621F731F841F48F438
:100FD000879577956795B795F7959E3F08F0B0CFC1
:100FE0009395880F08F09927EE0F979587950895A8
:100FF0000E940C080C94BE080E94B70858F00E948A
:10100000B00840F029F45F3F29F00C94A708511173
:101010000C94F2080C94AD080E94CF0868F3992351
:10102000B1F3552391F3951B550BBB27AA276217E4
:101030007307840738F09F5F5F4F220F331F441FF1
:10104000AA1FA9F335D00E2E3AF0E0E832D0915025
:101050005040E695001CCAF72BD0FE2F29D0660F12
:10106000771F881FBB1F261737074807AB07B0E855
:1010700009F0BB0B802DBF01FF2793585F4F3AF05B
:101080009E3F510578F00C94A7080C94F2085F3F3E
:10109000E4F3983ED4F3869577956795B795F795E1
:1010A0009F5FC9F7880F911D9695879597F90895C9
:1010B000E1E0660F771F881FBB1F62177307840765
:1010C000BA0720F0621B730B840BBA0BEE1F88F774
:1010D000E0950895E89409C097FB3EF490958095BB
:1010E000709561957F4F8F4F9F4F9923A9F0F92FEE
:1010F00096E9BB279395F695879577956795B7956C
:10110000F111F8CFFAF4BB0F11F460FF1BC06F5F51
:101110007F4F8F4F9F4F16C0882311F096E911C063
:10112000772321F09EE8872F762F05C0662371F084
:1011300096E8862F70E060E02AF09A95660F771F98
:10114000881FDAF7880F9695879597F9089597F98C
:101150009F6780E870E060E008959FEF80EC08955D
:1011600000240A9416161706180609060895002486
:101170000A9412161306140605060895092E039400
:10118000000C11F4882352F0BB0F40F4BF2B11F474
:1011900060FF04C06F5F7F4F8F4F9F4F089557FDD3
:1011A0009058440F551F59F05F3F71F04795880FD5
:1011B00097FB991F61F09F3F79F08795089512166C
:1011C00013061406551FF2CF4695F1DF08C0161618
:1011D00017061806991FF1CF8695710561050894C9
:1011E0000895E894BB2766277727CB0197F90895E0
:1011F0000E940B090C94BE080E94B00838F00E94AF
:10120000B70820F0952311F00C94A7080C94AD08B2
:1012100011240C94F2080E94CF0870F3959FC1F33B
:10122000950F50E0551F629FF001729FBB27F00D94
:10123000B11D639FAA27F00DB11DAA1F649F6627E9
:10124000B00DA11D661F829F2227B00DA11D621F38
:10125000739FB00DA11D621F839FA00D611D221FF2
:10126000749F3327A00D611D231F849F600D211DD6
:10127000822F762F6A2F11249F5750409AF0F1F059
:1012800088234AF0EE0FFF1FBB1F661F771F881FC2
:1012900091505040A9F79E3F510580F00C94A7084B
:1012A0000C94F2085F3FE4F3983ED4F3869577956B
:1012B0006795B795F795E7959F5FC1F7FE2B880F68
:1012C000911D9695879597F90895A3E1B0E0EBE617
:1012D000F9E00C94E10C6C014B012A01FC0117822E
:1012E0001682838181FF43C3AE014F5F5F4F3A0196
:1012F000F6019381F40193FD859193FF81914F0154
:10130000882309F430C3853239F493FD859193FF26
:1013100081914F01853239F4B60190E00E94060EAA
:1013200052012501E5CF10E0F12C20E02032A0F49D
:101330008B3269F030F4803259F0833269F42061E5
:101340002CC08D3239F0803339F4216026C0226000
:10135000246023C0286021C027FD27C030ED380F4E
:101360003A3078F426FF06C0FAE01F9F300D1124B2
:10137000132F13C04AE0F49E300D1124F32E206287
:101380000CC08E3221F426FDEEC2206406C08C36DD
:1013900011F4206802C0883641F4F40193FD859170
:1013A00093FF81914F018111C1CF9BEB980F933037
:1013B00018F42061805E06C09BE9980F933008F016
:1013C00071C12F7E26FF16E02F73322E853619F459
:1013D0002064322E08C0863621F4F22FF0683F2EAA
:1013E00002C01111115037FE07C01C3350F4EE2417
:1013F000E394E10E27E00BC0183038F027E017E047
:1014000005C027E04CE3E42E02C0212FE12C52015D
:1014100044E0A40EB11CF20160817181828193814C
:101420000E2DA3010E94180D2C01098100FF02C09E
:1014300003FF07C031FC08C032FE09C030E2232E92
:1014400007C02DE2222E04C09BE2292E01C0212CD0
:10145000802F8C7019F0211068C2A8C237FE0FC00F
:10146000E40C04FF04C08A81813309F4EA941E1459
:1014700074F5F8E0FE1578F588E0E82E2CC036FC0F
:101480002AC0812F90E0841595059CF02CEF421620
:101490002FEF520674F0432D4068342E0AC0E2E06C
:1014A000F0E0EC0FFD1FE10FF11D8081803319F496
:1014B00011501111F4CF37FE0EC0EE24E394E10E6B
:1014C000812F90E0481659062CF4141904C0EE241C
:1014D000E39401C010E037FE06C01414150434F480
:1014E000C201019605C085E090E002C081E090E075
:1014F00021100196112331F0212F30E02F5F3F4F53
:10150000820F931F2F2D30E08217930714F4F81ADF
:1015100001C0F12C832D897049F4FF2039F0B60108
:1015200080E290E00E94060EFA94F7CF222029F084
:10153000B601822D90E00E94060E33FC09C0FF2008
:1015400039F0B60180E390E00E94060EFA94F7CFDE
:1015500037FE5AC0942D852D57FE02C090E080E0E2
:10156000292E382E20E030E0A2014E1951095D8766
:101570004C87A201421953095F874E87612F70E0A3
:1015800044275527461B570B598B488B5FEF251671
:10159000350649F4B6018EE290E02A8B3B8B0E941F
:1015A000060E3B892A89421453046CF04C855D85F4
:1015B0004215530544F4EE85FF85E20FF31FE60D57
:1015C000F71D818101C080E351E0251A31082F5FAA
:1015D0003F4F48895989241635064CF0B60190E0F2
:1015E0002A8B3B8B0E94060E2A893B89CFCF24147D
:1015F000350439F49A81963318F4953311F404FFC5
:1016000081E3B60190E04BC08A81813309F00F7EFF
:10161000B60190E00E94060E111105C034FC18C0FE
:1016200085E690E017C0B6018EE290E00E94060EBB
:1016300082E0EE24E394E80EF301E80FF11D8081CF
:10164000B60190E00E94060E11508E2D91F7E6CF64
:1016500085E490E0B6010E94060E57FC05C04114D7
:10166000510439F404FF05C05194419451088DE2AE
:1016700001C08BE2B60190E00E94060E80E39AE082
:10168000491651042CF08F5F5AE0451A5108F7CFE4
:10169000B60190E00E94060EB601C201C0960E94FB
:1016A000060E57C1833631F0833779F0833509F060
:1016B00058C021C05201E2E0AE0EB11CF20180819F
:1016C000898301E010E0230114C05201F2E0AF0E63
:1016D000B11CF2014080518026FF03C0612F70E0F1
:1016E00002C06FEF7FEFC2012A8B0E94FB0D8C01BD
:1016F0002A892F7715C05201F2E0AF0EB11CF2011A
:101700004080518026FF03C0612F70E002C06FEF60
:101710007FEFC2012A8B0E94F00D8C012A8920687C
:10172000322E23FD1AC08F2D90E008171907A8F458
:10173000B60180E290E00E94060EFA94F4CFF20126
:1017400037FC859137FE81912F01B60190E00E9410
:10175000060EF110FA94015011090115110579F7DF
:10176000F8C0843611F0893659F5520127FF09C0B7
:10177000F4E0AF0EB11CF20160817181828193812E
:101780000AC0F2E0AF0EB11CF20160817181072E38
:10179000000C880B990B2F76322E97FF09C090957D
:1017A0008095709561957F4F8F4F9F4F2068322EA7
:1017B0002AE030E0A3010E946E0EE82EE6183FC03A
:1017C000022F853721F40F7E2AE030E01DC0097F0B
:1017D0008F3691F018F4883559F0C5C0803719F06C
:1017E000883711F0C0C0006104FF09C0046007C061
:1017F00024FF08C0066006C028E030E005C020E1F4
:1018000030E002C020E132E0520107FF09C0F4E0FD
:10181000AF0EB11CF201608171818281938108C099
:10182000F2E0AF0EB11CF2016081718180E090E0C6
:10183000A3010E946E0EE82EE6180F77302E36FEBA
:101840000BC0332D3E7FE11650F434FE0AC032FC4B
:1018500008C0332D3E7E05C00E2D332D03C00E2D46
:1018600001C0012F34FF0CC0FE01EE0DF11D80817F
:10187000803311F4397E08C032FF05C00E5F04C00A
:10188000832F867809F00F5F33FD13C030FF06C049
:101890001E2D0F1518F41F0D101B0F2D0F1568F4BA
:1018A000B60180E290E03B8B0E94060E0F5F3B8901
:1018B000F5CF0F1510F4F01A01C0F12C34FF12C04F
:1018C000B60180E390E03B8B0E94060E3B8932FF1D
:1018D00017C031FD03C088E790E002C088E590E0C2
:1018E000B6010CC0832F867859F031FF02C08BE21D
:1018F00001C080E237FD8DE2B60190E00E94060E45
:10190000E11638F4B60180E390E00E94060E115013
:10191000F7CFEA94F301EE0DF11D8081B60190E05E
:101920000E94060EE110F5CF14C0F4E0FF1558F543
:1019300084E0F81A33FE1EC0211026C003FF2AC01F
:1019400008E610E0F32DF0713F2EF801849181112B
:1019500024C0FF2009F4E5CCB60180E290E00E94AB
:10196000060EFA94F6CFF6018681978126C08FEF96
:101970009FEF23C0B60180E290E00E94060EFA9429
:10198000F110F8CFD9CFF12CB601822D90E00E9452
:10199000060ED4CF0CE610E0D5CF31108052B60140
:1019A00090E00E94060E0F5F1F4FCFCF23E02F1550
:1019B00010F483E0BECFF12CC1CF6396E2E10C942A
:1019C000FD0C2F923F924F925F926F927F928F9277
:1019D0009F92AF92BF92CF92DF92EF92FF920F93BE
:1019E0001F93CF93DF93CDB7DEB7CA1BDB0B0FB6C8
:1019F000F894DEBF0FBECDBF09942A883988488885
:101A00005F846E847D848C849B84AA84B984C8841A
:101A1000DF80EE80FD800C811B81AA81B981CE0F11
:101A2000D11D0FB6F894DEBF0FBECDBFED010895F6
:101A3000283008F027E03327DA01990F311D87FDA0
:101A4000916000966105710539F432602E5F3D9317
:101A500030E32A95E1F708959F3F30F08038710513
:101A6000610509F03C5F3C5F3D93913008F0806870
:101A7000911DDF93CF931F930F93FF92EF92192F36
:101A8000987F9695E92F96959695E90FFF27E6534F
:101A9000FF4F99273327EE24FF24A701E701059084
:101AA0000894079428F4360FE71EF81E491F511DAD
:101AB000660F771F881F991F0694A1F7059007945A
:101AC00028F4E70EF81E491F561FC11D770F881F07
:101AD000991F661F0694A1F70590079428F4F80E45
:101AE000491F561FC71FD11D880F991F661F771FDB
:101AF0000694A1F70590079420F4490F561FC71FBD
:101B0000D81F990F661F771F881F0694A9F7849125
:101B10001095177041F0D695C79557954795F7944E
:101B2000E7941A95C1F7E0E7F0E0689415901591F5
:101B300035916591959105907FE27395E118F10AD1
:101B4000430B560BC90BD009C0F7E10CF11E431F24
:101B5000561FC91FD01D7EF4703311F48A95E6CF4D
:101B6000E894015030F0080F0AF40027021708F437
:101B7000202F2395022F7A3328F079E37D932A953D
:101B8000E9F710C07D932A9589F606949795679595
:101B9000379517951794E118F10A430B560BC90BAB
:101BA000D00998F023957E9173957A3308F070E30D
:101BB0007C932013B8F77E9170617D9330F083950C
:101BC00071E37D9370E32A95E1F71124EF90FF9084
:101BD0000F911F91CF91DF91992787FD90950895DF
:101BE000FC010590615070400110D8F780959095E8
:101BF0008E0F9F1F0895FC016150704001900110ED
:101C0000D8F7809590958E0F9F1F08950F931F937F
:101C1000CF93DF93FB01238121FD03C08FEF9FEF63
:101C200028C022FF16C04681578124813581421782
:101C3000530744F4A081B1819D012F5F3F4F318351
:101C400020838C93268137812F5F3F4F37832683F4
:101C500010C0EB01092F182F0084F185E02D0995A4
:101C6000892BE1F68E819F8101969F838E83812F40
:101C7000902FDF91CF911F910F910895AEE0B0E0CA
:101C8000E4E4FEE00C94EF0C0D891E898F89988D99
:101C900026E02C831A83098397FF02C080E090E836
:101CA00001979E838D83AE01455E5F4F698D7A8D6E
:101CB000CE0101960E9465094D815E8157FD0AC0E3
:101CC0002F813885421753070CF49A01F801E20F6F
:101CD000F31F10822E96E4E00C940B0DFA01AA2754
:101CE000283051F1203181F1E8946F936E7F6E5F5F
:101CF0007F4F8F4F9F4FAF4FB1E03ED0B4E03CD00D
:101D0000670F781F891F9A1FA11D680F791F8A1FEF
:101D1000911DA11D6A0F711D811D911DA11D20D056
:101D200009F468943F912AE0269F11243019305D10
:101D30003193DEF6CF010895462F4770405D419301
:101D4000B3E00FD0C9F7F6CF462F4F70405D4A334E
:101D500018F0495D31FD4052419302D0A9F7EACF16
:101D6000B4E0A6959795879577956795BA95C9F745
:101D700000976105710508959B01AC010A2E069438
:101D80005795479537952795BA95C9F7620F731FF1
:0C1D9000841F951FA01D0895F894FFCF3C
:101D9C002A48432A2A4A432A2A4B432A002A4858CB
:101DAC00256C755925662C58256C755925662C584B
:101DBC00256C755925662A0A002A4A58256C7559CE
:101DCC0025662C58256C755925662C58256C75592B
:101DDC0025662A0A002A4B58256C755925662C58FD
:101DEC00256C755925662C58256C755925662A0A5B
:021DFC000000E5
:00000001FF
