S014000053656E736F725F426F6172642E737265634F
S11300000C9434000C9451000C9451000C94510045
S11300100C9451000C9451000C9451000C94510018
S11300200C9451000C942F010C9451000C94510029
S11300300C9451000C9451000C9451000C945100F8
S11300400C9451000C9451000C9451000C945100E8
S11300500C9451000C9451000C9451000C945100D8
S11300600C9451000C94510011241FBECFEFD8E022
S1130070DEBFCDBF11E0A0E0B1E0ECEDF7E002C0DF
S113008005900D92A031B107D9F721E0A0E1B1E0CC
S113009001C01D92A431B207E1F70E9454010C94EF
S11300A0EC030C9400008AB1806E8AB98BB1806C29
S11300B08BB90895613019F138F0623009F46BC0DE
S11300C0643009F483C008954BB121E030E0B901F4
S11300D002C0660F771F8A95E2F7CB01962F9095A1
S11300E094239BB97FEF21EE34E0715020403040DF
S11300F0E1F700C000009BB1892B8BB908954BB187
S113010021E030E0B90102C0660F771F8A95E2F75B
S1130110CB01262F2095922F94239BB97FEF31EEAC
S113012044E0715030404040E1F700C000009BB112
S1130130982B9BB95FEF61EE74E0515060407040C2
S1130140E1F700C000009BB192239BB93FEF41EE61
S113015054E0315040405040E1F700C000009BB1F2
S1130160982B9BB96FEF71EE34E0615070403040D2
S1130170E1F700C000009BB192239BB94FEF51EE11
S113018064E0415050406040E1F700C000009BB182
S1130190892B8BB908954BB121E030E0B90102C03D
S11301A0660F771F8A95E2F7CB01962F90959423DB
S11301B09BB97FEF29E638E1715020403040E1F7E8
S11301C000C000009BB1892B8BB908955F984FEF55
S11301D051EE64E0415050406040E1F700C000003F
S11301E05F9A8FE19EE40197F1F700C000005E98EA
S11301F09FEF21EE34E0915020403040E1F700C001
S113020000005E9A5F984FEF51EE64E04150504019
S11302106040E1F700C000005F9A8FE19EE401971F
S1130220F1F700C000005E989FEF21EE34E091509A
S113023020403040E1F700C000005E9A0895E6EBEC
S1130240F0E080818083E0E7F0E0108280818160CB
S113025080831092B00083E08093B10008951F92D0
S11302600F920FB60F9211248F939F93AF93BF9366
S11302708091100190911101A0911201B09113018C
S11302800196A11DB11D8093100190931101A093BB
S11302901201B0931301BF91AF919F918F910F9071
S11302A00FBE0F901F901895CF93DF93CDB7DEB795
S11302B060970FB6F894DEBF0FBECDBF8FE19EE40A
S11302C00197F1F700C000000E9453000E941C0334
S11302D00E94A7030E941F018FE19EE40197F1F79A
S11302E000C0000048E068E082E00E9415027894B3
S11302F061E086E00E945A00809110019091110102
S1130300A0911201B091130181329E44A105B1055F
S113031040F01092100110921101109212011092EB
S1130320130162E0CE0101960E94C00280E091E0D8
S11303300E9498038091100190911101A0911201E3
S1130340B09113014AE0BE01695F7F4F0E94B70379
S1130350CE0107960E94980384E091E00E949803DE
S11303604AE0BE01695F7F4F89819A810E94B70389
S1130370CE0107960E94980386E091E00E949803BC
S113038088E091E00E9498038091100190911101FE
S1130390A0911201B09113014AE0BE01695F7F4F41
S11303A00E94B703CE0107960E94980384E091E06F
S11303B00E9498034AE0BE01695F7F4F8B819C8154
S11303C00E94B703CE0107960E94980386E091E04D
S11303D00E9498038CE091E00E94980380911001A0
S11303E090911101A0911201B09113014AE0BE0154
S11303F0695F7F4F0E94B703CE0107960E9498035E
S113040084E091E00E9498034AE0BE01695F7F4F57
S11304108D819E810E94B703CE0107960E949803A6
S113042086E091E00E94980367CFEF92FF920F93CA
S11304301F93CF93DF9300D000D000D0CDB7DEB7A9
S1130440182FF62EE42E80E889839E012F5F3F4FFC
S113045041E06BE6812F0E942C0301E009839E0199
S11304602F5F3F4F41E06BE6812F0E942C031982DE
S11304709E012F5F3F4F41E06CE6812F0E942C03C9
S113048009839E012F5F3F4F41E06AE1812F0E9463
S11304902C0309839E012F5F3F4F41E06AE6812FC1
S11304A00E942C03E9829E012F5F3F4F41E06BE1E4
S11304B0812F0E942C03F9829E012F5F3F4F41E060
S11304C06CE1812F0E942C0389E089839E012F5FB8
S11304D03F4F41E06DE1812F0E942C0380E389832B
S11304E09E012F5F3F4F41E067E3812F0E942C0361
S11304F080E289839E012F5F3F4F41E06AE6812FAE
S11305000E942C038DE089839E012F5F3F4F41E0C1
S113051064E2812F0E942C0388E189839E012F5F6E
S11305203F4F41E065E2812F0E942C038BE08983D9
S11305309E012F5F3F4F41E066E2812F0E942C0312
S113054009839E012F5F3F4F41E063E6812F0E94A4
S11305502C0381E889839E012F5F3F4F41E067E2CE
S1130560812F0E942C0326960FB6F894DEBF0FBE8F
S1130570CDBFDF91CF911F910F91FF90EF90089520
S11305800F931F93CF93DF9300D000D000D0CDB74B
S1130590DEB78C01862F9E012F5F3F4F46E06BE351
S11305A00E945B03898190E0982F88272A81822BFF
S11305B0F801918380832B8130E0322F22278C81B4
S11305C0282B338322832D8130E0322F22278E8102
S11305D0282B3583248326960FB6F894DEBF0FBEEE
S11305E0CDBFDF91CF911F910F910895823049F0D3
S11305F018F4882361F00895863039F0873019F0B3
S113060008952A9808952F9808952E98089540984B
S11306100895823049F018F4882361F008958630F3
S113062039F0873019F008952A9A08952F9A089579
S11306302E9A0895409A089584B18E6A84B982E00E
S11306400E94090387E00E940903389A409A1CBC5F
S113065081E58CBD1DBC0895FF920F931F93CF932A
S1130660DF93D82FF62EC42F89010E94F602FEBC18
S11306700DB407FEFDCFCC2399F0F801C1504C2FE7
S113068050E04F5F5F4F9801240F351F4FEF91915A
S11306909EBD4EBD0DB407FEFDCFE217F307B9F7BB
S11306A08D2F0E94090380E090E0DF91CF911F918C
S11306B00F91FF900895FF920F931F93CF93DF93B1
S11306C0082F162FF42EE9010E94F60210681EBDB1
S11306D00DB407FEFDCF8FEF8EBD0DB407FEFDCF29
S11306E0FF2071F0FE019E012F0D311D4FEF9EB5CD
S11306F091934EBD0DB407FEFDCFE217F307B9F792
S1130700802F0E94090380E090E0DF91CF911F9138
S11307100F91FF900895E0ECF0E0908195FFFDCFFC
S11307208093C600E0ECF0E0808185FFFDCF089562
S1130730CF93DF93EC018881882331F021960E94C6
S11307408B0389918111FBCFDF91CF910895E1EC67
S1130750F0E0808188618083E2ECF0E08081866053
S113076080831092C5008CE08093C4000895BB2759
S11307704A3031F4992322F4BDE2909581959F4F3C
S11307800C94C303BB27FB015527AA27880F991F85
S1130790AA1FA41710F0A41B83955051B9F7A05DAC
S11307A0AA3308F0A95DA193009779F7B111B19329
S11307B01192CB010C94DC03DC01FC01672F7191D5
S11307C07723E1F7329704C07C916D937083629133
S10F07D0AE17BF07C8F30895F894FFCFDC
S11307DC2A48580059002A002A4A58002A4B580023
S9030000FC
