S014000053656E736F725F426F6172642E737265634F
S11300000C94B5000C94D2000C94D2000C94D20041
S11300100C94D2000C94D2000C94D2000C94D20014
S11300200C94D2000C94B0010C94D2000C94D20025
S11300300C94D2000C94D2000C94D2000C94D200F4
S11300400C94D2000C94D2000C94D2000C94D200E4
S11300500C94D2000C94D2000C94D2000C94D200D4
S11300600C94D2000C94D2006E616E00696E66002E
S113007000407A10F35A00A0724E18090010A5D45B
S1130080E80000E87648170000E40B54020000CAB8
S11300909A3B000000E1F5050000809698000000FE
S11300A040420F000000A08601000000102700005D
S11300B00000E803000000006400000000000A00E3
S11300C0000000000100000000002C76D888DC67E6
S11300D04F0823DFC1DFAE59E1B1B796E5E3E4533E
S11300E0C63AE651997696E8E6C28426EB898C9B5B
S11300F062ED407C6FFCEFBC9C9F40F2BAA56FA5FB
S1130100F490055A2AF75C936B6CF9676DC11BFC7C
S1130110E0E40D47FEF520E6B500D0ED902E030097
S1130120943577050080841E080000204E0A0000E4
S113013000C80C333333330F986E12831141EF8DA3
S11301402114893BE65516CFFEE6DB18D1844B38E3
S11301501BF77C1D901DA4BBE424203284725E2214
S11301608100C9F124ECA1E53D2711241FBECFEF86
S1130170D8E0DEBFCDBF11E0A0E0B1E0ECEBF4E2EB
S113018002C005900D92A238B107D9F721E0A2E888
S1130190B1E001C01D92AC3CB207E1F70E94D50169
S11301A00C945C120C9400008AB1806E8AB98BB1F5
S11301B0806C8BB90895613019F138F0623009F41C
S11301C06BC0643009F483C008954BB121E030E082
S11301D0B90102C0660F771F8A95E2F7CB01962F0B
S11301E0909594239BB97FEF21EE34E07150204029
S11301F03040E1F700C000009BB1892B8BB9089512
S11302004BB121E030E0B90102C0660F771F8A9537
S1130210E2F7CB01262F2095922F94239BB97FEFF1
S113022031EE44E0715030404040E1F700C000003E
S11302309BB1982B9BB95FEF61EE74E05150604025
S11302407040E1F700C000009BB192239BB93FEFDF
S113025041EE54E0315040405040E1F700C000000E
S11302609BB1982B9BB96FEF71EE34E061507040F5
S11302703040E1F700C000009BB192239BB94FEFDF
S113028051EE64E0415050406040E1F700C000008E
S11302909BB1892B8BB908954BB121E030E0B901B2
S11302A002C0660F771F8A95E2F7CB01962F9095CF
S11302B094239BB97FEF29E638E171502040304008
S11302C0E1F700C000009BB1892B8BB908955F98BA
S11302D04FEF51EE64E0415050406040E1F700C000
S11302E000005F9A8FE19EE40197F1F700C00000DF
S11302F05E989FEF21EE34E0915020403040E1F7CA
S113030000C000005E9A5F984FEF51EE64E04150E8
S113031050406040E1F700C000005F9A8FE19EE426
S11303200197F1F700C000005E989FEF21EE34E0E2
S1130330915020403040E1F700C000005E9A0895DB
S1130340E6EBF0E080818083E0E7F0E010828081DA
S1130350816080831092B00083E08093B10008959F
S11303601F920F920FB60F9211248F939F93AF9306
S1130370BF938091820190918301A0918401B091F7
S113038085010196A11DB11D809382019093830183
S1130390A0938401B0938501BF91AF919F918F91F8
S11303A00F900FBE0F901F9018958FE19EE4019758
S11303B0F1F700C0000078940E94750A9AE19A95BA
S11303C0F1F700C00E94D4000E94F70A0E94A00125
S11303D08FE19EE40197F1F700C0000041E050E096
S11303E061E070E082E00E94F2048FE19EE40197F4
S11303F0F1F700C0000041E050E061E070E087E008
S11304000E94F2048FE19EE40197F1F700C000001E
S113041041E050E061E070E086E00E94F20461E0B7
S113042086E00E94DB008FE19EE40197F1F700C0B3
S1130430000068E170E082E00E9487048FE19EE49E
S11304400197F1F700C0000068E170E082E00E94CB
S11304501C048FE19EE40197F1F700C0000068E1FD
S113046070E087E00E9487048FE19EE40197F1F732
S113047000C0000068E170E087E00E941C048FE186
S11304809EE40197F1F700C0000068E170E086E0A7
S11304900E9487048FE19EE40197F1F700C00000F9
S11304A068E170E086E00E941C048FE19EE40197FD
S11304B0F1F700C0000080E091E00E94E80A62E0E9
S11304C086E00E94DB0082E00E9494028FE19EE4B9
S11304D00197F1F700C0000087E00E9494028FE1C9
S11304E09EE40197F1F700C0000086E00E949402A8
S11304F08FE19EE40197F1F700C000009FEF23ED28
S113050080E3915020408040E1F700C000000E9449
S11305100C0B833511F40E9412070E940C0B8035DA
S1130520B1F70E943908F3CFCF92DF92EF92FF9296
S11305300F931F93CF93DF9300D01F92CDB7DEB7F5
S1130540182F4CE861E30E94880A8FE19EE401972A
S1130550F1F700C0000040E162E3812F0E94880AA5
S1130560EFE1FEE43197F1F700C0000043E864E3F3
S1130570812F0E94880A87EC90E00197F1F700C070
S113058000009E012F5F3F4F43E069E4812F0E94EA
S1130590A90AFE0131967F010CEB11E00F2EF8EC55
S11305A0CF2EF1E0DF2EF02DF70161917F0170E095
S11305B080E090E00E94FA0B20E030E040E053E459
S11305C00E941B0B20E030E040E85BE30E94880CB3
S11305D020E030E040E85FE30E941C0B2AE939E99F
S11305E049E15EE30E94880CF80161937193819361
S11305F091938F01EC15FD05B9F60F900F900F90B4
S1130600DF91CF911F910F91FF90EF90DF90CF90EA
S113061008958F929F92AF92BF92CF92DF92EF9202
S1130620FF920F931F93CF93DF93CDB7DEB76597F8
S11306300FB6F894DEBF0FBECDBF182F4CE865E2AD
S11306400E94880A8FE697E10197F1F700C0000045
S113065043E066E2812F0E94880AEFE6F7E13197D2
S1130660F1F700C0000047E867E2812F0E94880A82
S11306708FE99FE00197F1F700C000009E012F5F12
S11306803F4F45E16BE3812F0E94A90A8090C80186
S11306909090C901A090CA01B090CB018E010E5F69
S11306A01F4F0F2EF6E8EF2EF1E0FF2EF02D0F2E48
S11306B0F2E9CF2EF1E0DF2EF02DF80131976081C1
S11306C070E0762F6627F8018081682B072E000CD6
S11306D0880B990B0E94FC0BA50194010E94880BC6
S11306E0F70161937193819391937F010E5F1F4F83
S11306F0EC15FD0511F768858F8170E0782B072EC6
S1130700000C880B990B0E94FC0B20E030E048EAB7
S113071051E40E941B0B2CE53FEE46EA53E40E9491
S1130720880B20E030E048EA51E40E941C0B6093FF
S1130730960170939701809398019093990180900A
S1130740B8019090B901A090BA01B090BB018E019C
S1130750065F1F4F0F2EFAE9EF2EF1E0FF2EF02D6A
S11307600F2EF6EACF2EF1E0DF2EF02DF8013197AF
S1130770608170E0762F6627F8018081682B072E50
S1130780000C880B990B0E94FC0BA50194010E949C
S1130790880BF70161937193819391937F010E5FAD
S11307A01F4FEC15FD0511F70CEA11E0688970E0A4
S11307B0762F66278F85682B072E000C880B990BE4
S11307C00E94FC0BF80160837183828393836A899E
S11307D070E0762F66278989682B072E000C880B1A
S11307E0990B0E94FC0BF8016483758386839783BD
S11307F06C8970E0762F66278B89682B072E000C96
S1130800880B990B0E94FC0BF80160877187828723
S1130810938765960FB6F894DEBF0FBECDBFDF9108
S1130820CF911F910F91FF90EF90DF90CF90BF90E9
S1130830AF909F908F9008951F93CF93DF93182FBD
S1130840EB01462F6CE10E94880AC830D105B9F04B
S11308501CF4CD2B39F039C0C031D105E9F06897CB
S113086041F133C080E090E0A0E8B6E48093C80191
S11308709093C901A093CA01B093CB0126C080E034
S113088090E0A0E0B6E48093C8019093C901A093DE
S1130890CA01B093CB0119C080E090E0A0E8B5E4B0
S11308A08093C8019093C901A093CA01B093CB016E
S11308B00CC080E090E0A0E0B5E48093C801909380
S11308C0C901A093CA01B093CB0140E06CE9812F28
S11308D00E94880A8830910571F018F4009741F05D
S11308E012C08031910551F08831910551F00BC04F
S11308F082E090E008C084E090E005C088E090E0E9
S113090002C080E190E0DF91CF911F9108951F9381
S1130910CF93DF93182FEB01462F6BE10E94880AD7
S1130920C830D105B9F01CF4CD2B39F039C0C03131
S1130930D105E9F0689741F133C080E090E0A3E08D
S1130940B3E48093B8019093B901A093BA01B09332
S1130950BB0126C080E090E0A3E8B2E48093B80134
S11309609093B901A093BA01B093BB0119C083E37A
S113097093E3A3E0B2E48093B8019093B901A09308
S1130980BA01B093BB010CC083E393E3A3E8B1E4E1
S11309908093B8019093B901A093BA01B093BB01BD
S11309A040E06BE9812F0E94880A8830910571F03C
S11309B018F4009741F012C08031910551F088314C
S11309C0910551F00BC08AEF90E008C084EF91E0EC
S11309D005C088EE93E002C080ED97E0DF91CF91EF
S11309E01F910895CF93DF93C82FD42F40E86BE66F
S11309F00E94880A8FE19EE40197F1F700C000008D
S1130A0041E06BE68C2F0E94880A8FE19EE40197F7
S1130A10F1F700C0000040E06CE68C2F0E94880AC9
S1130A208FE19EE40197F1F700C000004D2F6AE1C9
S1130A308C2F0E94880A8FE19EE40197F1F700C091
S1130A40000048E16BE18C2F0E94880A8FE19EE44C
S1130A500197F1F700C0000048E06CE18C2F0E9480
S1130A60880A8FE19EE40197F1F700C0000049E095
S1130A706DE18C2F0E94880A8FE19EE40197F1F7C3
S1130A8000C0000040E367E38C2F0E94880A8FE1D6
S1130A909EE40197F1F700C0000040E26AE68C2F63
S1130AA00E94880A8FE19EE40197F1F700C00000DC
S1130AB04DE064E28C2F0E94880A8FE19EE4019746
S1130AC0F1F700C000004CE065E28C2F0E94880A18
S1130AD04BE066E28C2F0E94880A41E063E68C2F8B
S1130AE00E94880A41E867E28C2F0E94880A8FE1FD
S1130AF09EE40197F1F700C000004AE066E28C2F03
S1130B000E94880A42E163E68C2F0E94880A41E829
S1130B1067E28C2F0E94880A62E070E08C2F0E94AA
S1130B201C046AEF70E08C2F0E948704DF91CF9140
S1130B300895BF92CF92DF92EF92FF920F931F938B
S1130B40CF93DF93CDB7DEB7C058D1090FB6F89471
S1130B50DEBF0FBECDBFC457DF4FF880CC58D040A6
S1130B60C357DF4FE880CD58D040C257DF4FD880FD
S1130B70CE58D040C157DF4FC880CF58D04068947A
S1130B80BB24B7F88E010F5F1F4FF8018B2D119214
S1130B908A95E9F7C556DF4F8881CB59D0408F93AA
S1130BA0C656DF4F8881CA59D0408F93C756DF4F4E
S1130BB08881C959D0408F93C856DF4F8881C8595E
S1130BC0D0408F93CF92DF92EF92FF92C956DF4FBE
S1130BD08881C759D0408F93CA56DF4F8881C65940
S1130BE0D0408F93CB56DF4F8881C559D0408F9327
S1130BF0CC56DF4F8881C459D0408F93CF92DF9277
S1130C00EF92FF92CD56DF4F8881C359D0408F9326
S1130C10CE56DF4F8881C259D0408F93CF56DF4FD5
S1130C208881C159D0408F93C057DF4F8881C05904
S1130C30D0408F93CF92DF92EF92FF928DE091E0BC
S1130C409F938F931F92BF921F930F930E94CE1175
S1130C50C8010E94E80AF8018B2D11928A95E9F7E0
S1130C60C955DF4F8881C75AD0408F93CA55DF4F8B
S1130C708881C65AD0408F93CB55DF4F8881C55A9F
S1130C80D0408F93CC55DF4F8881C45AD0408F9386
S1130C90CF92DF92EF92FF92CD55DF4F8881C35AF6
S1130CA0D0408F93CE55DF4F8881C25AD0408F9366
S1130CB0CF55DF4F8881C15AD0408F93C056DF4F44
S1130CC08881C05AD0408F93CF92DF92EF92FF92E7
S1130CD0C156DF4F8881CF59D0408F93C256DF4F22
S1130CE08881CE59D0408F93C356DF4F8881CD5928
S1130CF0D0408F93C456DF4F8881CC59D0408F9316
S1130D00CF92DF92EF92FF9289E291E09F938F93CB
S1130D101F92BF921F930F930E94CE110FB6F894A7
S1130D20DEBF0FBECDBFC8010E94E80AF8018B2DBB
S1130D3011928A95E9F7CD54DF4F8881C35BD04087
S1130D408F93CE54DF4F8881C25BD0408F93CF54B2
S1130D50DF4F8881C15BD0408F93C055DF4F8881BE
S1130D60C05BD0408F93CF92DF92EF92FF92C15538
S1130D70DF4F8881CF5AD0408F93C255DF4F88818F
S1130D80CE5AD0408F93C355DF4F8881CD5AD0407F
S1130D908F93C455DF4F8881CC5AD0408F93CF9224
S1130DA0DF92EF92FF92C555DF4F8881CB5AD04036
S1130DB08F93C655DF4F8881CA5AD0408F93C75549
S1130DC0DF4F8881C95AD0408F93C855DF4F88813F
S1130DD0C85AD0408F93CF92DF92EF92FF9285E46E
S1130DE091E09F938F931F92BF921F930F930E9442
S1130DF0CE11C8010E94E80A0FB6F894DEBF0FBEF8
S1130E00CDBFC058DF4F0FB6F894DEBF0FBECDBFC5
S1130E10DF91CF911F910F91FF90EF90DF90CF90D2
S1130E20BF9008959F92AF92BF92CF92DF92EF92BC
S1130E30FF920F931F93CF93DF93CDB7DEB7C85ABA
S1130E40D1090FB6F894DEBF0FBECDBF80E091E0AC
S1130E500E94E80A81E691E00E94E80A1092820169
S1130E601092830110928401109285018091820175
S1130E7090918301A0918401B091850180329E44B8
S1130E80A105B10508F0C3C0A12CB12C0F2EF6E8C2
S1130E90CF2EF1E0DF2EF02D0F2EFAE9EF2EF1E048
S1130EA0FF2EF02D0CEA11E00F2EF8E29F2EF02D0C
S1130EB086E00E9409038091820190918301A091B0
S1130EC08401B0918501CF57DF4F88839983AA832A
S1130ED0BB83C158D040F60180819181A281B38146
S1130EE0CB57DF4F88839983AA83BB83C558D040EF
S1130EF084819581A681B781C757DF4F8883998301
S1130F00AA83BB83C958D04080859185A285B385C7
S1130F10C357DF4F88839983AA83BB83CD58D040BE
S1130F20F70180819181A281B381CF56DF4F8883FD
S1130F309983AA83BB83C159D04084819581A681BA
S1130F40B781CB56DF4F88839983AA83BB83C55966
S1130F50D04080859185A285B385C756DF4F8883AD
S1130F609983AA83BB83C959D040F80180819181B8
S1130F70A281B381C356DF4F88839983AA83BB833D
S1130F80CD59D04084819581A681B781CF55DF4F5B
S1130F9088839983AA83BB83C15AD0408085918575
S1130FA0A285B385CB55DF4F88839983AA83BB83FE
S1130FB0C55AD040FFEFAF1ABF0A2DB73EB728522B
S1130FC031090FB6F8943EBF0FBE2DBFADB7BEB703
S1130FD01196FE01EF57FF4F892D01900D928A95CE
S1130FE0E1F70E9499058091820190918301A0917B
S1130FF08401B09185010FB6F894DEBF0FBECDBF5A
S113100080329E44A105B10508F452CF02C0A12C40
S1131010B12C80E88E010F5F1F4FF801282F119229
S11310202A95E9F7BF92AF9222E731E03F932F93DD
S11310301F928F931F930F930E94CE11C8010E9499
S1131040E80A0FB6F894DEBF0FBECDBFC855DF4F18
S11310500FB6F894DEBF0FBECDBFDF91CF911F91C5
S11310600F91FF90EF90DF90CF90BF90AF909F9043
S113107008952F923F924F925F926F927F928F9238
S11310809F92AF92BF92CF92DF92EF92FF920F9313
S11310901F93CF93DF93CDB7DEB7C85CD1090FB6EA
S11310A0F894DEBF0FBECDBF80E091E00E94E80A55
S11310B081E691E00E94E80A109282011092830175
S11310C01092840110928501809182019091830194
S11310D0A0918401B091850180329E44A105B1059F
S11310E008F0A4C1212C312C06E811E082E00E9412
S11310F009038091820190918301A0918401B091B0
S11311008501C355DF4F88839983AA83BB83CD5A56
S1131110D040D8014D905D906D907C9013971496BB
S11311208D909D90AD90BC9017971896CD90DD90C2
S1131130ED90FC901B97CB57DF4F488259826A820F
S11311407B82C558D040C757DF4F88829982AA82D4
S1131150BB82C958D040C357DF4FC882D982EA82C4
S1131160FB82CD58D040121413040CF0C5C0BC014E
S1131170C755DF4FE881F981C95AD0406E1B7F0BF8
S1131180072E000C880B990B0E94FC0BC755DF4FF0
S1131190688379838A839B83C95AD0409B01AC01BD
S11311A0C301B2010E94880C2FE632E143E85AE3FE
S11311B00E94880C2B013C019B01AC01CB53DF4FF7
S11311C0688179818A819B81C55CD0400E941C0B17
S11311D0CB53DF4F688379838A839B83C55CD0407C
S11311E0C755DF4F288139814A815B81C95AD04074
S11311F0C501B4010E94880C2FE632E143E85AE3AA
S11312000E94880C4B015C019B01AC01CF53DF4F62
S1131210688179818A819B81C15CD0400E941C0BCA
S1131220CF53DF4F688379838A839B83C15CD0402B
S1131230C755DF4F288139814A815B81C95AD04023
S1131240C701B6010E94880C2FE632E143E85AE355
S11312500E94880C6B017C019B01AC01C354DF4FDD
S1131260688179818A819B81CD5BD0400E941C0B6F
S1131270C354DF4F688379838A839B83CD5BD040DB
S1131280A3019201C754DF4F688179818A819B81D0
S1131290C95BD0400E941C0BC754DF4F688379831D
S11312A08A839B83C95BD040A5019401CB54DF4F53
S11312B0688179818A819B81C55BD0400E941C0B27
S11312C0CB54DF4F688379838A839B83C55BD0408B
S11312D0A7019601CF54DF4F688179818A819B8170
S11312E0C15BD0400E941C0BCF54DF4F68837983CD
S11312F08A839B83C15BD040FFEF2F1A3F0ACB53F5
S1131300DF4F288139814A815B81C55CD040CF564B
S1131310DF4F288339834A835B83C159D040CF533D
S1131320DF4F88819981AA81BB81C15CD040CB56B3
S1131330DF4F88839983AA83BB83C559D040C354A4
S1131340DF4F288139814A815B81CD5BD040C7560C
S1131350DF4F288339834A835B83C959D040C754FC
S1131360DF4F88819981AA81BB81C95BD040C35674
S1131370DF4F88839983AA83BB83CD59D040CB5454
S1131380DF4F288139814A815B81C55BD040CF55CD
S1131390DF4F288339834A835B83C15AD040CF54BB
S11313A0DF4F88819981AA81BB81C15BD040CB5535
S11313B0DF4F88839983AA83BB83C55AD040ADB7D6
S11313C0BEB798970FB6F894BEBF0FBEADBF1196C7
S11313D0FE01EF57FF4F88E201900D928A95E1F7E5
S11313E00E9499058091820190918301A0918401CA
S11313F0B0918501C355DF4F288139814A815B81D2
S1131400CD5AD040C755DF4F288339834A835B8345
S1131410C95AD0400FB6F894DEBF0FBECDBF80329C
S11314209E44A105B10508F461CE02C0212C312CE3
S113143080E88E010F5F1F4FD801E82F1D92EA95B7
S1131440E9F73F922F9222E731E03F932F931F92C7
S11314508F931F930F930E94CE11C8010E94E80A34
S11314600FB6F894DEBF0FBECDBFC853DF4F0FB623
S1131470F894DEBF0FBECDBFDF91CF911F910F91C6
S1131480FF90EF90DF90CF90BF90AF909F908F90A0
S11314907F906F905F904F903F902F90089582308F
S11314A049F018F4882361F00895863039F08730C4
S11314B019F008952A9808952F9808952E9808955C
S11314C040980895823049F018F4882361F0089513
S11314D0863039F0873019F008952A9A08952F9AA2
S11314E008952E9A0895409A089584B18E6E84B911
S11314F082E00E94620A87E00E94620A86E00E94FB
S1131500620A389A409A1CBC8DE58CBD1DBC0895B6
S11315101F93CF93DF93C82F162FD42F0E944F0A07
S11315201EBD00000DB407FEFDCF8EB5DEBD00006C
S11315300DB407FEFDCFDEB58C2F0E94620A85E84C
S11315408A95F1F700008D2F90E0DF91CF911F91E4
S11315500895EF92FF921F93CF93DF93182FD62F06
S1131560C42F79010E944F0AD068DEBD00000DB47B
S113157007FEFDCF8EB54C2F50E04115510571F09B
S1131580F7019701240F351F1EBC00000DB407FEA0
S1131590FDCF9EB59193E217F307B1F7812F0E9417
S11315A0620A85E88A95F1F70000DF91CF911F91D7
S11315B0FF90EF900895E0ECF0E0908195FFFDCF6F
S11315C08093C600E0ECF0E0808185FFFDCF0895B4
S11315D0CF93DF93EC018881882331F021960E9418
S11315E0DB0A89918111FBCFDF91CF910895E1EC62
S11315F0F0E0808188618083E2ECF0E080818660A5
S11316008083E0ECF0E08081826080831092C500EA
S113161088E08093C40008958AE090E0E0ECF0E074
S113162002C0019731F020812223DCF78091C600AB
S1131630089580E008955058BB27AA270E94330BD1
S11316400C944E0C0E94400C38F00E94470C20F081
S113165039F49F3F19F426F40C943D0C0EF4E095F4
S1131660E7FB0C94370CE92F0E945F0C58F3BA1770
S1131670620773078407950720F079F4A6F50C94A4
S1131680810C0EF4E0950B2EBA2FA02D0B01B9019D
S113169090010C01CA01A0011124FF27591B99F0E4
S11316A0593F50F4503E68F11A16F040A22F232FF0
S11316B0342F4427585FF3CF469537952795A79540
S11316C0F0405395C9F77EF41F16BA0B620B730BE7
S11316D0840BBAF09150A1F0FF0FBB1F661F771F58
S11316E0881FC2F70EC0BA0F621F731F841F48F40D
S11316F0879577956795B795F7959E3F08F0B0CF96
S11317009395880F08F09927EE0F9795879508957C
S11317100E949C0B0C944E0C0E94470C58F00E94A3
S1131720400C40F029F45F3F29F00C94370C511120
S11317300C94820C0C943D0C0E945F0C68F399236A
S1131740B1F3552391F3951B550BBB27AA276217B9
S11317507307840738F09F5F5F4F220F331F441FC6
S1131760AA1FA9F335D00E2E3AF0E0E832D09150FA
S11317705040E695001CCAF72BD0FE2F29D0660FE7
S1131780771F881FBB1F261737074807AB07B0E82A
S113179009F0BB0B802DBF01FF2793585F4F3AF030
S11317A09E3F510578F00C94370C0C94820C5F3FEB
S11317B0E4F3983ED4F3869577956795B795F795B6
S11317C09F5FC9F7880F911D9695879597F908959E
S11317D0E1E0660F771F881FBB1F6217730784073A
S11317E0BA0720F0621B730B840BBA0BEE1F88F749
S11317F0E0950895E89409C097FB3EF49095809590
S1131800709561957F4F8F4F9F4F9923A9F0F92FC2
S113181096E9BB279395F695879577956795B79540
S1131820F111F8CFFAF4BB0F11F460FF1BC06F5F26
S11318307F4F8F4F9F4F16C0882311F096E911C038
S1131840772321F09EE8872F762F05C0662371F059
S113185096E8862F70E060E02AF09A95660F771F6D
S1131860881FDAF7880F9695879597F9089597F961
S11318709F6780E870E060E008959FEF80EC089532
S113188000240A941616170618060906089500245B
S11318900A9412161306140605060895092E0394D5
S11318A0000C11F4882352F0BB0F40F4BF2B11F449
S11318B060FF04C06F5F7F4F8F4F9F4F089557FDA8
S11318C09058440F551F59F05F3F71F04795880FAA
S11318D097FB991F61F09F3F79F087950895121641
S11318E013061406551FF2CF4695F1DF08C01616ED
S11318F017061806991FF1CF86957105610508949E
S11319000895E894BB2766277727CB0197F90895B4
S11319100E949B0C0C944E0C0E94400C38F00E94C8
S1131920470C20F0952311F00C94370C0C943D0CCB
S113193011240C94820C0E945F0C70F3959FC1F3E8
S1131940950F50E0551F629FF001729FBB27F00D69
S1131950B11D639FAA27F00DB11DAA1F649F6627BE
S1131960B00DA11D661F829F2227B00DA11D621F0D
S1131970739FB00DA11D621F839FA00D611D221FC7
S1131980749F3327A00D611D231F849F600D211DAB
S1131990822F762F6A2F11249F5750409AF0F1F02E
S11319A088234AF0EE0FFF1FBB1F661F771F881F97
S11319B091505040A9F79E3F510580F00C94370C8C
S11319C00C94820C5F3FE4F3983ED4F386957795AC
S11319D06795B795F795E7959F5FC1F7FE2B880F3D
S11319E0911D9695879597F90895A3E1B0E0EBEFE3
S11319F0FCE00C9471106C014B012A01FC0117826C
S1131A001682838181FF43C3AE014F5F5F4F3A016A
S1131A10F6019381F40193FD859193FF81914F0128
S1131A20882309F430C3853239F493FD859193FFFB
S1131A3081914F01853239F4B60190E00E949611EC
S1131A4052012501E5CF10E0F12C20E02032A0F472
S1131A508B3269F030F4803259F0833269F42061BA
S1131A602CC08D3239F0803339F4216026C02260D5
S1131A70246023C0286021C027FD27C030ED380F23
S1131A803A3078F426FF06C0FAE01F9F300D112487
S1131A90132F13C04AE0F49E300D1124F32E20625C
S1131AA00CC08E3221F426FDEEC2206406C08C36B2
S1131AB011F4206802C0883641F4F40193FD859145
S1131AC093FF81914F018111C1CF9BEB980F93300C
S1131AD018F42061805E06C09BE9980F933008F0EB
S1131AE071C12F7E26FF16E02F73322E853619F42E
S1131AF02064322E08C0863621F4F22FF0683F2E7F
S1131B0002C01111115037FE07C01C3350F4EE24EB
S1131B10E394E10E27E00BC0183038F027E017E01B
S1131B2005C027E04CE3E42E02C0212FE12C520132
S1131B3044E0A40EB11CF201608171818281938121
S1131B400E2DA3010E94A8102C01098100FF02C0E0
S1131B5003FF07C031FC08C032FE09C030E2232E67
S1131B6007C02DE2222E04C09BE2292E01C0212CA5
S1131B70802F8C7019F0211068C2A8C237FE0FC0E4
S1131B80E40C04FF04C08A81813309F4EA941E142E
S1131B9074F5F8E0FE1578F588E0E82E2CC036FCE4
S1131BA02AC0812F90E0841595059CF02CEF4216F5
S1131BB02FEF520674F0432D4068342E0AC0E2E041
S1131BC0F0E0EC0FFD1FE10FF11D8081803319F46B
S1131BD011501111F4CF37FE0EC0EE24E394E10E40
S1131BE0812F90E0481659062CF4141904C0EE24F1
S1131BF0E39401C010E037FE06C01414150434F455
S1131C00C201019605C085E090E002C081E090E049
S1131C1021100196112331F0212F30E02F5F3F4F27
S1131C20820F931F2F2D30E08217930714F4F81AB4
S1131C3001C0F12C832D897049F4FF2039F0B601DD
S1131C4080E290E00E949611FA94F7CF222029F0C6
S1131C50B601822D90E00E94961133FC09C0FF204A
S1131C6039F0B60180E390E00E949611FA94F7CF20
S1131C7037FE5AC0942D852D57FE02C090E080E0B7
S1131C80292E382E20E030E0A2014E1951095D873B
S1131C904C87A201421953095F874E87612F70E078
S1131CA044275527461B570B598B488B5FEF251646
S1131CB0350649F4B6018EE290E02A8B3B8B0E94F4
S1131CC096113B892A89421453046CF04C855D8536
S1131CD04215530544F4EE85FF85E20FF31FE60D2C
S1131CE0F71D818101C080E351E0251A31082F5F7F
S1131CF03F4F48895989241635064CF0B60190E0C7
S1131D002A8B3B8B0E9496112A893B89CFCF2414BE
S1131D10350439F49A81963318F4953311F404FF99
S1131D2081E3B60190E04BC08A81813309F00F7ED4
S1131D30B60190E00E949611111105C034FC18C040
S1131D4085E690E017C0B6018EE290E00E949611FD
S1131D5082E0EE24E394E80EF301E80FF11D8081A4
S1131D60B60190E00E94961111508E2D91F7E6CFA6
S1131D7085E490E0B6010E94961157FC05C0411419
S1131D80510439F404FF05C05194419451088DE283
S1131D9001C08BE2B60190E00E94961180E39AE0C4
S1131DA0491651042CF08F5F5AE0451A5108F7CFB9
S1131DB0B60190E00E949611B601C201C0960E943D
S1131DC0961157C1833631F0833779F0833509F0A2
S1131DD058C021C05201E2E0AE0EB11CF201808174
S1131DE0898301E010E0230114C05201F2E0AF0E38
S1131DF0B11CF2014080518026FF03C0612F70E0C6
S1131E0002C06FEF7FEFC2012A8B0E948B118C01FD
S1131E102A892F7715C05201F2E0AF0EB11CF201EE
S1131E204080518026FF03C0612F70E002C06FEF35
S1131E307FEFC2012A8B0E9480118C012A892068BD
S1131E40322E23FD1AC08F2D90E008171907A8F42D
S1131E50B60180E290E00E949611FA94F4CFF20168
S1131E6037FC859137FE81912F01B60190E00E94E5
S1131E709611F110FA94015011090115110579F721
S1131E80F8C0843611F0893659F5520127FF09C08C
S1131E90F4E0AF0EB11CF201608171818281938103
S1131EA00AC0F2E0AF0EB11CF20160817181072E0D
S1131EB0000C880B990B2F76322E97FF09C0909552
S1131EC08095709561957F4F8F4F9F4F2068322E7C
S1131ED02AE030E0A3010E94FE11E82EE6183FC07C
S1131EE0022F853721F40F7E2AE030E01DC0097FE0
S1131EF08F3691F018F4883559F0C5C0803719F041
S1131F00883711F0C0C0006104FF09C0046007C035
S1131F1024FF08C0066006C028E030E005C020E1C8
S1131F2030E002C020E132E0520107FF09C0F4E0D2
S1131F30AF0EB11CF201608171818281938108C06E
S1131F40F2E0AF0EB11CF2016081718180E090E09B
S1131F50A3010E94FE11E82EE6180F77302E36FEFC
S1131F600BC0332D3E7FE11650F434FE0AC032FC20
S1131F7008C0332D3E7E05C00E2D332D03C00E2D1B
S1131F8001C0012F34FF0CC0FE01EE0DF11D808154
S1131F90803311F4397E08C032FF05C00E5F04C0DF
S1131FA0832F867809F00F5F33FD13C030FF06C01E
S1131FB01E2D0F1518F41F0D101B0F2D0F1568F48F
S1131FC0B60180E290E03B8B0E9496110F5F3B8943
S1131FD0F5CF0F1510F4F01A01C0F12C34FF12C024
S1131FE0B60180E390E03B8B0E9496113B8932FF5F
S1131FF017C031FD03C088E790E002C088E590E097
S1132000B6010CC0832F867859F031FF02C08BE2F1
S113201001C080E237FD8DE2B60190E00E94961186
S1132020E11638F4B60180E390E00E949611115055
S1132030F7CFEA94F301EE0DF11D8081B60190E033
S11320400E949611E110F5CF14C0F4E0FF1558F585
S113205084E0F81A33FE1EC0211026C003FF2AC0F4
S113206008E610E0F32DF0713F2EF8018491811100
S113207024C0FF2009F4E5CCB60180E290E00E9480
S11320809611FA94F6CFF6018681978126C08FEFD8
S11320909FEF23C0B60180E290E00E949611FA946B
S11320A0F110F8CFD9CFF12CB601822D90E00E9427
S11320B09611D4CF0CE610E0D5CF31108052B60182
S11320C090E00E9496110F5F1F4FCFCF23E02F1592
S11320D010F483E0BECFF12CC1CF6396E2E10C94FF
S11320E08D102F923F924F925F926F927F928F92B8
S11320F09F92AF92BF92CF92DF92EF92FF920F9393
S11321001F93CF93DF93CDB7DEB7CA1BDB0B0FB69C
S1132110F894DEBF0FBECDBF09942A883988488859
S11321205F846E847D848C849B84AA84B984C884EF
S1132130DF80EE80FD800C811B81AA81B981CE0FE6
S1132140D11D0FB6F894DEBF0FBECDBFED010895CB
S1132150283008F027E03327DA01990F311D87FD75
S1132160916000966105710539F432602E5F3D93EC
S113217030E32A95E1F708959F3F30F080387105E8
S1132180610509F03C5F3C5F3D93913008F0806845
S1132190911DDF93CF931F930F93FF92EF92192F0B
S11321A0987F9695E92F96959695E90FFF27E65324
S11321B0FF4F99273327EE24FF24A701E701059059
S11321C00894079428F4360FE71EF81E491F511D82
S11321D0660F771F881F991F0694A1F7059007942F
S11321E028F4E70EF81E491F561FC11D770F881FDC
S11321F0991F661F0694A1F70590079428F4F80E1A
S1132200491F561FC71FD11D880F991F661F771FAF
S11322100694A1F70590079420F4490F561FC71F91
S1132220D81F990F661F771F881F0694A9F78491FA
S11322301095177041F0D695C79557954795F79423
S1132240E7941A95C1F7E0E7F0E0689415901591CA
S113225035916591959105907FE27395E118F10AA6
S1132260430B560BC90BD009C0F7E10CF11E431FF9
S1132270561FC91FD01D7EF4703311F48A95E6CF22
S1132280E894015030F0080F0AF40027021708F40C
S1132290202F2395022F7A3328F079E37D932A9512
S11322A0E9F710C07D932A9589F60694979567956A
S11322B0379517951794E118F10A430B560BC90B80
S11322C0D00998F023957E9173957A3308F070E3E2
S11322D07C932013B8F77E9170617D9330F08395E1
S11322E071E37D9370E32A95E1F71124EF90FF9059
S11322F00F911F91CF91DF91992787FD90950895B4
S1132300FC010590615070400110D8F780959095BC
S11323108E0F9F1F0895FC016150704001900110C1
S1132320D8F7809590958E0F9F1F08950F931F9354
S1132330CF93DF93FB01238121FD03C08FEF9FEF38
S113234028C022FF16C04681578124813581421757
S1132350530744F4A081B1819D012F5F3F4F318326
S113236020838C93268137812F5F3F4F37832683C9
S113237010C0EB01092F182F0084F185E02D099579
S1132380892BE1F68E819F8101969F838E83812F15
S1132390902FDF91CF911F910F910895AEE0B0E09F
S11323A0E4EDF1E10C947F100D891E898F89988DDD
S11323B026E02C831A83098397FF02C080E090E80B
S11323C001979E838D83AE01455E5F4F698D7A8D43
S11323D0CE0101960E94F50C4D815E8157FD0AC025
S11323E02F813885421753070CF49A01F801E20F44
S11323F0F31F10822E96E4E00C949B10FA01AA2796
S1132400283051F1203181F1E8946F936E7F6E5F33
S11324107F4F8F4F9F4FAF4FB1E03ED0B4E03CD0E1
S1132420670F781F891F9A1FA11D680F791F8A1FC4
S1132430911DA11D6A0F711D811D911DA11D20D02B
S113244009F468943F912AE0269F11243019305DE5
S11324503193DEF6CF010895462F4770405D4193D6
S1132460B3E00FD0C9F7F6CF462F4F70405D4A3323
S113247018F0495D31FD4052419302D0A9F7EACFEB
S1132480B4E0A6959795879577956795BA95C9F71A
S113249000976105710508959B01AC010A2E06940D
S11324A05795479537952795BA95C9F7620F731FC6
S10F24B0841F951FA01D0895F894FFCF11
S11324BC2A48432A2A4A432A2A4B432A002A4858A0
S11324CC256C755925662C58256C755925662C5820
S11324DC256C755925662A0A002A4A58256C7559A3
S11324EC25662C58256C755925662C58256C755900
S11324FC25662A0A002A4B58256C755925662C58D2
S113250C256C755925662C58256C755925662A0A2F
S113251C002A545265636F7264696E672E2E2E2ED8
S113252C2A002A532A2A54446F6E653A25640A2ACF
S105253C000099
S9030000FC
