:100000000C9434000C9451000C9451000C94510049
:100010000C9451000C9451000C9451000C9451001C
:100020000C9451000C9451000C9451000C9451000C
:100030000C9451000C9451000C9451000C945100FC
:100040000C9451000C9451000C9451000C945100EC
:100050000C9451000C9451000C9451000C945100DC
:100060000C9451000C94510011241FBECFEFD8E026
:10007000DEBFCDBF11E0A0E0B1E0E2EEF2E002C0F1
:1000800005900D92A030B107D9F721E0A0E0B1E0D2
:1000900001C01D92A030B207E1F70E942F010C941D
:1000A0006F010C9400008AB1806E8AB98BB1806CAC
:1000B0008BB90895613019F138F0623009F46BC0E2
:1000C000643009F483C008954BB121E030E0B901F8
:1000D00002C0660F771F8A95E2F7CB01962F9095A5
:1000E00094239BB97FEF21EE34E0715020403040E3
:1000F000E1F700C000009BB1892B8BB908954BB18B
:1001000021E030E0B90102C0660F771F8A95E2F75F
:10011000CB01262F2095922F94239BB97FEF31EEB0
:1001200044E0715030404040E1F700C000009BB116
:10013000982B9BB95FEF61EE74E0515060407040C6
:10014000E1F700C000009BB192239BB93FEF41EE65
:1001500054E0315040405040E1F700C000009BB1F6
:10016000982B9BB96FEF71EE34E0615070403040D6
:10017000E1F700C000009BB192239BB94FEF51EE15
:1001800064E0415050406040E1F700C000009BB186
:10019000892B8BB908954BB121E030E0B90102C041
:1001A000660F771F8A95E2F7CB01962F90959423DF
:1001B0009BB97FEF29E638E1715020403040E1F7EC
:1001C00000C000009BB1892B8BB908955F984FEF59
:1001D00051EE64E0415050406040E1F700C0000043
:1001E0005F9A8FE19EE40197F1F700C000005E98EE
:1001F0009FEF21EE34E0915020403040E1F700C005
:1002000000005E9A5F984FEF51EE64E0415050401D
:100210006040E1F700C000005F9A8FE19EE4019723
:10022000F1F700C000005E989FEF21EE34E091509E
:1002300020403040E1F700C000005E9A0895E6EBF0
:10024000F0E080818083E0E7F0E0108280818160CF
:1002500080831092B00083E08093B10008950E94E3
:1002600053000E944F010E945F010E941F0161E044
:1002700086E00E945A00FFCF823049F018F48823AC
:1002800061F00895863039F0873019F008952A9A80
:1002900008952F9A08952E9A0895409A089584B14A
:1002A0008E6A84B982E00E943C0187E00E943C0192
:1002B000389A409A1CBC81E58CBD1DBC0895E1ECC8
:1002C000F0E0808188618083E2ECF0E080818660EC
:1002D00080831092C5008CE08093C4000895F89448
:0202E000FFCF4E
:00000001FF
