S014000053656E736F725F426F6172642E737265634F
S11300000C94B5000C94D2000C94D2000C94D20041
S11300100C94D2000C94D2000C94D2000C94D20014
S11300200C94D2000C94B0010C94D2000C94D20025
S11300300C94D2000C94D2000C94D2000C94D200F4
S11300400C94D2000C94D2000C94D2000C94D200E4
S11300500C94D2000C94D2000C94D2000C94D200D4
S11300600C94D2000C94D2006E616E00696E66002E
S113007000407A10F35A00A0724E18090010A5D45B
S1130080E80000E87648170000E40B54020000CAB8
S11300909A3B000000E1F5050000809698000000FE
S11300A040420F000000A08601000000102700005D
S11300B00000E803000000006400000000000A00E3
S11300C0000000000100000000002C76D888DC67E6
S11300D04F0823DFC1DFAE59E1B1B796E5E3E4533E
S11300E0C63AE651997696E8E6C28426EB898C9B5B
S11300F062ED407C6FFCEFBC9C9F40F2BAA56FA5FB
S1130100F490055A2AF75C936B6CF9676DC11BFC7C
S1130110E0E40D47FEF520E6B500D0ED902E030097
S1130120943577050080841E080000204E0A0000E4
S113013000C80C333333330F986E12831141EF8DA3
S11301402114893BE65516CFFEE6DB18D1844B38E3
S11301501BF77C1D901DA4BBE424203284725E2214
S11301608100C9F124ECA1E53D2711241FBECFEF86
S1130170D8E0DEBFCDBF11E0A0E0B1E0E8E8FCE1EB
S113018002C005900D92AA3DB107D9F722E0AAED6D
S1130190B1E001C01D92A231B207E1F70E94D5017E
S11301A00C94420E0C9400008AB1806E8AB98BB113
S11301B0806C8BB90895613019F138F0623009F41C
S11301C06BC0643009F483C008954BB121E030E082
S11301D0B90102C0660F771F8A95E2F7CB01962F0B
S11301E0909594239BB97FEF21EE34E07150204029
S11301F03040E1F700C000009BB1892B8BB9089512
S11302004BB121E030E0B90102C0660F771F8A9537
S1130210E2F7CB01262F2095922F94239BB97FEFF1
S113022031EE44E0715030404040E1F700C000003E
S11302309BB1982B9BB95FEF61EE74E05150604025
S11302407040E1F700C000009BB192239BB93FEFDF
S113025041EE54E0315040405040E1F700C000000E
S11302609BB1982B9BB96FEF71EE34E061507040F5
S11302703040E1F700C000009BB192239BB94FEFDF
S113028051EE64E0415050406040E1F700C000008E
S11302909BB1892B8BB908954BB121E030E0B901B2
S11302A002C0660F771F8A95E2F7CB01962F9095CF
S11302B094239BB97FEF29E638E171502040304008
S11302C0E1F700C000009BB1892B8BB908955F98BA
S11302D04FEF51EE64E0415050406040E1F700C000
S11302E000005F9A8FE19EE40197F1F700C00000DF
S11302F05E989FEF21EE34E0915020403040E1F7CA
S113030000C000005E9A5F984FEF51EE64E04150E8
S113031050406040E1F700C000005F9A8FE19EE426
S11303200197F1F700C000005E989FEF21EE34E0E2
S1130330915020403040E1F700C000005E9A0895DB
S1130340E6EBF0E080818083E0E7F0E010828081DA
S1130350816080831092B00083E08093B10008959F
S11303601F920F920FB60F9211248F939F93AF9306
S1130370BF938091DA019091DB01A091DC01B091EF
S1130380DD010196A11DB11D8093DA019093DB017B
S1130390A093DC01B093DD01BF91AF919F918F9148
S11303A00F900FBE0F901F901895CF93DF93CDB78A
S11303B0DEB7C35AD1090FB6F894DEBF0FBECDBF66
S11303C08FE19EE40197F1F700C000000E94D40081
S11303D00E948E070E940D080E94A001AFE1BEE4B6
S11303E01197F1F700C0000048E068E082E00E9445
S11303F00007789461E086E00E94DB0082E00E94BE
S113040008067C01B82E82E00E940D06D82E8E01CB
S1130410095F1F4F6894CC24C7F8F8012C2D119262
S11304202A95E9F7FF24FF92EF9280E091E09F93F1
S11304308F931F92CF921F930F930E94B40DC80104
S11304400E94FE07D801EC2D1D92EA95E9F71F9250
S1130450DF92FF92EF9284E191E09F938F931F923A
S1130460CF921F930F930E94B40DC8010E94FE0700
S11304700FB6F894DEBF0FBECDBFB1100CC08CE038
S1130480E5E2F1E0D80101900D928A95E1F7C80107
S11304900E94FE071EC091E7B9120EC08CE0E1E392
S11304A0F1E0DE01179601900D928A95E1F7CE01F5
S11304B007960E94FE070DC08CE0EDE3F1E0DE013B
S11304C0179601900D928A95E1F7CE0107960E9446
S11304D0FE078E01095F1F4F80E8D801E82F1D92A7
S11304E0EA95E9F71F92DF9229E431E03F932F93D5
S11304F01F928F931F930F930E94B40DC8010E9403
S1130500FE070FB6F894DEBF0FBECDBFD1100CC0EE
S11305108CE0E1E6F1E0D80101900D928A95E1F7D3
S1130520C8010E94FE071EC098E4D9120EC08CE0D8
S1130530EDE6F1E0DE01179601900D928A95E1F760
S1130540CE0107960E94FE070DC08CE0E9E7F1E0BA
S1130550DE01179601900D928A95E1F7CE01079678
S11305600E94FE07AFEFB1E1EAE7A150B040E040DE
S1130570E1F700C000000F2EFEED6F2EF1E07F2E9C
S1130580F02D0F2EFEEF8F2EF1E09F2EF02D5E0149
S1130590F7E0AF0EB11C6894332437F88091DA0188
S11305A09091DB01A091DC01B091DD0181329E4488
S11305B0A105B10540F01092DA011092DB0110920E
S11305C0DC011092DD0162E0CE0101960E944B0530
S11305D0D301BC91C957DF4FB883C758D040F3014A
S11305E0F181C857DF4FF883C858D040D301129621
S11305F0BC91C757DF4FB883C958D040F301F3818A
S1130600C657DF4FF883CA58D040D3011496FC90E4
S113061014971596EC9015971696DC9016971796E6
S1130620CC90179718965C90189719964C90199738
S11306301A962C901A971B96BC91C557DF4FB88316
S1130640CB58D04062E0CE0101960E9481052DE294
S113065033E24AE75CE3E2EFF1E060817181828199
S113066093810E946E08C856DF4F6883C859D040F2
S1130670C756DF4F7883C959D040C656DF4F8883A9
S1130680CA59D040C556DF4F9883CB59D0402DE28C
S113069033E24AE75CE36091F6017091F7018091DF
S11306A0F8019091F9010E946E08C456DF4F6883E7
S11306B0CC59D040C356DF4F7883CD59D040C25671
S11306C0DF4F8883CE59D040C156DF4F9883CF592E
S11306D0D0402DE233E24AE75CE36091FA01709185
S11306E0FB018091FC019091FD010E946E08C056AF
S11306F0DF4F6883C05AD040CF55DF4F7883C15A4B
S1130700D040CE55DF4F8883C25AD040CD55DF4FFD
S11307109883C35AD04062E0CE0101960E94B70587
S1130720D401BC91C457DF4FB883CC58D040F401F6
S1130730F181C357DF4FF883CD58D040D4011296CE
S1130740BC91C257DF4FB883CE58D040F401F38137
S1130750C157DF4FF883CF58D040D4011496BC91D1
S1130760C057DF4FB883C059D040F401F581CF564C
S1130770DF4FF883C159D040D4011696BC91CE56B0
S1130780DF4FB883C259D040F401F781CD56DF4F13
S1130790F883C359D040D4011896BC91CC56DF4F8E
S11307A0B883C459D040F401F185CB56DF4FF883A8
S11307B0C559D040D4011A96BC91CA56DF4FB883AC
S11307C0C659D040F401F385C956DF4FF883C759A1
S11307D0D040D501E32D1D92EA95E9F70091DA01A5
S11307E01091DB012091DC013091DD014091DA01AF
S11307F05091DB016091DC017091DD018091DA019F
S11308009091DB01A091DC01B091DD01C557DF4F70
S1130810F881CB58D040FF932F924F925F923F9331
S11308202F931F930F93CF92DF92EF92FF927F93B8
S11308306F935F934F93C657DF4F2881CA58D040B8
S11308402F93C757DF4FE881C958D040EF93C8575B
S1130850DF4FF881C858D040FF93C957DF4F288134
S1130860C758D0402F93BF93AF939F938F93A5E81E
S1130870B1E0BF93AF931F923F92BF92AF920E9499
S1130880B40DC5010E94FE07D501E32D1D92EA9522
S1130890E9F70091DA011091DB012091DC0130913C
S11308A0DD014091DA015091DB016091DC0170912E
S11308B0DD018091DA019091DB01A091DC01B0911E
S11308C0DD01CD55DF4FF881C35AD040FF93CE559B
S11308D0DF4FE881C25AD040EF93CF55DF4FF88104
S11308E0C15AD040FF93C056DF4FE881C05AD04070
S11308F0EF933F932F931F930F93C156DF4FF881CC
S1130900CF59D040FF93C256DF4F2881CE59D040F3
S11309102F93C356DF4FE881CD59D040EF93C4568F
S1130920DF4FF881CC59D040FF937F936F935F934F
S11309304F93C556DF4F2881CB59D0402F93C656CD
S1130940DF4FE881CA59D040EF93C756DF4FF88193
S1130950C959D040FF93C856DF4F2881C859D040A9
S11309602F93BF93AF939F938F93A1EAB1E0BF936B
S1130970AF931F923F92BF92AF920E94B40D0FB6F5
S1130980F894DEBF0FBECDBFC5010E94FE07D5019E
S1130990E32D1D92EA95E9F70091DA011091DB014C
S11309A02091DC013091DD014091DA015091DB01AD
S11309B06091DC017091DD018091DA019091DB019D
S11309C0A091DC01B091DD01C956DF4FF881C75910
S11309D0D040FF93CA56DF4FE881C659D040EF9309
S11309E0CB56DF4FF881C559D040FF93CC56DF4F2B
S11309F0E881C459D040EF933F932F931F930F93F3
S1130A00CD56DF4FF881C359D040FF93CE56DF4F08
S1130A102881C259D0402F93CF56DF4FE881C15966
S1130A20D040EF93C057DF4FF881C059D040FF93B7
S1130A307F936F935F934F93C157DF4F2881CF58B4
S1130A40D0402F93C257DF4FE881CE58D040EF9368
S1130A50C357DF4FF881CD58D040FF93C457DF4FC1
S1130A602881CC58D0402F93BF93AF939F938F93FB
S1130A70ADEBB1E0BF93AF931F923F92BF92AF92A1
S1130A800E94B40DC5010E94FE070FB6F894DEBFA4
S1130A900FBECDBF83CD0F931F93CF93DF9300D0B1
S1130AA000D000D0CDB7DEB78C01862F9E012F5F1A
S1130AB03F4F46E06BE30E94BF07898190E0982F87
S1130AC088272A81822BF801918380832B8130E04F
S1130AD0322F22278C81282B338322832D8130E0EF
S1130AE0322F22278E81282B3583248326960FB616
S1130AF0F894DEBF0FBECDBFDF91CF911F910F9150
S1130B0008950F931F93CF93DF9300D000D000D0AC
S1130B10CDB7DEB78C01862F9E012F5F3F4F46E095
S1130B2063E40E94BF07898190E0982F88272A8177
S1130B30822BF801918380832B8130E0322F22278E
S1130B408C81282B338322832D8130E0322F22277E
S1130B508E81282B3583248326960FB6F894DEBF26
S1130B600FBECDBFDF91CF911F910F910895FF92DA
S1130B700F931F93CF93DF93CDB7DEB727970FB6AD
S1130B80F894DEBF0FBECDBF8C01F62E4CE865E2B3
S1130B908F2D0E949E0743E066E28F2D0E949E07E0
S1130BA047E867E28F2D0E949E0787EC90E001974B
S1130BB0F1F700C000009E012F5F3F4F47E069E45A
S1130BC08F2D0E94BF078A8190E0982F8827298162
S1130BD0822BF801918380832C8130E0322F2227ED
S1130BE08B81282B338322832E8130E0322F2227DE
S1130BF08D81282B3583248327960FB6F894DEBF86
S1130C000FBECDBFDF91CF911F910F91FF9008953B
S1130C1040E065EF0E949E070895CF93C82F4CE8EB
S1130C2065E20E949E0740E066E28C2F0E949E07C8
S1130C3041E867E28C2F0E949E0787EC90E00197C1
S1130C40F1F700C0000040E069EC8C2F0E949E0781
S1130C50CF9108951F93CF93DF93182FEB01462F65
S1130C606CE10E949E07C830D105B9F01CF4CD2B6D
S1130C7039F039C0C031D105E9F0689741F133C08A
S1130C8080E090E0A0E8B6E480930E0290930F0217
S1130C90A0931002B093110226C080E090E0A0E07F
S1130CA0B6E480930E0290930F02A0931002B093C7
S1130CB0110219C080E090E0A0E8B5E480930E0230
S1130CC090930F02A0931002B09311020CC080E025
S1130CD090E0A0E0B5E480930E0290930F02A093FD
S1130CE01002B093110240E06CE9812F0E949E072C
S1130CF08830910571F018F4009741F012C08031EA
S1130D00910551F08831910551F00BC082E090E0DB
S1130D1008C084E090E005C088E090E002C080E173
S1130D2090E0DF91CF911F9108951F93CF93DF93AC
S1130D30182FEB01462F6BE10E949E07C830D105A6
S1130D40B9F01CF4CD2B39F039C0C031D105E9F02C
S1130D50689741F133C080E090E0A3E0B3E480936E
S1130D600A0290930B02A0930C02B0930D0226C0CA
S1130D7080E090E0A3E8B2E480930A0290930B022F
S1130D80A0930C02B0930D0219C083E393E3A3E094
S1130D90B2E480930A0290930B02A0930C02B093E6
S1130DA00D020CC083E393E3A3E8B1E480930A0249
S1130DB090930B02A0930C02B0930D0240E06BE9F8
S1130DC0812F0E949E078830910571F018F40097D6
S1130DD041F012C08031910551F08831910551F0F4
S1130DE00BC08AEF90E008C084EF91E005C088EE64
S1130DF093E002C080ED97E0DF91CF911F910895B9
S1130E001F93CF93DF93C82F162FD42F40E86BE6A0
S1130E100E949E0741E06BE68C2F0E949E0740E0F3
S1130E206CE68C2F0E949E0741E06AE18C2F0E94A1
S1130E309E074D2F6BE18C2F0E949E07412F6CE182
S1130E408C2F0E949E0749E06DE18C2F0E949E0723
S1130E5040E367E38C2F0E949E0740E26AE68C2FF2
S1130E600E949E074DE064E28C2F0E949E074CE096
S1130E7065E28C2F0E949E074BE066E28C2F0E9455
S1130E809E0741E063E68C2F0E949E0741E867E2DB
S1130E908C2F0E949E074AE066E28C2F0E949E07D8
S1130EA042E163E68C2F0E949E0741E867E28C2FA3
S1130EB00E949E07612F70E08C2F0E942A066D2FDE
S1130EC070E08C2F0E949506DF91CF911F910895B9
S1130ED0823049F018F4882361F00895863039F09F
S1130EE0873019F008952A9808952F9808952E9818
S1130EF0089540980895823049F018F4882361F0E9
S1130F000895863039F0873019F008952A9A0895A3
S1130F102F9A08952E9A0895409A089584B18E6A5E
S1130F2084B982E00E947B0787E00E947B07389A9D
S1130F30409A1CBC8DE58CBD1DBC08951F93CF93B6
S1130F40DF93C82F162FD42F0E9468071EBD000000
S1130F500DB407FEFDCF8EB5DEBD00000DB407FE57
S1130F60FDCFDEB58C2F0E947B0785E88A95F1F7CB
S1130F7000008D2F90E0DF91CF911F910895EF92A3
S1130F80FF921F93CF93DF93182FD62FC42F79018D
S1130F900E946807D068DEBD00000DB407FEFDCFD7
S1130FA08EB54C2F50E04115510571F0F7019701B2
S1130FB0240F351F1EBC00000DB407FEFDCF9EB5E7
S1130FC09193E217F307B1F7812F0E947B0785E81D
S1130FD08A95F1F70000DF91CF911F91FF90EF9078
S1130FE00895E0ECF0E0908195FFFDCF8093C6007A
S1130FF0E0ECF0E0808185FFFDCF0895CF93DF938F
S1131000EC018881882331F021960E94F1078991AF
S11310108111FBCFDF91CF910895E1ECF0E0808165
S113102088618083E2ECF0E08081866080831092A6
S1131030C5008CE08093C400089597F99F6780E809
S113104070E060E008959FEF80EC089500240A9416
S11310501616170618060906089500240A9412168F
S11310601306140605060895092E0394000C11F4C2
S1131070882352F0BB0F40F4BF2B11F460FF04C06F
S11310806F5F7F4F8F4F9F4F089557FD9058440FC8
S1131090551F59F05F3F71F04795880F97FB991FD3
S11310A061F09F3F79F08795089512161306140690
S11310B0551FF2CF4695F1DF08C01616170618061D
S11310C0991FF1CF86957105610508940895E894F8
S11310D0BB2766277727CB0197F908950E948108DB
S11310E00C9434080E94260838F00E942D0820F041
S11310F0952311F00C941D080C94230811240C94CE
S113110068080E94450870F3959FC1F3950F50E05D
S1131110551F629FF001729FBB27F00DB11D639FA5
S1131120AA27F00DB11DAA1F649F6627B00DA11D4B
S1131130661F829F2227B00DA11D621F739FB00DF1
S1131140A11D621F839FA00D611D221F749F332761
S1131150A00D611D231F849F600D211D822F762FFA
S11311606A2F11249F5750409AF0F1F088234AF0D7
S1131170EE0FFF1FBB1F661F771F881F9150504043
S1131180A9F79E3F510580F00C941D080C94680843
S11311905F3FE4F3983ED4F3869577956795B795CA
S11311A0F795E7959F5FC1F7FE2B880F911D9695E4
S11311B0879597F90895A3E1B0E0E1EEF8E00C9487
S11311C0570C6C014B012A01FC01178216828381A2
S11311D081FF43C3AE014F5F5F4F3A01F601938134
S11311E0F40193FD859193FF81914F01882309F4C4
S11311F030C3853239F493FD859193FF81914F017A
S1131200853239F4B60190E00E947C0D520125012B
S1131210E5CF10E0F12C20E02032A0F48B3269F00D
S113122030F4803259F0833269F420612CC08D325D
S113123039F0803339F4216026C02260246023C051
S1131240286021C027FD27C030ED380F3A3078F4EC
S113125026FF06C0FAE01F9F300D1124132F13C080
S11312604AE0F49E300D1124F32E20620CC08E321D
S113127021F426FDEEC2206406C08C3611F42068E9
S113128002C0883641F4F40193FD859193FF819166
S11312904F018111C1CF9BEB980F933018F420615B
S11312A0805E06C09BE9980F933008F071C12F7ED1
S11312B026FF16E02F73322E853619F42064322E61
S11312C008C0863621F4F22FF0683F2E02C01111B7
S11312D0115037FE07C01C3350F4EE24E394E10EA2
S11312E027E00BC0183038F027E017E005C027E0EE
S11312F04CE3E42E02C0212FE12C520144E0A40E61
S1131300B11CF20160817181828193810E2DA30150
S11313100E948E0C2C01098100FF02C003FF07C04C
S113132031FC08C032FE09C030E2232E07C02DE292
S1131330222E04C09BE2292E01C0212C802F8C7008
S113134019F0211068C2A8C237FE0FC0E40C04FFD4
S113135004C08A81813309F4EA941E1474F5F8E018
S1131360FE1578F588E0E82E2CC036FC2AC0812FC3
S113137090E0841595059CF02CEF42162FEF520651
S113138074F0432D4068342E0AC0E2E0F0E0EC0F24
S1131390FD1FE10FF11D8081803319F411501111EB
S11313A0F4CF37FE0EC0EE24E394E10E812F90E0DB
S11313B0481659062CF4141904C0EE24E39401C011
S11313C010E037FE06C01414150434F4C20101966B
S11313D005C085E090E002C081E090E02110019614
S11313E0112331F0212F30E02F5F3F4F820F931FE5
S11313F02F2D30E08217930714F4F81A01C0F12C52
S1131400832D897049F4FF2039F0B60180E290E021
S11314100E947C0DFA94F7CF222029F0B601822D88
S113142090E00E947C0D33FC09C0FF2039F0B60126
S113143080E390E00E947C0DFA94F7CF37FE5AC007
S1131440942D852D57FE02C090E080E0292E382E81
S113145020E030E0A2014E1951095D874C87A201BA
S1131460421953095F874E87612F70E0442755273F
S1131470461B570B598B488B5FEF2516350649F4ED
S1131480B6018EE290E02A8B3B8B0E947C0D3B8957
S11314902A89421453046CF04C855D85421553052A
S11314A044F4EE85FF85E20FF31FE60DF71D8181FD
S11314B001C080E351E0251A31082F5F3F4F48896E
S11314C05989241635064CF0B60190E02A8B3B8BE3
S11314D00E947C0D2A893B89CFCF2414350439F42A
S11314E09A81963318F4953311F404FF81E3B6011D
S11314F090E04BC08A81813309F00F7EB60190E001
S11315000E947C0D111105C034FC18C085E690E0E2
S113151017C0B6018EE290E00E947C0D82E0EE24BA
S1131520E394E80EF301E80FF11D8081B60190E029
S11315300E947C0D11508E2D91F7E6CF85E490E04A
S1131540B6010E947C0D57FC05C04114510439F4C6
S113155004FF05C05194419451088DE201C08BE20F
S1131560B60190E00E947C0D80E39AE04916510494
S11315702CF08F5F5AE0451A5108F7CFB60190E07E
S11315800E947C0DB601C201C0960E947C0D57C119
S1131590833631F0833779F0833509F058C021C0A0
S11315A05201E2E0AE0EB11CF2018081898301E0B8
S11315B010E0230114C05201F2E0AF0EB11CF2019D
S11315C04080518026FF03C0612F70E002C06FEF9E
S11315D07FEFC2012A8B0E94710D8C012A892F771B
S11315E015C05201F2E0AF0EB11CF20140805180EF
S11315F026FF03C0612F70E002C06FEF7FEFC201CE
S11316002A8B0E94660D8C012A892068322E23FDC4
S11316101AC08F2D90E008171907A8F4B60180E2CC
S113162090E00E947C0DFA94F4CFF20137FC85918E
S113163037FE81912F01B60190E00E947C0DF110DC
S1131640FA94015011090115110579F7F8C084368F
S113165011F0893659F5520127FF09C0F4E0AF0EA5
S1131660B11CF20160817181828193810AC0F2E030
S1131670AF0EB11CF20160817181072E000C880B42
S1131680990B2F76322E97FF09C09095809570950F
S113169061957F4F8F4F9F4F2068322E2AE030E0B4
S11316A0A3010E94E40DE82EE6183FC0022F8537FF
S11316B021F40F7E2AE030E01DC0097F8F3691F0BF
S11316C018F4883559F0C5C0803719F0883711F0FF
S11316D0C0C0006104FF09C0046007C024FF08C043
S11316E0066006C028E030E005C020E130E002C01A
S11316F020E132E0520107FF09C0F4E0AF0EB11C53
S1131700F201608171818281938108C0F2E0AF0EA1
S1131710B11CF2016081718180E090E0A3010E941C
S1131720E40DE82EE6180F77302E36FE0BC0332D6D
S11317303E7FE11650F434FE0AC032FC08C0332D5B
S11317403E7E05C00E2D332D03C00E2D01C0012F8A
S113175034FF0CC0FE01EE0DF11D8081803311F4C5
S1131760397E08C032FF05C00E5F04C0832F86781F
S113177009F00F5F33FD13C030FF06C01E2D0F1597
S113178018F41F0D101B0F2D0F1568F4B60180E21D
S113179090E03B8B0E947C0D0F5F3B89F5CF0F15CA
S11317A010F4F01A01C0F12C34FF12C0B60180E32A
S11317B090E03B8B0E947C0D3B8932FF17C031FDCA
S11317C003C088E790E002C088E590E0B6010CC051
S11317D0832F867859F031FF02C08BE201C080E28A
S11317E037FD8DE2B60190E00E947C0DE11638F4DD
S11317F0B60180E390E00E947C0D1150F7CFEA948B
S1131800F301EE0DF11D8081B60190E00E947C0D84
S1131810E110F5CF14C0F4E0FF1558F584E0F81A90
S113182033FE1EC0211026C003FF2AC008E610E0C4
S1131830F32DF0713F2EF8018491811124C0FF2013
S113184009F4E5CCB60180E290E00E947C0DFA94A4
S1131850F6CFF6018681978126C08FEF9FEF23C0D4
S1131860B60180E290E00E947C0DFA94F110F8CF6A
S1131870D9CFF12CB601822D90E00E947C0DD4CFFB
S11318800CE610E0D5CF31108052B60190E00E94F2
S11318907C0D0F5F1F4FCFCF23E02F1510F483E093
S11318A0BECFF12CC1CF6396E2E10C94730C2F925E
S11318B03F924F925F926F927F928F929F92AF92DC
S11318C0BF92CF92DF92EF92FF920F931F93CF9329
S11318D0DF93CDB7DEB7CA1BDB0B0FB6F894DEBFC0
S11318E00FBECDBF09942A88398848885F846E84E6
S11318F07D848C849B84AA84B984C884DF80EE8030
S1131900FD800C811B81AA81B981CE0FD11D0FB638
S1131910F894DEBF0FBECDBFED010895283008F066
S113192027E03327DA01990F311D87FD9160009676
S11319306105710539F432602E5F3D9330E32A95D9
S1131940E1F708959F3F30F080387105610509F093
S11319503C5F3C5F3D93913008F08068911DDF93BC
S1131960CF931F930F93FF92EF92192F987F969521
S1131970E92F96959695E90FFF27E653FF4F992790
S11319803327EE24FF24A701E70105900894079468
S113199028F4360FE71EF81E491F511D660F771FE6
S11319A0881F991F0694A1F70590079428F4E70E61
S11319B0F81E491F561FC11D770F881F991F661FE8
S11319C00694A1F70590079428F4F80E491F561FB2
S11319D0C71FD11D880F991F661F771F0694A1F793
S11319E00590079420F4490F561FC71FD81F990F5D
S11319F0661F771F881F0694A9F7849110951770A6
S1131A0041F0D695C79557954795F794E7941A955D
S1131A10C1F7E0E7F0E06894159015913591659170
S1131A20959105907FE27395E118F10A430B560BEB
S1131A30C90BD009C0F7E10CF11E431F561FC91F83
S1131A40D01D7EF4703311F48A95E6CFE8940150EA
S1131A5030F0080F0AF40027021708F4202F23950A
S1131A60022F7A3328F079E37D932A95E9F710C0A1
S1131A707D932A9589F606949795679537951795DA
S1131A801794E118F10A430B560BC90BD00998F0CF
S1131A9023957E9173957A3308F070E37C93201339
S1131AA0B8F77E9170617D9330F0839571E37D93F7
S1131AB070E32A95E1F71124EF90FF900F911F91A5
S1131AC0CF91DF91992787FD90950895FC010590AA
S1131AD0615070400110D8F7809590958E0F9F1F2C
S1131AE00895FC016150704001900110D8F7809571
S1131AF090958E0F9F1F08950F931F93CF93DF939D
S1131B00FB01238121FD03C08FEF9FEF28C022FF3B
S1131B1016C046815781248135814217530744F406
S1131B20A081B1819D012F5F3F4F318320838C932E
S1131B30268137812F5F3F4F3783268310C0EB0107
S1131B40092F182F0084F185E02D0995892BE1F6E2
S1131B508E819F8101969F838E83812F902FDF91A9
S1131B60CF911F910F910895AEE0B0E0EAEBFDE054
S1131B700C94650C0D891E898F89988D26E02C8321
S1131B801A83098397FF02C080E090E801979E833F
S1131B908D83AE01455E5F4F698D7A8DCE010196CE
S1131BA00E94DB084D815E8157FD0AC02F81388574
S1131BB0421753070CF49A01F801E20FF31F108245
S1131BC02E96E4E00C94810CFA01AA27283051F1F6
S1131BD0203181F1E8946F936E7F6E5F7F4F8F4F5A
S1131BE09F4FAF4FB1E03ED0B4E03CD0670F781FB9
S1131BF0891F9A1FA11D680F791F8A1F911DA11D9E
S1131C006A0F711D811D911DA11D20D009F46894D6
S1131C103F912AE0269F11243019305D3193DEF67E
S1131C20CF010895462F4770405D4193B3E00FD034
S1131C30C9F7F6CF462F4F70405D4A3318F0495D1F
S1131C4031FD4052419302D0A9F7EACFB4E0A69502
S1131C509795879577956795BA95C9F70097610524
S1131C60710508959B01AC010A2E0694579547957A
S1131C7037952795BA95C9F7620F731F841F951F6F
S10B1C80A01D0895F894FFCFA4
S1131C880A57686F416D492056616C75653A20257D
S1131C98640A0A002A544D50553D25642020414BBE
S1131CA83D25642A002A4252323535473042302ACB
S1131CB8002A4252304732353542302A002A4252ED
S1131CC8304730423235352A000A4D41472057689B
S1131CD86F416D492056616C75653A2025640A0A7E
S1131CE8002A4C52323535473042302A002A4C52A9
S1131CF8304732353542302A002A4C523047304278
S1131D083235352A002A4858256C755925662C58C9
S1131D18256C755925662C58256C755925662A0A2B
S1131D28002A4A58256C755925662C58256C75590E
S1131D3825662C58256C755925662A0A002A4B589D
S1131D48256C755925662C58256C755925662C58AB
S10D1D58256C755925662A0A00005F
S9030000FC
