:100000000C94B5000C94D2000C94D2000C94D20045
:100010000C94D2000C94D2000C94D2000C94D20018
:100020000C94D2000C94B0010C94D2000C94D20029
:100030000C94D2000C94D2000C94D2000C94D200F8
:100040000C94D2000C94D2000C94D2000C94D200E8
:100050000C94D2000C94D2000C94D2000C94D200D8
:100060000C94D2000C94D2006E616E00696E660032
:1000700000407A10F35A00A0724E18090010A5D45F
:10008000E80000E87648170000E40B54020000CABC
:100090009A3B000000E1F505000080969800000002
:1000A00040420F000000A086010000001027000061
:1000B0000000E803000000006400000000000A00E7
:1000C000000000000100000000002C76D888DC67EA
:1000D0004F0823DFC1DFAE59E1B1B796E5E3E45342
:1000E000C63AE651997696E8E6C28426EB898C9B5F
:1000F00062ED407C6FFCEFBC9C9F40F2BAA56FA5FF
:10010000F490055A2AF75C936B6CF9676DC11BFC80
:10011000E0E40D47FEF520E6B500D0ED902E03009B
:10012000943577050080841E080000204E0A0000E8
:1001300000C80C333333330F986E12831141EF8DA7
:100140002114893BE65516CFFEE6DB18D1844B38E7
:100150001BF77C1D901DA4BBE424203284725E2218
:100160008100C9F124ECA1E53D2711241FBECFEF8A
:10017000D8E0DEBFCDBF12E0A0E0B1E0EEE3FFE2E9
:1001800002C005900D92AA38B107D9F722E0AAE87B
:10019000B2E001C01D92AB3DB207E1F70E94D5016C
:1001A0000C949D170C9400008AB1806E8AB98BB1B3
:1001B000806C8BB90895613019F138F0623009F420
:1001C0006BC0643009F483C008954BB121E030E086
:1001D000B90102C0660F771F8A95E2F7CB01962F0F
:1001E000909594239BB97FEF21EE34E0715020402D
:1001F0003040E1F700C000009BB1892B8BB9089516
:100200004BB121E030E0B90102C0660F771F8A953B
:10021000E2F7CB01262F2095922F94239BB97FEFF5
:1002200031EE44E0715030404040E1F700C0000042
:100230009BB1982B9BB95FEF61EE74E05150604029
:100240007040E1F700C000009BB192239BB93FEFE3
:1002500041EE54E0315040405040E1F700C0000012
:100260009BB1982B9BB96FEF71EE34E061507040F9
:100270003040E1F700C000009BB192239BB94FEFE3
:1002800051EE64E0415050406040E1F700C0000092
:100290009BB1892B8BB908954BB121E030E0B901B6
:1002A00002C0660F771F8A95E2F7CB01962F9095D3
:1002B00094239BB97FEF29E638E17150204030400C
:1002C000E1F700C000009BB1892B8BB908955F98BE
:1002D0004FEF51EE64E0415050406040E1F700C004
:1002E00000005F9A8FE19EE40197F1F700C00000E3
:1002F0005E989FEF21EE34E0915020403040E1F7CE
:1003000000C000005E9A5F984FEF51EE64E04150EC
:1003100050406040E1F700C000005F9A8FE19EE42A
:100320000197F1F700C000005E989FEF21EE34E0E6
:10033000915020403040E1F700C000005E9A0895DF
:10034000E6EBF0E080818083E0E7F0E010828081DE
:10035000816080831092B00083E08093B1000895A3
:100360001F920F920FB60F9211248F939F93AF930A
:10037000BF9380918A0290918B02A0918C02B091E0
:100380008D020196A11DB11D80938A0290938B026C
:10039000A0938C02B0938D02BF91AF919F918F91EA
:1003A0000F900FBE0F901F9018958FE19EE401975C
:1003B000F1F700C0000078940E94B30E9AE19A957C
:1003C000F1F700C00E94D4000E94E70F0E94A00134
:1003D0000E94190F813029F480E091E00E94D80F2B
:1003E00004C085E191E00E94D80F26E940E064E670
:1003F00084E60E94970F40E064E684E60E94640F62
:10040000863929F48AE291E00E94D80F04C085E47D
:1004100091E00E94D80F8FE19EE40197F1F700C0B0
:10042000000041E050E061E070E082E00E941105D0
:100430008FE19EE40197F1F700C0000041E050E039
:1004400061E070E087E00E9411058FE19EE4019772
:10045000F1F700C0000041E050E061E070E086E0AC
:100460000E94110561E086E00E94DB008FE19EE4BE
:100470000197F1F700C0000068E170E082E00E949F
:10048000A6048FE19EE40197F1F700C0000068E147
:1004900070E082E00E943B048FE19EE40197F1F757
:1004A00000C0000068E170E087E00E94A6048FE1D0
:1004B0009EE40197F1F700C0000068E170E087E07A
:1004C0000E943B048FE19EE40197F1F700C0000019
:1004D00068E170E086E00E94A6048FE19EE4019747
:1004E000F1F700C0000068E170E086E00E943B0484
:1004F0008FE19EE40197F1F700C0000080E691E0F3
:100500000E94D80F62E086E00E94DB0082E00E9439
:10051000B3028FE19EE40197F1F700C0000087E08D
:100520000E94B3028FE19EE40197F1F700C0000042
:1005300086E00E94B3028FE19EE40197F1F700C0CC
:1005400000009FEF23ED80E3915020408040E1F7D1
:1005500000C000000E94FC0F8335E1F70E94980B59
:100560000E943B0EF7CFCF92DF92EF92FF920F9354
:100570001F93CF93DF9300D01F92CDB7DEB7182F14
:100580004CE861E30E94C60E8FE19EE40197F1F70B
:1005900000C0000040E162E3812F0E94C60EEFE13F
:1005A000FEE43197F1F700C0000043E864E3812FD7
:1005B0000E94C60E87EC90E00197F1F700C00000A2
:1005C0009E012F5F3F4F43E069E4812F0E94E70EB9
:1005D000FE0131967F010BEC12E00F2EF7EDCF2ECE
:1005E000F2E0DF2EF02DF70161917F0170E080E0F5
:1005F00090E00E94191120E030E040E053E40E94B6
:100600000B1020E030E040E85BE30E94A71120E0FF
:1006100030E040E85FE30E940C102AE939E949E143
:100620005EE30E94A711F801619371938193919306
:100630008F01EC15FD05B9F60F900F900F90DF912B
:10064000CF911F910F91FF90EF90DF90CF90089581
:100650008F929F92AF92BF92CF92DF92EF92FF92D2
:100660000F931F93CF93DF93CDB7DEB765970FB688
:10067000F894DEBF0FBECDBF182F4CE865E20E9494
:10068000C60E8FE697E10197F1F700C0000043E046
:1006900066E2812F0E94C60EEFE6F7E13197F1F78F
:1006A00000C0000047E867E2812F0E94C60E8FE974
:1006B0009FE00197F1F700C000009E012F5F3F4FC0
:1006C00045E16BE3812F0E94E70E8090D702909066
:1006D000D802A090D902B090DA028E010E5F1F4FAF
:1006E0000F2EFEE8EF2EF2E0FF2EF02D0F2EFAE98E
:1006F000CF2EF2E0DF2EF02DF8013197608170E00F
:10070000762F6627F8018081682B072E000C880B56
:10071000990B0E941B11A50194010E947810F7010A
:1007200061937193819391937F010E5F1F4FEC153D
:10073000FD0511F768858F8170E0782B072E000C7E
:10074000880B990B0E941B1120E030E048EA51E42D
:100750000E940B102CE53FEE46EA53E40E9478100D
:1007600020E030E048EA51E40E940C1060939E02C1
:1007700070939F028093A0029093A1028090C70281
:100780009090C802A090C902B090CA028E01065F84
:100790001F4F0F2EF2EAEF2EF2E0FF2EF02D0F2E5C
:1007A000FEEACF2EF2E0DF2EF02DF80131976081C6
:1007B00070E0762F6627F8018081682B072E000CE9
:1007C000880B990B0E941B11A50194010E947810BF
:1007D000F70161937193819391937F010E5F1F4F96
:1007E000EC15FD0511F706EB12E0688970E0762F35
:1007F00066278F85682B072E000C880B990B0E94AB
:100800001B11F80160837183828393836A8970E08E
:10081000762F66278989682B072E000C880B990B89
:100820000E941B11F80164837583868397836C890A
:1008300070E0762F66278B89682B072E000C880BBB
:10084000990B0E941B11F80160877187828793873B
:1008500065960FB6F894DEBF0FBECDBFDF91CF9186
:100860001F910F91FF90EF90DF90CF90BF90AF90CE
:100870009F908F9008951F93CF93DF93182FEB01D4
:10088000462F6CE10E94C60EC830D105B9F01CF4A9
:10089000CD2B39F039C0C031D105E9F0689741F16D
:1008A00033C080E090E0A0E8B6E48093D702909354
:1008B000D802A093D902B093DA0226C080E090E07B
:1008C000A0E0B6E48093D7029093D802A093D90217
:1008D000B093DA0219C080E090E0A0E8B5E480931C
:1008E000D7029093D802A093D902B093DA020CC039
:1008F00080E090E0A0E0B5E48093D7029093D80226
:10090000A093D902B093DA0240E06CE9812F0E94F3
:10091000C60E8830910571F018F4009741F012C0AE
:100920008031910551F08831910551F00BC082E082
:1009300090E008C084E090E005C088E090E002C04C
:1009400080E190E0DF91CF911F9108951F93CF93A5
:10095000DF93182FEB01462F6BE10E94C60EC830C3
:10096000D105B9F01CF4CD2B39F039C0C031D10517
:10097000E9F0689741F133C080E090E0A3E0B3E490
:100980008093C7029093C802A093C902B093CA0291
:1009900026C080E090E0A3E8B2E48093C702909381
:1009A000C802A093C902B093CA0219C083E393E3BB
:1009B000A3E0B2E48093C7029093C802A093C90257
:1009C000B093CA020CC083E393E3A3E8B1E480933D
:1009D000C7029093C802A093C902B093CA0240E034
:1009E0006BE9812F0E94C60E8830910571F018F4D2
:1009F000009741F012C08031910551F08831910586
:100A000051F00BC08AEF90E008C084EF91E005C080
:100A100088EE93E002C080ED97E0DF91CF911F91C7
:100A20000895CF93DF93C82FD42F40E86BE60E9440
:100A3000C60E8FE19EE40197F1F700C0000041E08F
:100A40006BE68C2F0E94C60E8FE19EE40197F1F7B2
:100A500000C0000040E06CE68C2F0E94C60E8FE1C3
:100A60009EE40197F1F700C000004D2F6AE18C2F42
:100A70000E94C60E8FE19EE40197F1F700C00000CE
:100A800048E16BE18C2F0E94C60E8FE19EE4019736
:100A9000F1F700C0000048E06CE18C2F0E94C60E08
:100AA0008FE19EE40197F1F700C0000049E06DE19D
:100AB0008C2F0E94C60E8FE19EE40197F1F700C0D3
:100AC000000040E367E38C2F0E94C60E8FE19EE496
:100AD0000197F1F700C0000040E26AE68C2F0E9407
:100AE000C60E8FE19EE40197F1F700C000004DE0D3
:100AF00064E28C2F0E94C60E8FE19EE40197F1F70D
:100B000000C000004CE065E28C2F0E94C60E4BE056
:100B100066E28C2F0E94C60E41E063E68C2F0E9495
:100B2000C60E41E867E28C2F0E94C60E8FE19EE45C
:100B30000197F1F700C000004AE066E28C2F0E94A6
:100B4000C60E42E163E68C2F0E94C60E41E867E2C2
:100B50008C2F0E94C60E62E070E08C2F0E943B0436
:100B60006AEF70E08C2F0E94A604DF91CF91089568
:100B70004F925F926F927F928F929F92AF92BF92AD
:100B8000CF92DF92EF92FF92CF93DF93CDB7DEB794
:100B90006C970FB6F894DEBF0FBECDBFCDA4DEA418
:100BA000EFA4F8A849A85AA86BA87CA88DA89EA86D
:100BB000AFA8B8AC89AD9AADABADBCAD89839A8313
:100BC000AB83BC8321968CAD9DADAEADBFAD2197FF
:100BD0008D839E83AF83B88725968CAD9DADAEADDA
:100BE000BFAD259789879A87AB87BC8729968CAD3F
:100BF0009DADAEADBFAD29978D879E87AF87B88B72
:100C00002D968CAD9DADAEADBFAD2D97898B9A8BDA
:100C1000AB8BBC8B61968CAD9DADAEADBFAD61971E
:100C20008D8B9E8BAF8BB88F65968CAD9DADAEAD29
:100C3000BFAD6597898F9A8FAB8FBC8F2F2D3327D0
:100C4000442755274091B5026091C2028091B402B9
:100C50000E94970F9701442755274091B502609154
:100C6000C2028091B4020E94970F55274F2D3E2D4E
:100C70002D2D4091B5026091C2028091B4020E9474
:100C8000970F2C2D4091B5026091C2028091B40261
:100C90000E94970FC301B2010E94EA106B017C0110
:100CA000292F3327442755274091B5026091C2026E
:100CB0008091B4020E94970F9701442755274091D5
:100CC000B5026091C2028091B4020E94970F55272D
:100CD0004F2D3E2D2D2D4091B5026091C202809185
:100CE000B4020E94970F2C2D4091B5026091C20270
:100CF0008091B4020E94970FC501B4010E94EA10CE
:100D00006B017C01292F3327442755274091B502D9
:100D10006091C2028091B4020E94970F970144270C
:100D200055274091B5026091C2028091B4020E94A1
:100D3000970F55274F2D3E2D2D2D4091B5026091D7
:100D4000C2028091B4020E94970F2C2D4091B502EF
:100D50006091C2028091B4020E94970F69817A81EA
:100D60008B819C810E94EA106B017C01292F332723
:100D7000442755274091B5026091C2028091B40288
:100D80000E94970F9701442755274091B502609123
:100D9000C2028091B4020E94970F55274F2D3E2D1D
:100DA0002D2D4091B5026091C2028091B4020E9443
:100DB000970F2C2D4091B5026091C2028091B40230
:100DC0000E94970F6D817E818F8198850E94EA1025
:100DD0006B017C01292F3327442755274091B50209
:100DE0006091C2028091B4020E94970F970144273C
:100DF00055274091B5026091C2028091B4020E94D1
:100E0000970F55274F2D3E2D2D2D4091B502609106
:100E1000C2028091B4020E94970F2C2D4091B5021E
:100E20006091C2028091B4020E94970F69857A8511
:100E30008B859C850E94EA106B017C01292F33274A
:100E4000442755274091B5026091C2028091B402B7
:100E50000E94970F9701442755274091B502609152
:100E6000C2028091B4020E94970F55274F2D3E2D4C
:100E70002D2D4091B5026091C2028091B4020E9472
:100E8000970F2C2D4091B5026091C2028091B4025F
:100E90000E94970F6D857E858F8598890E94EA1044
:100EA0006B017C01292F3327442755274091B50238
:100EB0006091C2028091B4020E94970F970144276B
:100EC00055274091B5026091C2028091B4020E9400
:100ED000970F55274F2D3E2D2D2D4091B502609136
:100EE000C2028091B4020E94970F2C2D4091B5024E
:100EF0006091C2028091B4020E94970F69897A8939
:100F00008B899C890E94EA106B017C01292F332771
:100F1000442755274091B5026091C2028091B402E6
:100F20000E94970F9701442755274091B502609181
:100F3000C2028091B4020E94970F55274F2D3E2D7B
:100F40002D2D4091B5026091C2028091B4020E94A1
:100F5000970F2C2D4091B5026091C2028091B4028E
:100F60000E94970F6D897E898F89988D0E94EA1063
:100F70006B017C01292F3327442755274091B50267
:100F80006091C2028091B4020E94970F970144279A
:100F900055274091B5026091C2028091B4020E942F
:100FA000970F55274F2D3E2D2D2D4091B502609165
:100FB000C2028091B4020E94970F2C2D4091B5027D
:100FC0006091C2028091B4020E94970F698D7A8D60
:100FD0008B8D9C8D0E94EA106B017C01292F332799
:100FE000442755274091B5026091C2028091B40216
:100FF0000E94970F9701442755274091B5026091B1
:10100000C2028091B4020E94970F55274F2D3E2DAA
:101010002D2D4091B5026091C2028091B4020E94D0
:10102000970F2C2D4091B5026091C2028091B402BD
:101030000E94970F6C960FB6F894DEBF0FBECDBF1F
:10104000DF91CF91FF90EF90DF90CF90BF90AF9066
:101050009F908F907F906F905F904F9008952F9208
:101060003F924F925F926F927F92AF92BF92CF92D8
:10107000DF92EF92FF920F931F93CF93DF93CDB741
:10108000DEB7E0970FB6F894DEBF0FBECDBF5C01B0
:101090008E010F5F1F4F1801005F1F4F61010F2E60
:1010A000F8E1EF2EF12CF02D4091B5026091C202D3
:1010B0008091B4020E94640F90E0A0E0B0E00E2C9A
:1010C00004C0880F991FAA1FBB1F0A94D2F7F6010C
:1010D00081939193A193B1936F01F8E0EF1AF10816
:1010E000C016D10609F74D815E816F8178858981AF
:1010F0009A81AB81BC81840F951FA61FB71F4985BC
:101100005A856B857C85840F951FA61FB71F4D855B
:101110005E856F8578892C013D01440E551E661E43
:10112000771E61010F2EF8E1EF2EF12CF02D40918A
:10113000B5026091C2028091B4020E94640F90E0F7
:10114000A0E0B0E00E2C04C0880F991FAA1FBB1F9F
:101150000A94D2F7F60181939193A193B1936F0111
:10116000F8E0EF1AF1080C151D0509F74D815E81B5
:101170006F81788589819A81AB81BC81480F591F25
:101180006A1F7B1F89859A85AB85BC85480F591FCF
:101190006A1F7B1F8D859E85AF85B8896A017B019B
:1011A000C80ED91EEA1EFB1EC701B6010E94191106
:1011B000698B7A8B8B8B9C8B61010F2EF8E1EF2E64
:1011C000F12CF02D4091B5026091C2028091B402E1
:1011D0000E94640F90E0A0E0B0E00E2C04C0880FE5
:1011E000991FAA1FBB1F0A94D2F7F601819391930E
:1011F000A193B1936F01F8E0EF1AF1080C151D05EA
:1012000009F74D815E816F81788589819A81AB81F3
:10121000BC81480F591F6A1F7B1F89859A85AB8542
:10122000BC85480F591F6A1F7B1F8D859E85AF8522
:10123000B8896A017B01C80ED91EEA1EFB1EC701D0
:10124000B6010E9419116D8B7E8B8F8B988F610177
:101250000F2EF8E1EF2EF12CF02D4091B5026091A8
:10126000C2028091B4020E94640F90E0A0E0B0E05E
:101270000E2C04C0880F991FAA1FBB1F0A94D2F717
:10128000F60181939193A193B1936F01F8E0EF1A66
:10129000F1080C151D0509F74D815E816F81788578
:1012A00089819A81AB81BC81480F591F6A1F7B1FBE
:1012B00089859A85AB85BC85480F591F6A1F7B1F9E
:1012C0008D859E85AF85B8896A017B01C80ED91EC0
:1012D000EA1EFB1EC701B6010E941911698F7A8FA1
:1012E0008B8F9C8F61010F2EF8E1EF2EF12CF02DEA
:1012F0004091B5026091C2028091B4020E94640FD5
:1013000090E0A0E0B0E00E2C04C0880F991FAA1F47
:10131000BB1F0A94D2F7F60181939193A193B193E5
:101320006F01F8E0EF1AF1080C151D0509F74D8162
:101330005E816F81788589819A81AB81BC81480FFC
:10134000591F6A1F7B1F89859A85AB85BC85480F0D
:10135000591F6A1F7B1F8D859E85AF85B8896A01DD
:101360007B01C80ED91EEA1EFB1EC701B6010E94F2
:1013700019116D8F7E8F8F8F98A361010F2EF8E169
:10138000EF2EF12CF02D4091B5026091C2028091B8
:10139000B4020E94640F90E0A0E0B0E00E2C04C004
:1013A000880F991FAA1FBB1F0A94D2F7F6018193D9
:1013B0009193A193B1936F01F8E0EF1AF1080C1526
:1013C0001D0509F74D815E816F81788589819A813C
:1013D000AB81BC81480F591F6A1F7B1F89859A8585
:1013E000AB85BC85480F591F6A1F7B1F8D859E8565
:1013F000AF85B8896A017B01C80ED91EEA1EFB1EA3
:10140000C701B6010E94191169A37AA38BA39CA3FB
:1014100061010F2EF8E1EF2EF12CF02D4091B50275
:101420006091C2028091B4020E94640F90E0A0E03B
:10143000B0E00E2C04C0880F991FAA1FBB1F0A948E
:10144000D2F7F60181939193A193B1936F01F8E0E4
:10145000EF1AF1080C151D0509F74D815E816F81AA
:10146000788589819A81AB81BC81480F591F6A1F99
:101470007B1F89859A85AB85BC85480F591F6A1FDC
:101480007B1F8D859E85AF85B8896A017B01C80E5B
:10149000D91EEA1EFB1EC701B6010E9419116DA3D9
:1014A0007EA38FA398A761010F2EF8E1EF2EF12CF8
:1014B000F02D4091B5026091C2028091B4020E9469
:1014C000640F90E0A0E0B0E00E2C04C0880F991FDC
:1014D000AA1FBB1F0A94D2F7F60181939193A1939F
:1014E000B1936F01F8E0EF1AF1080C151D0509F72B
:1014F0004D815E816F81788589819A81AB81BC81C4
:10150000480F591F6A1F7B1F89859A85AB85BC854B
:10151000480F591F6A1F7B1F8D859E85AF85B8892F
:101520006A017B01C80ED91EEA1EFB1EC701B60167
:101530000E94191169A77AA78BA79CA761010F2E9A
:10154000F8E1EF2EF12CF02D4091B5026091C2022E
:101550008091B4020E94640F90E0A0E0B0E00E2CF5
:1015600004C0880F991FAA1FBB1F0A94D2F7F60167
:1015700081939193A193B1936F01F8E0EF1AF10871
:101580000C151D0509F74D815E816F817885898174
:101590009A81AB81BC81480F591F6A1F7B1F8985C7
:1015A0009A85AB85BC85480F591F6A1F7B1F8D85A7
:1015B0009E85AF85B8896A017B01C80ED91EEA1ED7
:1015C000FB1EC701B6010E9419116DA77EA78FA748
:1015D00098AB0F2EF8E1EF2EF12CF02D4091B502D3
:1015E0006091C2028091B4020E94640F90E0A0E07A
:1015F000B0E00E2C04C0880F991FAA1FBB1F0A94CD
:10160000D2F7F10181939193A193B1931F01F8E077
:10161000EF1AF1080215130509F74D815E816F81FC
:10162000788589819A81AB81BC81480F591F6A1FD7
:101630007B1F89859A85AB85BC85480F591F6A1F1A
:101640007B1F8D859E85AF85B8896A017B01C80E99
:10165000D91EEA1EFB1EC701B6010E941911F50131
:101660004082518262827382C988DA88EB88FC8862
:10167000C482D582E682F782CD88DE88EF88F88C36
:10168000C086D186E286F386C98CDA8CEB8CFC8C22
:10169000C486D586E686F786CD8CDE8CEF8CF8A0E6
:1016A000C08AD18AE28AF38AC9A0DAA0EBA0FCA0A2
:1016B000C48AD58AE68AF78ACDA0DEA0EFA0F8A476
:1016C000C08ED18EE28EF38EC9A4DAA4EBA4FCA462
:1016D000C48ED58EE68EF78ECDA4DEA4EFA4F8A836
:1016E000C0A2D1A2E2A2F3A264A375A386A397A38A
:1016F000C501E0960FB6F894DEBF0FBECDBFDF91F7
:10170000CF911F910F91FF90EF90DF90CF90BF90FE
:10171000AF907F906F905F904F903F902F90089583
:101720001092C2021092B50281E08093B402089533
:101730004F925F926F927F929F92AF92BF92CF92A1
:10174000DF92EF92FF920F931F93CF93DF93CDB76A
:10175000DEB7C85AD1090FB6F894DEBF0FBECDBFB1
:101760000E94900B8DE691E00E94D80F10928A02A1
:1017700010928B0210928C0210928D0280918A023C
:1017800090918B02A0918C02B0918D02803395478D
:10179000A105B10508F0BBC0A12CB12C0F2EF4E6B9
:1017A0004F2E512C612C712CF02D0F2EFEE8CF2ED8
:1017B000F2E0DF2EF02D0F2EF2EAEF2EF2E0FF2EF8
:1017C000F02D06EB12E00F2EF8E29F2EF02D87E2AF
:1017D00090EA0197F1F700C0000060918A027091D1
:1017E0008B0280918C0290918D02A30192010E9444
:1017F0009015672B682B692B21F489E891E00E94F2
:10180000D80F82E00E94280380918A0290918B0277
:10181000A0918C02B0918D0289839A83AB83BC83A3
:10182000F60180819181A281B3818D839E83AF83F4
:10183000B88784819581A681B78189879A87AB878C
:10184000BC8780859185A285B3858D879E87AF876C
:10185000B88BF70180819181A281B381898B9A8BAA
:10186000AB8BBC8B84819581A681B7818D8B9E8B40
:10187000AF8BB88F80859185A285B385898F9A8F2C
:10188000AB8FBC8FF80180819181A281B3818D8F54
:101890009E8FAF8FB8A384819581A681B78189A3DC
:1018A0009AA3ABA3BCA380859185A285B3858DA3A4
:1018B0009EA3AFA3B8A72DB73EB7285231090FB6E4
:1018C000F8943EBF0FBE2DBFADB7BEB71196FE0157
:1018D0003196892D01900D928A95E1F70E94B80505
:1018E0003FEFA31AB30A80918A0290918B02A091D4
:1018F0008C02B0918D020FB6F894DEBF0FBECDBF43
:1019000080339547A105B10508F461CF02C0A12C31
:10191000B12C8EE891E00E94D80F8E01075D1F4F19
:1019200080E8F801282F11922A95E9F7BF92AF922B
:101930002EE931E03F932F931F928F931F930F93C4
:101940000E940F17C8010E94D80F0FB6F894DEBF8F
:101950000FBECDBFC501C855DF4F0FB6F894DEBF2F
:101960000FBECDBFDF91CF911F910F91FF90EF90F0
:10197000DF90CF90BF90AF909F907F906F905F90DF
:101980004F900895BF92CF92DF92EF92FF920F9304
:101990001F93CF93DF93CDB7DEB7C058D1090FB6F1
:1019A000F894DEBF0FBECDBFC457DF4FF880CC58D0
:1019B000D040C357DF4FE880CD58D040C257DF4FEB
:1019C000D880CE58D040C157DF4FC880CF58D040C4
:1019D0006894BB24B7F88E010F5F1F4FF8018B2D61
:1019E00011928A95E9F7C556DF4F8881CB59D040CF
:1019F0008F93C656DF4F8881CA59D0408F93C75600
:101A0000DF4F8881C959D0408F93C856DF4F8881F6
:101A1000C859D0408F93CF92DF92EF92FF92C95670
:101A2000DF4F8881C759D0408F93CA56DF4F8881D6
:101A3000C659D0408F93CB56DF4F8881C559D040CF
:101A40008F93CC56DF4F8881C459D0408F93CF926B
:101A5000DF92EF92FF92CD56DF4F8881C359D0407D
:101A60008F93CE56DF4F8881C259D0408F93CF5687
:101A7000DF4F8881C159D0408F93C057DF4F888195
:101A8000C059D0408F93CF92DF92EF92FF9283EDB7
:101A900091E09F938F931F92BF921F930F930E9489
:101AA0000F17C8010E94D80FF8018B2D11928A954B
:101AB000E9F7C955DF4F8881C75AD0408F93CA557F
:101AC000DF4F8881C65AD0408F93CB55DF4F888136
:101AD000C55AD0408F93CC55DF4F8881C45AD0402F
:101AE0008F93CF92DF92EF92FF92CD55DF4F888197
:101AF000C35AD0408F93CE55DF4F8881C25AD04011
:101B00008F93CF55DF4F8881C15AD0408F93C056F5
:101B1000DF4F8881C05AD0408F93CF92DF92EF92EF
:101B2000FF92C156DF4F8881CF59D0408F93C25664
:101B3000DF4F8881CE59D0408F93C356DF4F8881C5
:101B4000CD59D0408F93C456DF4F8881CC59D040B7
:101B50008F93CF92DF92EF92FF928FEE91E09F935F
:101B60008F931F92BF921F930F930E940F170FB670
:101B7000F894DEBF0FBECDBFC8010E94D80FF80198
:101B80008B2D11928A95E9F7CD54DF4F8881C35B85
:101B9000D0408F93CE54DF4F8881C25BD0408F936B
:101BA000CF54DF4F8881C15BD0408F93C055DF4F4A
:101BB0008881C05BD0408F93CF92DF92EF92FF92EB
:101BC000C155DF4F8881CF5AD0408F93C255DF4F28
:101BD0008881CE5AD0408F93C355DF4F8881CD5A2C
:101BE000D0408F93C455DF4F8881CC5AD0408F931B
:101BF000CF92DF92EF92FF92C555DF4F8881CB5A8B
:101C0000D0408F93C655DF4F8881CA5AD0408F93FA
:101C1000C755DF4F8881C95AD0408F93C855DF4FD1
:101C20008881C85AD0408F93CF92DF92EF92FF9273
:101C30008BE092E09F938F931F92BF921F930F931D
:101C40000E940F17C8010E94D80F0FB6F894DEBF8C
:101C50000FBECDBFC058DF4F0FB6F894DEBF0FBE2A
:101C6000CDBFDF91CF911F910F91FF90EF90DF904B
:101C7000CF90BF900895DF92EF92FF920F931F9342
:101C8000CF93DF93CDB7DEB7A8970FB6F894DEBF3A
:101C90000FBECDBF7C0185E692E00E94D80F80E6A2
:101CA00091E00E94D80F0E94900BFF2044F100E0C9
:101CB00010E00F2EF8E2DF2EF02DCE0101960E94EB
:101CC0002F088DB79EB788970FB6F8949EBF0FBEAA
:101CD0008DBFADB7BEB71196FE0131968D2D019027
:101CE0000D928A95E1F70E94C20C0F5F1F4F0FB64D
:101CF000F894DEBF0FBECDBFE016F106F4F6A8964D
:101D00000FB6F894DEBF0FBECDBFDF91CF911F910C
:101D10000F91FF90EF90DF900895823049F018F412
:101D2000882361F00895863039F0873019F00895DE
:101D30002A9808952F9808952E9808954098089508
:101D4000823049F018F4882361F00895863039F024
:101D5000873019F008952A9A08952F9A08952E9A97
:101D60000895409A089584B18E6E84B982E00E94ED
:101D7000A00E87E00E94A00E86E00E94A00E389A76
:101D8000409A1CBC8DE58CBD1DBC08951F93CF935C
:101D9000DF93C82F162FD42F0E948D0E1EBD00007A
:101DA0000DB407FEFDCF8EB5DEBD00000DB407FEFD
:101DB000FDCFDEB58C2F0E94A00E85E88A95F1F745
:101DC00000008D2F90E0DF91CF911F910895EF9249
:101DD000FF921F93CF93DF93182FD62FC42F790133
:101DE0000E948D0ED068DEBD00000DB407FEFDCF51
:101DF0008EB54C2F50E04115510571F0F701970158
:101E0000240F351F1EBC00000DB407FEFDCF9EB58C
:101E10009193E217F307B1F7812F0E94A00E85E896
:101E20008A95F1F70000DF91CF911F91FF90EF901D
:101E30000895CF931092B4021092C2021092B5028C
:101E400080E00E948D0E81E08EBD00000DB407FE83
:101E5000FDCF8EB51EBC00000DB407FEFDCF8EB5C4
:101E600085E08EBD00000DB407FEFDCFCEB580E04D
:101E70000E94A00E81E0C11180E0CF910895809171
:101E8000B4028F3FE9F48091C2028F3F49F4809100
:101E9000B502813029F485E792E00E94D80FFFCF88
:101EA0001092B4028091C2028F3F31F41092C202AC
:101EB00081E08093B50208958F5F8093C2020895F8
:101EC0008F5F8093B40208951F93CF93DF93C82F41
:101ED000D62F142F80E00E948D0E83E08EBD00006F
:101EE0000DB407FEFDCF8EB51EBD00000DB407FE7C
:101EF000FDCF8EB5DEBD00000DB407FEFDCF8EB563
:101F0000CEBD00000DB407FEFDCF8EB58FEF8EBDA8
:101F100000000DB407FEFDCFCEB580E00E94A00EFC
:101F20000E943F0F8C2FDF91CF911F9108950F9347
:101F30001F93CF93DF93D82F162F042FC22F80E04B
:101F40000E948D0E82E08EBD00000DB407FEFDCF15
:101F50008EB50EBD00000DB407FEFDCF8EB51EBDC3
:101F600000000DB407FEFDCF8EB5DEBD00000DB440
:101F700007FEFDCF8EB5CEBD00000DB407FEFDCF30
:101F80008EB580E00E94A00E0E943F0FDF91CF919E
:101F90001F910F910895E0ECF0E0908195FFFDCF47
:101FA0008093C600E0ECF0E0808185FFFDCF0895CE
:101FB000CF93DF93EC018881882331F021960E9432
:101FC000CB0F89918111FBCFDF91CF910895E1EC87
:101FD000F0E0808188618083E2ECF0E080818660BF
:101FE0008083E0ECF0E08081826080831092C50005
:101FF00088E08093C40008958AE090E0E0ECF0E08F
:1020000002C0019731F020812223DCF78091C600C5
:10201000089580E008955058BB27AA270E942310F6
:102020000C946D110E945F1138F00E94661120F02F
:1020300039F49F3F19F426F40C945C110EF4E095EA
:10204000E7FB0C945611E92F0E947E1158F3BA1742
:10205000620773078407950720F079F4A6F50C94BE
:10206000A0110EF4E0950B2EBA2FA02D0B01B90193
:1020700090010C01CA01A0011124FF27591B99F0FE
:10208000593F50F4503E68F11A16F040A22F232F0A
:10209000342F4427585FF3CF469537952795A7955A
:1020A000F0405395C9F77EF41F16BA0B620B730B01
:1020B000840BBAF09150A1F0FF0FBB1F661F771F72
:1020C000881FC2F70EC0BA0F621F731F841F48F427
:1020D000879577956795B795F7959E3F08F0B0CFB0
:1020E0009395880F08F09927EE0F97958795089597
:1020F0000E948C100C946D110E94661158F00E9481
:102100005F1140F029F45F3F29F00C9456115111F2
:102110000C94A1110C945C110E947E1168F3992318
:10212000B1F3552391F3951B550BBB27AA276217D3
:102130007307840738F09F5F5F4F220F331F441FE0
:10214000AA1FA9F335D00E2E3AF0E0E832D0915014
:102150005040E695001CCAF72BD0FE2F29D0660F01
:10216000771F881FBB1F261737074807AB07B0E844
:1021700009F0BB0B802DBF01FF2793585F4F3AF04A
:102180009E3F510578F00C9456110C94A1115F3FBD
:10219000E4F3983ED4F3869577956795B795F795D0
:1021A0009F5FC9F7880F911D9695879597F90895B8
:1021B000E1E0660F771F881FBB1F62177307840754
:1021C000BA0720F0621B730B840BBA0BEE1F88F763
:1021D000E09508950E94861188F09F5798F0B92FD6
:1021E0009927B751B0F0E1F0660F771F881F991F4C
:1021F0001AF0BA95C9F714C0B13091F00E94A0113D
:10220000B1E008950C94A011672F782F8827B85F4C
:1022100039F0B93FCCF3869577956795B395D9F7A3
:102220003EF490958095709561957F4F8F4F9F4FAD
:102230000895E89409C097FB3EF4909580957095B9
:1022400061957F4F8F4F9F4F9923A9F0F92F96E902
:10225000BB279395F695879577956795B795F11177
:10226000F8CFFAF4BB0F11F460FF1BC06F5F7F4F14
:102270008F4F9F4F16C0882311F096E911C0772326
:1022800021F09EE8872F762F05C0662371F096E82F
:10229000862F70E060E02AF09A95660F771F881FFE
:1022A000DAF7880F9695879597F9089597F99F67BC
:1022B00080E870E060E008959FEF80EC08950024CE
:1022C0000A941616170618060906089500240A949B
:1022D00012161306140605060895092E0394000C21
:1022E00011F4882352F0BB0F40F4BF2B11F460FFB0
:1022F00004C06F5F7F4F8F4F9F4F089557FD9058D9
:10230000440F551F59F05F3F71F04795880F97FBB9
:10231000991F61F09F3F79F0879508951216130673
:102320001406551FF2CF4695F1DF08C016161706A2
:102330001806991FF1CF86957105610508940895D7
:10234000E894BB2766277727CB0197F908950E9469
:10235000BA110C946D110E945F1138F00E94661141
:1023600020F0952311F00C9456110C945C1111245B
:102370000C94A1110E947E1170F3959FC1F3950FEB
:1023800050E0551F629FF001729FBB27F00DB11DF9
:10239000639FAA27F00DB11DAA1F649F6627B00D89
:1023A000A11D661F829F2227B00DA11D621F739F72
:1023B000B00DA11D621F839FA00D611D221F749F80
:1023C0003327A00D611D231F849F600D211D822FC7
:1023D000762F6A2F11249F5750409AF0F1F08823EE
:1023E0004AF0EE0FFF1FBB1F661F771F881F91501B
:1023F0005040A9F79E3F510580F00C9456110C9463
:10240000A1115F3FE4F3983ED4F3869577956795E5
:10241000B795F795E7959F5FC1F7FE2B880F911D44
:102420009695879597F90895A3E1B0E0EAE1F2E186
:102430000C94B2156C014B012A01FC011782168223
:10244000838181FF43C3AE014F5F5F4F3A01F601C5
:102450009381F40193FD859193FF81914F0188232E
:1024600009F430C3853239F493FD859193FF81914E
:102470004F01853239F4B60190E00E94D71652011F
:102480002501E5CF10E0F12C20E02032A0F48B32C2
:1024900069F030F4803259F0833269F420612CC045
:1024A0008D3239F0803339F4216026C022602460F7
:1024B00023C0286021C027FD27C030ED380F3A30F7
:1024C00078F426FF06C0FAE01F9F300D1124132F69
:1024D00013C04AE0F49E300D1124F32E20620CC08C
:1024E0008E3221F426FDEEC2206406C08C3611F433
:1024F000206802C0883641F4F40193FD859193FF72
:1025000081914F018111C1CF9BEB980F933018F44B
:102510002061805E06C09BE9980F933008F071C17E
:102520002F7E26FF16E02F73322E853619F4206495
:10253000322E08C0863621F4F22FF0683F2E02C0FA
:102540001111115037FE07C01C3350F4EE24E394F0
:10255000E10E27E00BC0183038F027E017E005C087
:1025600027E04CE3E42E02C0212FE12C520144E08D
:10257000A40EB11CF20160817181828193810E2DC4
:10258000A3010E94E9152C01098100FF02C003FF8D
:1025900007C031FC08C032FE09C030E2232E07C05C
:1025A0002DE2222E04C09BE2292E01C0212C802F77
:1025B0008C7019F0211068C2A8C237FE0FC0E40C5D
:1025C00004FF04C08A81813309F4EA941E1474F56F
:1025D000F8E0FE1578F588E0E82E2CC036FC2AC01D
:1025E000812F90E0841595059CF02CEF42162FEF7B
:1025F000520674F0432D4068342E0AC0E2E0F0E049
:10260000EC0FFD1FE10FF11D8081803319F4115093
:102610001111F4CF37FE0EC0EE24E394E10E812FAA
:1026200090E0481659062CF4141904C0EE24E394E3
:1026300001C010E037FE06C01414150434F4C201C2
:10264000019605C085E090E002C081E090E0211095
:102650000196112331F0212F30E02F5F3F4F820F81
:10266000931F2F2D30E08217930714F4F81A01C03E
:10267000F12C832D897049F4FF2039F0B60180E2F6
:1026800090E00E94D716FA94F7CF222029F0B601E5
:10269000822D90E00E94D71633FC09C0FF2039F04C
:1026A000B60180E390E00E94D716FA94F7CF37FE88
:1026B0005AC0942D852D57FE02C090E080E0292E4F
:1026C000382E20E030E0A2014E1951095D874C8779
:1026D000A201421953095F874E87612F70E044279A
:1026E0005527461B570B598B488B5FEF2516350630
:1026F00049F4B6018EE290E02A8B3B8B0E94D716FC
:102700003B892A89421453046CF04C855D8542153F
:10271000530544F4EE85FF85E20FF31FE60DF71D28
:10272000818101C080E351E0251A31082F5F3F4FBE
:1027300048895989241635064CF0B60190E02A8B59
:102740003B8B0E94D7162A893B89CFCF24143504AE
:1027500039F49A81963318F4953311F404FF81E328
:10276000B60190E04BC08A81813309F00F7EB6013B
:1027700090E00E94D716111105C034FC18C085E600
:1027800090E017C0B6018EE290E00E94D71682E07A
:10279000EE24E394E80EF301E80FF11D8081B60109
:1027A00090E00E94D71611508E2D91F7E6CF85E468
:1027B00090E0B6010E94D71657FC05C041145104A1
:1027C00039F404FF05C05194419451088DE201C0D1
:1027D0008BE2B60190E00E94D71680E39AE049169A
:1027E00051042CF08F5F5AE0451A5108F7CFB6011B
:1027F00090E00E94D716B601C201C0960E94D7167B
:1028000057C1833631F0833779F0833509F058C0EA
:1028100021C05201E2E0AE0EB11CF2018081898339
:1028200001E010E0230114C05201F2E0AF0EB11C30
:10283000F2014080518026FF03C0612F70E002C08A
:102840006FEF7FEFC2012A8B0E94CC168C012A8980
:102850002F7715C05201F2E0AF0EB11CF20140809B
:10286000518026FF03C0612F70E002C06FEF7FEF41
:10287000C2012A8B0E94C1168C012A892068322E3F
:1028800023FD1AC08F2D90E008171907A8F4B60190
:1028900080E290E00E94D716FA94F4CFF20137FC60
:1028A000859137FE81912F01B60190E00E94D716E5
:1028B000F110FA94015011090115110579F7F8C0CA
:1028C000843611F0893659F5520127FF09C0F4E02A
:1028D000AF0EB11CF20160817181828193810AC0C7
:1028E000F2E0AF0EB11CF20160817181072E000C85
:1028F000880B990B2F76322E97FF09C09095809503
:10290000709561957F4F8F4F9F4F2068322E2AE040
:1029100030E0A3010E943F17E82EE6183FC0022FC7
:10292000853721F40F7E2AE030E01DC0097F8F3605
:1029300091F018F4883559F0C5C0803719F0883700
:1029400011F0C0C0006104FF09C0046007C024FF8B
:1029500008C0066006C028E030E005C020E130E095
:1029600002C020E132E0520107FF09C0F4E0AF0EDF
:10297000B11CF201608171818281938108C0F2E013
:10298000AF0EB11CF2016081718180E090E0A30183
:102990000E943F17E82EE6180F77302E36FE0BC048
:1029A000332D3E7FE11650F434FE0AC032FC08C0DD
:1029B000332D3E7E05C00E2D332D03C00E2D01C0DC
:1029C000012F34FF0CC0FE01EE0DF11D808180331C
:1029D00011F4397E08C032FF05C00E5F04C0832F9A
:1029E000867809F00F5F33FD13C030FF06C01E2D3F
:1029F0000F1518F41F0D101B0F2D0F1568F4B601DD
:102A000080E290E03B8B0E94D7160F5F3B89F5CFA9
:102A10000F1510F4F01A01C0F12C34FF12C0B601EA
:102A200080E390E03B8B0E94D7163B8932FF17C0B2
:102A300031FD03C088E790E002C088E590E0B60170
:102A40000CC0832F867859F031FF02C08BE201C0A1
:102A500080E237FD8DE2B60190E00E94D716E116C4
:102A600038F4B60180E390E00E94D7161150F7CFFA
:102A7000EA94F301EE0DF11D8081B60190E00E9411
:102A8000D716E110F5CF14C0F4E0FF1558F584E037
:102A9000F81A33FE1EC0211026C003FF2AC008E624
:102AA00010E0F32DF0713F2EF8018491811124C0C4
:102AB000FF2009F4E5CCB60180E290E00E94D71631
:102AC000FA94F6CFF6018681978126C08FEF9FEFAB
:102AD00023C0B60180E290E00E94D716FA94F1106C
:102AE000F8CFD9CFF12CB601822D90E00E94D716F5
:102AF000D4CF0CE610E0D5CF31108052B60190E073
:102B00000E94D7160F5F1F4FCFCF23E02F1510F471
:102B100083E0BECFF12CC1CF6396E2E10C94CE15D9
:102B2000A1E21A2EAA1BBB1BFD010DC0AA1FBB1FD1
:102B3000EE1FFF1FA217B307E407F50720F0A21B43
:102B4000B30BE40BF50B661F771F881F991F1A94B0
:102B500069F760957095809590959B01AC01BD01DA
:102B6000CF0108952F923F924F925F926F927F9282
:102B70008F929F92AF92BF92CF92DF92EF92FF928D
:102B80000F931F93CF93DF93CDB7DEB7CA1BDB0B39
:102B90000FB6F894DEBF0FBECDBF09942A883988DE
:102BA00048885F846E847D848C849B84AA84B984E5
:102BB000C884DF80EE80FD800C811B81AA81B981F1
:102BC000CE0FD11D0FB6F894DEBF0FBECDBFED0105
:102BD0000895283008F027E03327DA01990F311DD6
:102BE00087FD916000966105710539F432602E5FB2
:102BF0003D9330E32A95E1F708959F3F30F0803808
:102C00007105610509F03C5F3C5F3D93913008F030
:102C10008068911DDF93CF931F930F93FF92EF92E4
:102C2000192F987F9695E92F96959695E90FFF278E
:102C3000E653FF4F99273327EE24FF24A701E7012E
:102C400005900894079428F4360FE71EF81E491FD4
:102C5000511D660F771F881F991F0694A1F70590D5
:102C6000079428F4E70EF81E491F561FC11D770F61
:102C7000881F991F661F0694A1F70590079428F4F2
:102C8000F80E491F561FC71FD11D880F991F661FB9
:102C9000771F0694A1F70590079420F4490F561F5B
:102CA000C71FD81F990F661F771F881F0694A9F7A3
:102CB00084911095177041F0D695C7955795479513
:102CC000F794E7941A95C1F7E0E7F0E0689415905F
:102CD000159135916591959105907FE27395E11875
:102CE000F10A430B560BC90BD009C0F7E10CF11EDA
:102CF000431F561FC91FD01D7EF4703311F48A95EF
:102D0000E6CFE894015030F0080F0AF400270217CC
:102D100008F4202F2395022F7A3328F079E37D934E
:102D20002A95E9F710C07D932A9589F60694979520
:102D30006795379517951794E118F10A430B560BD1
:102D4000C90BD00998F023957E9173957A3308F0DA
:102D500070E37C932013B8F77E9170617D9330F01F
:102D6000839571E37D9370E32A95E1F71124EF9049
:102D7000FF900F911F91CF91DF91992787FD90953B
:102D80000895FC010590615070400110D8F78095BE
:102D900090958E0F9F1F0895FC0161507040019027
:102DA0000110D8F7809590958E0F9F1F08950F936F
:102DB0001F93CF93DF93FB01238121FD03C08FEF8E
:102DC0009FEF28C022FF16C046815781248135819C
:102DD0004217530744F4A081B1819D012F5F3F4FFB
:102DE000318320838C93268137812F5F3F4F378338
:102DF000268310C0EB01092F182F0084F185E02DE8
:102E00000995892BE1F68E819F8101969F838E83A0
:102E1000812F902FDF91CF911F910F910895AEE0F8
:102E2000B0E0E5E1F7E10C94C0150D891E898F89AA
:102E3000988D26E02C831A83098397FF02C080E0D7
:102E400090E801979E838D83AE01455E5F4F698D4B
:102E50007A8DCE0101960E9414124D815E8157FD3C
:102E60000AC02F813885421753070CF49A01F801E4
:102E7000E20FF31F10822E96E4E00C94DC15FA01A9
:102E8000AA27283051F1203181F1E8946F936E7FA9
:102E90006E5F7F4F8F4F9F4FAF4FB1E03ED0B4E09A
:102EA0003CD0670F781F891F9A1FA11D680F791FDB
:102EB0008A1F911DA11D6A0F711D811D911DA11DEC
:102EC00020D009F468943F912AE0269F11243019FC
:102ED000305D3193DEF6CF010895462F4770405D97
:102EE0004193B3E00FD0C9F7F6CF462F4F70405D46
:102EF0004A3318F0495D31FD4052419302D0A9F7A1
:102F0000EACFB4E0A6959795879577956795BA959A
:102F1000C9F700976105710508959B01AC010A2E60
:102F200006945795479537952795BA95C9F7620F37
:0E2F3000731F841F951FA01D0895F894FFCFF6
:102F3E002A547372616D5F696E69742050415353E8
:102F4E0045440A2A002A547372616D5F696E697472
:102F5E00204641494C45440A2A002A547372616D39
:102F6E002077726974652F726561642050415353E6
:102F7E0045440A2A002A547372616D20777269746F
:102F8E00652F72656164204641494C45440A2A000A
:102F9E002A48432A2A4A432A2A4B432A002A540AF9
:102FAE005374617274696E672057696E646F77200F
:102FBE007265636F72640A2A002A542E2A002A54FC
:102FCE000A456E642077696E646F770A2A002A5468
:102FDE00436F756E742069733A2025642A002A5453
:102FEE005374617274696E67204D656D20746573DC
:102FFE00742A002A5474696D652069733A20256C11
:10300E00752A002A4858256C755925662C58256C4A
:10301E00755925662C58256C755925662A0A002A7D
:10302E004A58256C755925662C58256C7559256698
:10303E002C58256C755925662A0A002A4B58256C82
:10304E00755925662C58256C755925662C58256C96
:10305E00755925662A0A002A545265636F7264698F
:10306E006E672E2E2E2E2A002A532A2A54446F6E55
:10307E00653A25640A2A002A544C6976652E2E2E4E
:10308E002E2A002A54583A256620593A2566205A87
:10309E003A25662A002A5472656164696E67206259
:1030AE0061636B2A002A544D656D6F7279204F76DD
:0A30BE00657220466C6F772A00004F
:00000001FF
