S014000053656E736F725F426F6172642E737265634F
S11300000C94B5000C94D2000C94D2000C94D20041
S11300100C94D2000C94D2000C94D2000C94D20014
S11300200C94D2000C94B0010C94D2000C94D20025
S11300300C94D2000C94D2000C94D2000C94D200F4
S11300400C94D2000C94D2000C94D2000C94D200E4
S11300500C94D2000C94D2000C94D2000C94D200D4
S11300600C94D2000C94D2006E616E00696E66002E
S113007000407A10F35A00A0724E18090010A5D45B
S1130080E80000E87648170000E40B54020000CAB8
S11300909A3B000000E1F5050000809698000000FE
S11300A040420F000000A08601000000102700005D
S11300B00000E803000000006400000000000A00E3
S11300C0000000000100000000002C76D888DC67E6
S11300D04F0823DFC1DFAE59E1B1B796E5E3E4533E
S11300E0C63AE651997696E8E6C28426EB898C9B5B
S11300F062ED407C6FFCEFBC9C9F40F2BAA56FA5FB
S1130100F490055A2AF75C936B6CF9676DC11BFC7C
S1130110E0E40D47FEF520E6B500D0ED902E030097
S1130120943577050080841E080000204E0A0000E4
S113013000C80C333333330F986E12831141EF8DA3
S11301402114893BE65516CFFEE6DB18D1844B38E3
S11301501BF77C1D901DA4BBE424203284725E2214
S11301608100C9F124ECA1E53D2711241FBECFEF86
S1130170D8E0DEBFCDBF11E0A0E0B1E0E0E3F0E203
S113018002C005900D92A03BB107D9F721E0A0EB86
S1130190B1E001C01D92AA3FB207E1F70E94D50168
S11301A00C9416100C9400008AB1806E8AB98BB13D
S11301B0806C8BB90895613019F138F0623009F41C
S11301C06BC0643009F483C008954BB121E030E082
S11301D0B90102C0660F771F8A95E2F7CB01962F0B
S11301E0909594239BB97FEF21EE34E07150204029
S11301F03040E1F700C000009BB1892B8BB9089512
S11302004BB121E030E0B90102C0660F771F8A9537
S1130210E2F7CB01262F2095922F94239BB97FEFF1
S113022031EE44E0715030404040E1F700C000003E
S11302309BB1982B9BB95FEF61EE74E05150604025
S11302407040E1F700C000009BB192239BB93FEFDF
S113025041EE54E0315040405040E1F700C000000E
S11302609BB1982B9BB96FEF71EE34E061507040F5
S11302703040E1F700C000009BB192239BB94FEFDF
S113028051EE64E0415050406040E1F700C000008E
S11302909BB1892B8BB908954BB121E030E0B901B2
S11302A002C0660F771F8A95E2F7CB01962F9095CF
S11302B094239BB97FEF29E638E171502040304008
S11302C0E1F700C000009BB1892B8BB908955F98BA
S11302D04FEF51EE64E0415050406040E1F700C000
S11302E000005F9A8FE19EE40197F1F700C00000DF
S11302F05E989FEF21EE34E0915020403040E1F7CA
S113030000C000005E9A5F984FEF51EE64E04150E8
S113031050406040E1F700C000005F9A8FE19EE426
S11303200197F1F700C000005E989FEF21EE34E0E2
S1130330915020403040E1F700C000005E9A0895DB
S1130340E6EBF0E080818083E0E7F0E010828081DA
S1130350816080831092B00083E08093B10008959F
S11303601F920F920FB60F9211248F939F93AF9306
S1130370BF938091B0019091B101A091B201B0916D
S1130380B3010196A11DB11D8093B0019093B101F9
S1130390A093B201B093B301BF91AF919F918F919C
S11303A00F900FBE0F901F901895CF93DF93CDB78A
S11303B0DEB7CE59D1090FB6F894DEBF0FBECDBF5C
S11303C08FE19EE40197F1F700C0000078940E9449
S11303D046089AE19A95F1F700C00E94D4000E9461
S11303E0C5080E94A001AFE1BEE41197F1F700C077
S11303F0000041E050E061E070E082E00E94790793
S113040061E086E00E94DB0082E00E947A058C01B4
S1130410EFE1FEE43197F1F700C0000068E170E01D
S113042082E00E940E077C018FE19EE40197F1F7C0
S113043000C0000068E170E082E00E94A3065C0155
S1130440AFE1BEE41197F1F700C0000082E00E9422
S11304507F05EFE1FEE43197F1F700C0000090E87A
S11304609E012F5F3F4F6901D901E92F1D92EA9543
S1130470E9F7950133273F932F93970133273F9350
S11304802F931F928F93980133273F932F9320E04C
S113049031E03F932F931F929F93DF92CF920E945C
S11304A0880FC6010E94B6088FEC97E00197F1F718
S11304B000C0000082E00E9411059FEFA1E1BAE7AD
S11304C09150A040B040E1F700C000000FB6F8948E
S11304D0DEBF0FBECDBF6894772477F846010F2E98
S11304E0F4EBAF2EF1E0BF2EF02D0F2EF8ECCF2E53
S11304F0F1E0DF2EF02D0F2EFAEDEF2EF1E0FF2EBE
S1130500F02D3FEF80E792E0315080409040E1F7DA
S113051000C0000082E00E949C058091C7018F9377
S11305208091C6018F938091C5018F938091C401FE
S11305308F93A9E4B1E0BF93AF931F927F929F92F0
S11305408F920E94880FC4010E94B608D501BC9105
S1130550CF57DF4FB883C158D040F501F181C2565F
S1130560DF4FF883CE59D040D5011296FC911297F3
S113057013966C90139714965C90149715964C9060
S1130580159716963C90169717962C9017971896D1
S1130590BC91CE57DF4FB883C258D040D5011996CD
S11305A0BC91CD57DF4FB883C358D040D5011A96BC
S11305B0BC91CC57DF4FB883C458D040D5011B96AB
S11305C0BC91CB57DF4FB883C558D040D601BC91FE
S11305D0CA57DF4FB883C658D040D6011196BC9194
S11305E0C957DF4FB883C758D040D6011296BC9183
S11305F0C857DF4FB883C858D040D6011396BC9172
S1130600C757DF4FB883C958D040D6011496BC9160
S1130610C657DF4FB883CA58D040D6011596BC914F
S1130620C557DF4FB883CB58D040D6011696BC913E
S1130630C457DF4FB883CC58D040D6011796BC912D
S1130640C357DF4FB883CD58D040D6011896BC911C
S1130650C257DF4FB883CE58D040D6011996BC910B
S1130660C157DF4FB883CF58D040D6011A96BC91FA
S1130670C057DF4FB883C059D040D6011B96BC91F8
S1130680CF56DF4FB883C159D040D701BC91CE5665
S1130690DF4FB883C259D040D7011196BC91CD56D3
S11306A0DF4FB883C359D040D7011296BC91CC56C2
S11306B0DF4FB883C459D040D7011396BC91CB56B1
S11306C0DF4FB883C559D040D7011496BC91CA56A0
S11306D0DF4FB883C659D040D7011596BC91C9568F
S11306E0DF4FB883C759D040D7011696BC91C8567E
S11306F0DF4FB883C859D040D7011796BC91C7566D
S1130700DF4FB883C959D040D7011896BC91C6565B
S1130710DF4FB883CA59D040D7011996BC91C5564A
S1130720DF4FB883CB59D040D7011A96BC91C45639
S1130730DF4FB883CC59D040D7011B96BC91C35628
S1130740DF4FB883CD59D040D401E72D1D92EA95EF
S1130750E9F70091B0011091B1012091B2013091FB
S1130760B3014091B0015091B1016091B201709117
S1130770B3018091B0019091B101A091B201B09107
S1130780B301CB57DF4FE881C558D040EF93CC5726
S1130790DF4FE881C458D040EF93CD57DF4FE88155
S11307A0C358D040EF93CE57DF4FE881C258D040B2
S11307B0EF933F932F931F930F932F923F924F9258
S11307C05F927F936F935F934F936F92FF93C256A1
S11307D0DF4FF881CE59D040FF93CF57DF4F2881A8
S11307E0C158D0402F93BF93AF939F938F93ACE5A1
S11307F0B1E0BF93AF931F927F929F928F920E941A
S1130800880F0FB6F894DEBF0FBECDBFC4010E949F
S1130810B608D401E72D1D92EA95E9F70091B001DD
S11308201091B1012091B2013091B3014091B00116
S11308305091B1016091B2017091B3018091B00106
S11308409091B101A091B201B091B301CF56DF4FA5
S1130850F881C159D040FF93C057DF4FE881C05998
S1130860D040EF93C157DF4FF881CF58D040FF936A
S1130870C257DF4FE881CE58D040EF933F932F9378
S11308801F930F93C357DF4FF881CD58D040FF9388
S1130890C457DF4F2881CC58D0402F93C557DF4F22
S11308A03881CB58D0403F93C657DF4FE881CA58B0
S11308B0D040EF937F936F935F934F93C757DF4F6E
S11308C0F881C958D040FF93C857DF4F2881C858D2
S11308D0D0402F93C957DF4F3881C758D0403F933A
S11308E0CA57DF4FE881C658D040EF93BF93AF9308
S11308F09F938F93A8E7B1E0BF93AF931F927F922A
S11309009F928F920E94880FC4010E94B608D4015E
S1130910E72D1D92EA95E9F70091B0011091B1011C
S11309202091B2013091B3014091B0015091B101D5
S11309306091B2017091B3018091B0019091B101C5
S1130940A091B201B091B301C356DF4FF881CD59E4
S1130950D040FF93C456DF4FE881CC59D040EF9389
S1130960C556DF4FF881CB59D040FF93C656DF4FB1
S1130970E881CA59D040EF933F932F931F930F936D
S1130980C756DF4FF881C959D040FF93C856DF4F8F
S11309902881C859D0402F93C956DF4F3881C75991
S11309A0D0403F93CA56DF4FE881C659D040EF93F9
S11309B07F936F935F934F93CB56DF4FF881C55965
S11309C0D040FF93CC56DF4F2881C459D0402F9399
S11309D0CD56DF4F3881C359D0403F93CE56DF4FB9
S11309E0E881C259D040EF93BF93AF939F938F9305
S11309F0A4E9B1E0BF93AF931F927F929F928F922D
S1130A000E94880F0FB6F894DEBF0FBECDBFC4019D
S1130A100E94B6088FE59AEE0197F1F700C0000036
S1130A2070CDCF92DF92EF92FF920F931F93CF93EB
S1130A30DF9300D01F92CDB7DEB7182F4CE861E3E7
S1130A400E94560840E162E3812F0E94560843E861
S1130A5064E3812F0E94560887EC90E00197F1F738
S1130A6000C000009E012F5F3F4F43E069E4812FE7
S1130A700E947708FE0131967F010AEE11E00F2EE5
S1130A80F6EFCF2EF1E0DF2EF02DF70161917F011B
S1130A9070E080E090E00E94B40920E030E040E0A3
S1130AA053E40E94D50820E030E040E85BE30E9474
S1130AB0420A20E030E040E85FE30E94D6082AE9D9
S1130AC039E949E15EE30E94420AF80161937193B6
S1130AD0819391938F01EC15FD05B9F60F900F905A
S1130AE00F90DF91CF911F910F91FF90EF90DF90C6
S1130AF0CF90089540E065EF0E9456080895CF9383
S1130B00C82F4CE865E20E94560840E066E28C2F4C
S1130B100E94560841E867E28C2F0E94560887EC31
S1130B2090E00197F1F700C0000040E069EC8C2FE1
S1130B300E945608CF9108958F929F92AF92BF92D0
S1130B40CF92DF92EF92FF920F931F93CF93DF9395
S1130B50CDB7DEB765970FB6F894DEBF0FBECDBF35
S1130B60182F4CE865E20E94560843E066E2812FA4
S1130B700E94560847E867E2812F0E9456088FECCE
S1130B8097E00197F1F700C000009E012F5F3F4FEF
S1130B9045E16BE3812F0E9477088090F6019090E5
S1130BA0F701A090F801B090F9018E010E5F1F4F7C
S1130BB00F2EF4EBEF2EF1E0FF2EF02D0F2EF0ECC4
S1130BC0CF2EF1E0DF2EF02DF8013197608170E037
S1130BD0762F6627F8018081682B072E000C880B7E
S1130BE0990B0E94B609A50194010E944209F701DC
S1130BF061937193819391937F010E5F1F4FEC1565
S1130C00FD0511F768858F8170E0782B072E000CA5
S1130C10880B990B0E94B60920E030E048EA51E4C1
S1130C200E94D5082CE53FEE46EA53E40E944209AF
S1130C3020E030E048EA51E40E94D6086093C40101
S1130C407093C5018093C6019093C7018090E6011B
S1130C509090E701A090E801B090E9018E01065F51
S1130C601F4F0F2EF8ECEF2EF1E0FF2EF02D0F2E7C
S1130C70F4EDCF2EF1E0DF2EF02DF80131976081F5
S1130C8070E0762F6627F8018081682B072E000C10
S1130C90880B990B0E94B609A50194010E94420990
S1130CA0F70161937193819391937F010E5F1F4FBD
S1130CB0EC15FD0511F70AED11E0688970E0762F57
S1130CC066278F85682B072E000C880B990B0E94D2
S1130CD0B609F80160837183828393836A8970E023
S1130CE0762F66278989682B072E000C880B990BB1
S1130CF00E94B609F80164837583868397836C899F
S1130D0070E0762F66278B89682B072E000C880BE2
S1130D10990B0E94B609F8016087718782879387CF
S1130D2065960FB6F894DEBF0FBECDBFDF91CF91AD
S1130D301F910F91FF90EF90DF90CF90BF90AF90F5
S1130D409F908F9008951F93CF93DF93182FEB01FB
S1130D50462F6CE10E945608C830D105B9F01CF446
S1130D60CD2B39F039C0C031D105E9F0689741F194
S1130D7033C080E090E0A0E8B6E48093F60190935D
S1130D80F701A093F801B093F90126C080E090E048
S1130D90A0E0B6E48093F6019093F701A093F801E4
S1130DA0B093F90119C080E090E0A0E8B5E4809325
S1130DB0F6019093F701A093F801B093F9010CC0E8
S1130DC080E090E0A0E0B5E48093F6019093F70111
S1130DD0A093F801B093F90140E06CE9812F0E94DF
S1130DE056088830910571F018F4009741F012C04C
S1130DF08031910551F08831910551F00BC082E0AA
S1130E0090E008C084E090E005C088E090E002C073
S1130E1080E190E0DF91CF911F9108951F93CF93CC
S1130E20DF93182FEB01462F6BE10E945608C83060
S1130E30D105B9F01CF4CD2B39F039C0C031D1053E
S1130E40E9F0689741F133C080E090E0A3E0B3E4B7
S1130E508093E6019093E701A093E801B093E90140
S1130E6026C080E090E0A3E8B2E48093E60190938A
S1130E70E701A093E801B093E90119C083E393E388
S1130E80A3E0B2E48093E6019093E701A093E80124
S1130E90B093E9010CC083E393E3A3E8B1E4809346
S1130EA0E6019093E701A093E801B093E90140E0E3
S1130EB06BE9812F0E9456088830910571F018F46F
S1130EC0009741F012C08031910551F088319105AD
S1130ED051F00BC08AEF90E008C084EF91E005C0A8
S1130EE088EE93E002C080ED97E0DF91CF911F91EF
S1130EF00895CF93DF93C82FD42F40E86BE60E9468
S1130F0056088FE19EE40197F1F700C0000041E02C
S1130F106BE68C2F0E9456088FE19EE40197F1F74F
S1130F2000C0000040E06CE68C2F0E9456088FE160
S1130F309EE40197F1F700C000004D2F6AE18C2F69
S1130F400E9456088FE19EE40197F1F700C000006B
S1130F5048E16BE18C2F0E9456088FE19EE40197D3
S1130F60F1F700C0000048E06CE18C2F0E945608A5
S1130F708FE19EE40197F1F700C0000049E06DE1C4
S1130F808C2F0E9456088FE19EE40197F1F700C070
S1130F90000040E367E38C2F0E9456088FE19EE433
S1130FA00197F1F700C0000040E26AE68C2F0E942E
S1130FB056088FE19EE40197F1F700C000004DE070
S1130FC064E28C2F0E9456088FE19EE40197F1F7AA
S1130FD000C000004CE065E28C2F0E9456084BE0F4
S1130FE066E28C2F0E94560841E063E68C2F0E9433
S1130FF0560841E867E28C2F0E9456088FE19EE470
S11310000197F1F700C000004AE066E28C2F0E94CD
S1131010560842E163E68C2F0E94560841E867E2D5
S11310208C2F0E94560862E070E08C2F0E94A30669
S11310306AEF70E08C2F0E940E07DF91CF91089524
S1131040823049F018F4882361F00895863039F02D
S1131050873019F008952A9808952F9808952E98A6
S1131060089540980895823049F018F4882361F077
S11310700895863039F0873019F008952A9A089532
S11310802F9A08952E9A0895409A089584B18E6AED
S113109084B982E00E94330887E00E943308389ABA
S11310A0409A1CBC8DE58CBD1DBC08951F93CF9345
S11310B0DF93C82F162FD42F0E9420081EBD0000D6
S11310C00DB407FEFDCF8EB5DEBD00000DB407FEE6
S11310D0FDCFDEB58C2F0E94330885E88A95F1F7A1
S11310E000008D2F90E0DF91CF911F910895EF9232
S11310F0FF921F93CF93DF93182FD62FC42F79011C
S11311000E942008D068DEBD00000DB407FEFDCFAC
S11311108EB54C2F50E04115510571F0F701970140
S1131120240F351F1EBC00000DB407FEFDCF9EB575
S11311309193E217F307B1F7812F0E94330885E8F2
S11311408A95F1F70000DF91CF911F91FF90EF9006
S11311500895E0ECF0E0908195FFFDCF8093C60008
S1131160E0ECF0E0808185FFFDCF0895CF93DF931D
S1131170EC018881882331F021960E94A908899185
S11311808111FBCFDF91CF910895E1ECF0E08081F4
S113119088618083E2ECF0E0808186608083109235
S11311A0C5008CE08093C40008955058BB27AA273B
S11311B00E94ED080C94080A0E94FA0938F00E9473
S11311C0010A20F039F49F3F19F426F40C94F7092E
S11311D00EF4E095E7FB0C94F109E92F0E94190A3B
S11311E058F3BA17620773078407950720F079F458
S11311F0A6F50C943B0A0EF4E0950B2EBA2FA02D05
S11312000B01B90190010C01CA01A0011124FF27AF
S1131210591B99F0593F50F4503E68F11A16F040AA
S1131220A22F232F342F4427585FF3CF46953795A9
S11312302795A795F0405395C9F77EF41F16BA0B6E
S1131240620B730B840BBAF09150A1F0FF0FBB1F1C
S1131250661F771F881FC2F70EC0BA0F621F731F65
S1131260841F48F4879577956795B795F7959E3FC2
S113127008F0B0CF9395880F08F09927EE0F979553
S1131280879508950E9456090C94080A0E94010A41
S113129058F00E94FA0940F029F45F3F29F00C94B9
S11312A0F10951110C943C0A0C94F7090E94190A93
S11312B068F39923B1F3552391F3951B550BBB2781
S11312C0AA2762177307840738F09F5F5F4F220FC6
S11312D0331F441FAA1FA9F335D00E2E3AF0E0E8BD
S11312E032D091505040E695001CCAF72BD0FE2F07
S11312F029D0660F771F881FBB1F2617370748079B
S1131300AB07B0E809F0BB0B802DBF01FF27935852
S11313105F4F3AF09E3F510578F00C94F1090C941C
S11313203C0A5F3FE4F3983ED4F38695779567953E
S1131330B795F7959F5FC9F7880F911D9695879587
S113134097F90895E1E0660F771F881FBB1F6217A6
S113135073078407BA0720F0621B730B840BBA0B64
S1131360EE1F88F7E0950895E89409C097FB3EF4D2
S113137090958095709561957F4F8F4F9F4F9923DE
S1131380A9F0F92F96E9BB279395F695879577955C
S11313906795B795F111F8CFFAF4BB0F11F460FF1C
S11313A01BC06F5F7F4F8F4F9F4F16C0882311F074
S11313B096E911C0772321F09EE8872F762F05C088
S11313C0662371F096E8862F70E060E02AF09A9523
S11313D0660F771F881FDAF7880F9695879597F918
S11313E0089597F99F6780E870E060E008959FEFA3
S11313F080EC089500240A941616170618060906A8
S1131400089500240A941216130614060506089576
S1131410092E0394000C11F4882352F0BB0F40F4FE
S1131420BF2B11F460FF04C06F5F7F4F8F4F9F4F3E
S1131430089557FD9058440F551F59F05F3F71F0C0
S11314404795880F97FB991F61F09F3F79F0879527
S11314500895121613061406551FF2CF4695F1DFB0
S113146008C0161617061806991FF1CF8695710540
S1131470610508940895E894BB2766277727CB0174
S113148097F908950E94550A0C94080A0E94FA09D3
S113149038F00E94010A20F0952311F00C94F10910
S11314A00C94F70911240C943C0A0E94190A70F355
S11314B0959FC1F3950F50E0551F629FF001729FF5
S11314C0BB27F00DB11D639FAA27F00DB11DAA1F04
S11314D0649F6627B00DA11D661F829F2227B00D51
S11314E0A11D621F739FB00DA11D621F839FA00DDC
S11314F0611D221F749F3327A00D611D231F849F2C
S1131500600D211D822F762F6A2F11249F57504082
S11315109AF0F1F088234AF0EE0FFF1FBB1F661FFD
S1131520771F881F91505040A9F79E3F510580F0C6
S11315300C94F1090C943C0A5F3FE4F3983ED4F315
S1131540869577956795B795F795E7959F5FC1F76A
S1131550FE2B880F911D9695879597F90895A3E121
S1131560B0E0E5EBFAE00C942B0E6C014B012A0180
S1131570FC0117821682838181FF43C3AE014F5F52
S11315805F4F3A01F6019381F40193FD859193FF36
S113159081914F01882309F430C3853239F493FDD6
S11315A0859193FF81914F01853239F4B60190E022
S11315B00E94500F52012501E5CF10E0F12C20E0EC
S11315C02032A0F48B3269F030F4803259F0833247
S11315D069F420612CC08D3239F0803339F42160F4
S11315E026C02260246023C0286021C027FD27C0B4
S11315F030ED380F3A3078F426FF06C0FAE01F9F2A
S1131600300D1124132F13C04AE0F49E300D112421
S1131610F32E20620CC08E3221F426FDEEC220642B
S113162006C08C3611F4206802C0883641F4F401F7
S113163093FD859193FF81914F018111C1CF9BEB64
S1131640980F933018F42061805E06C09BE9980FD0
S1131650933008F071C12F7E26FF16E02F73322ECF
S1131660853619F42064322E08C0863621F4F22F10
S1131670F0683F2E02C01111115037FE07C01C3311
S113168050F4EE24E394E10E27E00BC0183038F058
S113169027E017E005C027E04CE3E42E02C0212F29
S11316A0E12C520144E0A40EB11CF201608171816D
S11316B0828193810E2DA3010E94620E2C01098167
S11316C000FF02C003FF07C031FC08C032FE09C09E
S11316D030E2232E07C02DE2222E04C09BE2292EE5
S11316E001C0212C802F8C7019F0211068C2A8C26F
S11316F037FE0FC0E40C04FF04C08A81813309F46F
S1131700EA941E1474F5F8E0FE1578F588E0E82EE6
S11317102CC036FC2AC0812F90E0841595059CF0DE
S11317202CEF42162FEF520674F0432D4068342EEE
S11317300AC0E2E0F0E0EC0FFD1FE10FF11D808133
S1131740803319F411501111F4CF37FE0EC0EE247A
S1131750E394E10E812F90E0481659062CF41419F5
S113176004C0EE24E39401C010E037FE06C0141454
S1131770150434F4C201019605C085E090E002C06E
S113178081E090E021100196112331F0212F30E007
S11317902F5F3F4F820F931F2F2D30E08217930747
S11317A014F4F81A01C0F12C832D897049F4FF2038
S11317B039F0B60180E290E00E94500FFA94F7CF1E
S11317C0222029F0B601822D90E00E94500F33FCB4
S11317D009C0FF2039F0B60180E390E00E94500F69
S11317E0FA94F7CF37FE5AC0942D852D57FE02C0C8
S11317F090E080E0292E382E20E030E0A2014E193E
S113180051095D874C87A201421953095F874E87AE
S1131810612F70E044275527461B570B598B488B83
S11318205FEF2516350649F4B6018EE290E02A8B67
S11318303B8B0E94500F3B892A89421453046CF05D
S11318404C855D854215530544F4EE85FF85E20F12
S1131850F31FE60DF71D818101C080E351E0251AD5
S113186031082F5F3F4F48895989241635064CF0BB
S1131870B60190E02A8B3B8B0E94500F2A893B894A
S1131880CFCF2414350439F49A81963318F4953360
S113189011F404FF81E3B60190E04BC08A818133E7
S11318A009F00F7EB60190E00E94500F111105C09F
S11318B034FC18C085E690E017C0B6018EE290E0D3
S11318C00E94500F82E0EE24E394E80EF301E80F47
S11318D0F11D8081B60190E00E94500F11508E2DB1
S11318E091F7E6CF85E490E0B6010E94500F57FCD3
S11318F005C04114510439F404FF05C051944194C6
S113190051088DE201C08BE2B60190E00E94500FB5
S113191080E39AE0491651042CF08F5F5AE0451A8F
S11319205108F7CFB60190E00E94500FB601C201F2
S1131930C0960E94500F57C1833631F0833779F037
S1131940833509F058C021C05201E2E0AE0EB11C4B
S1131950F2018081898301E010E0230114C0520167
S1131960F2E0AF0EB11CF2014080518026FF03C0AB
S1131970612F70E002C06FEF7FEFC2012A8B0E94DB
S1131980450F8C012A892F7715C05201F2E0AF0E62
S1131990B11CF2014080518026FF03C0612F70E02A
S11319A002C06FEF7FEFC2012A8B0E943A0F8C01B5
S11319B02A892068322E23FD1AC08F2D90E0081743
S11319C01907A8F4B60180E290E00E94500FFA943F
S11319D0F4CFF20137FC859137FE81912F01B601D6
S11319E090E00E94500FF110FA9401501109011572
S11319F0110579F7F8C0843611F0893659F552018A
S1131A0027FF09C0F4E0AF0EB11CF20160817181BF
S1131A10828193810AC0F2E0AF0EB11CF2016081B1
S1131A207181072E000C880B990B2F76322E97FFAD
S1131A3009C090958095709561957F4F8F4F9F4F0A
S1131A402068322E2AE030E0A3010E94B80FE82E6D
S1131A50E6183FC0022F853721F40F7E2AE030E0DC
S1131A601DC0097F8F3691F018F4883559F0C5C030
S1131A70803719F0883711F0C0C0006104FF09C035
S1131A80046007C024FF08C0066006C028E030E0F8
S1131A9005C020E130E002C020E132E0520107FF3E
S1131AA009C0F4E0AF0EB11CF20160817181828142
S1131AB0938108C0F2E0AF0EB11CF2016081718124
S1131AC080E090E0A3010E94B80FE82EE6180F779B
S1131AD0302E36FE0BC0332D3E7FE11650F434FE1B
S1131AE00AC032FC08C0332D3E7E05C00E2D332DB6
S1131AF003C00E2D01C0012F34FF0CC0FE01EE0DFA
S1131B00F11D8081803311F4397E08C032FF05C095
S1131B100E5F04C0832F867809F00F5F33FD13C076
S1131B2030FF06C01E2D0F1518F41F0D101B0F2DAE
S1131B300F1568F4B60180E290E03B8B0E94500FD1
S1131B400F5F3B89F5CF0F1510F4F01A01C0F12C8B
S1131B5034FF12C0B60180E390E03B8B0E94500F2B
S1131B603B8932FF17C031FD03C088E790E002C013
S1131B7088E590E0B6010CC0832F867859F031FFD8
S1131B8002C08BE201C080E237FD8DE2B60190E035
S1131B900E94500FE11638F4B60180E390E00E94F1
S1131BA0500F1150F7CFEA94F301EE0DF11D80812F
S1131BB0B60190E00E94500FE110F5CF14C0F4E09C
S1131BC0FF1558F584E0F81A33FE1EC0211026C014
S1131BD003FF2AC008E610E0F32DF0713F2EF80150
S1131BE08491811124C0FF2009F4E5CCB60180E280
S1131BF090E00E94500FFA94F6CFF6018681978107
S1131C0026C08FEF9FEF23C0B60180E290E00E94D0
S1131C10500FFA94F110F8CFD9CFF12CB601822DE0
S1131C2090E00E94500FD4CF0CE610E0D5CF3110D5
S1131C308052B60190E00E94500F0F5F1F4FCFCF2C
S1131C4023E02F1510F483E0BECFF12CC1CF6396AF
S1131C50E2E10C94470E2F923F924F925F926F9263
S1131C607F928F929F92AF92BF92CF92DF92EF9228
S1131C70FF920F931F93CF93DF93CDB7DEB7CA1BA9
S1131C80DB0B0FB6F894DEBF0FBECDBF09942A88D4
S1131C90398848885F846E847D848C849B84AA847C
S1131CA0B984C884DF80EE80FD800C811B81AA8109
S1131CB0B981CE0FD11D0FB6F894DEBF0FBECDBFD4
S1131CC0ED010895283008F027E03327DA01990F51
S1131CD0311D87FD916000966105710539F432600C
S1131CE02E5F3D9330E32A95E1F708959F3F30F04E
S1131CF080387105610509F03C5F3C5F3D9391308C
S1131D0008F08068911DDF93CF931F930F93FF9288
S1131D10EF92192F987F9695E92F96959695E90F4E
S1131D20FF27E653FF4F99273327EE24FF24A7010B
S1131D30E70105900894079428F4360FE71EF81E6F
S1131D40491F511D660F771F881F991F0694A1F71D
S1131D500590079428F4E70EF81E491F561FC11D6D
S1131D60770F881F991F661F0694A1F705900794A3
S1131D7028F4F80E491F561FC71FD11D880F991F3D
S1131D80661F771F0694A1F70590079420F4490F66
S1131D90561FC71FD81F990F661F771F881F0694E9
S1131DA0A9F784911095177041F0D695C79557956A
S1131DB04795F794E7941A95C1F7E0E7F0E0689443
S1131DC01590159135916591959105907FE27395E4
S1131DD0E118F10A430B560BC90BD009C0F7E10C0B
S1131DE0F11E431F561FC91FD01D7EF4703311F41A
S1131DF08A95E6CFE894015030F0080F0AF40027E2
S1131E00021708F4202F2395022F7A3328F079E360
S1131E107D932A95E9F710C07D932A9589F6069457
S1131E2097956795379517951794E118F10A430B21
S1131E30560BC90BD00998F023957E9173957A338C
S1131E4008F070E37C932013B8F77E9170617D9362
S1131E5030F0839571E37D9370E32A95E1F71124C3
S1131E60EF90FF900F911F91CF91DF91992787FDFC
S1131E7090950895FC010590615070400110D8F7C9
S1131E80809590958E0F9F1F0895FC0161507040BE
S1131E9001900110D8F7809590958E0F9F1F08959B
S1131EA00F931F93CF93DF93FB01238121FD03C085
S1131EB08FEF9FEF28C022FF16C0468157812481EF
S1131EC035814217530744F4A081B1819D012F5FEE
S1131ED03F4F318320838C93268137812F5F3F4F7F
S1131EE03783268310C0EB01092F182F0084F18556
S1131EF0E02D0995892BE1F68E819F8101969F83C0
S1131F008E83812F902FDF91CF911F910F91089590
S1131F10AEE0B0E0EEE8FFE00C94390E0D891E89C6
S1131F208F89988D26E02C831A83098397FF02C03A
S1131F3080E090E801979E838D83AE01455E5F4FFC
S1131F40698D7A8DCE0101960E94AF0A4D815E8122
S1131F5057FD0AC02F813885421753070CF49A01A4
S1131F60F801E20FF31F10822E96E4E00C94550E54
S1131F70FA01AA27283051F1203181F1E8946F93B6
S1131F806E7F6E5F7F4F8F4F9F4FAF4FB1E03ED05C
S1131F90B4E03CD0670F781F891F9A1FA11D680FFA
S1131FA0791F8A1F911DA11D6A0F711D811D911D2D
S1131FB0A11D20D009F468943F912AE0269F1124A2
S1131FC03019305D3193DEF6CF010895462F477006
S1131FD0405D4193B3E00FD0C9F7F6CF462F4F7061
S1131FE0405D4A3318F0495D31FD4052419302D0BF
S1131FF0A9F7EACFB4E0A695979587957795679565
S1132000BA95C9F700976105710508959B01AC0164
S11320100A2E06945795479537952795BA95C9F78B
S1132020620F731F841F951FA01D0895F894FFCF9E
S11320302A544D50553932353020416464723D255F
S11320403032582020414B38393633204164647291
S11320503D25303258200A204779726F205363613E
S11320606C653D25642020416363656C2053636186
S11320706C653D25642A0A0A002A5454656D70650E
S11320807261747572653D25662A0A002A485825CE
S11320906C755925662C58256C755925662C582560
S11320A06C755925662A0A002A4A58256C755925E3
S11320B0662C58256C755925662C58256C75592540
S11320C0662A0A002A4B58256C755925662C582512
S11320D06C755925662C58256C755925662A0A0095
S9030000FC
